:10000000A1C20000D0C20000CEC20000CCC20000DD
:10001000CAC20000C8C20000C6C20000C4C20000BC
:10002000C2C20000C0C20000BEC20000BCC20000CC
:10003000BAC20000B8C20000B6C20000B4C20000DC
:10004000B2C200000C948316AEC20000ACC2000025
:100050000C94B016A8C20000A6C200000C94A8140C
:10006000A2C200000C94CB120C94A2129CC20000FD
:100070009AC2000098C2000096C2000094C200001C
:100080000C94561690C200008EC200008CC2000074
:100090008AC2000088C2000086C2000084C200003C
:1000A00082C2000080C200000C9429167CC20000AD
:1000B0007AC2000078C2000076C200000C94FC15E1
:1000C00072C2000070C200006EC200006CC200006C
:1000D0006AC2000068C2000066C2000064C200007C
:1000E00062C200009C109F108E1092109810D610C3
:1000F000A310A710AD10B110B510BB10BF10C310E6
:10010000D610C910CD10D1109C17A917B217BB1764
:10011000C817D117D61BD61BD61BD61BD61BDE176E
:10012000EB17F817D61B05180E18171824182D18DA
:1001300036183F1848185118D61B5A1863186C18EF
:10014000D61BD61BD61B75187E188718D61BD61B38
:1001500090189D18D61BD61BD61BAA18B718C41802
:10016000D61BD118DA18E318D61BD61BD61BEC18F1
:10017000F518FE18D61B0B1918192519D61BD61BF6
:10018000D61B32193F194C19D61B59196619731908
:10019000D61BD61BD61B80198D199A19D61BA719E9
:1001A000B019B919D61BD61BD61BDD19EA19F719D8
:1001B000D61B041A111A1E1AD61BD61BD61B2B1AB5
:1001C000341A3D1AD61BD61BD61BD61BD61BD61BE4
:1001D000D61B461A4F1A581AD61B611A6A1A731A76
:1001E000D61BD61BD61B7C1A891A961AD61BA31AA5
:1001F000B01ABD1AD61BD61BD61BCA1AD71AE41AB8
:10020000D61BF11AFA1A031BD61BD61BD61B0C1BC6
:10021000151B1E1BD61BD61BD61BD61BD61BD61BCF
:10022000D61BD61BD61BD61BD61BC219CB19D4196D
:10023000D61BD61BD61BD61BD61BD61BD61BD61B36
:10024000D61BD61BD61BD61BD61BD61BD61BD61B26
:10025000D61BD61BD61BD61BD61BD61BD61BD61B16
:10026000D61BD61BD61BD61BD61BD61BD61BD61B06
:10027000D61BD61BD61BD61BD61BD61BD61BD61BF6
:10028000D61BD61BD61BD61BD61BD61BD61BD61BE6
:10029000D61BD61BD61BD61BD61B271B301B3D1BC4
:1002A000D61B4A1B531B601BD61BD61BD61B6D1BB4
:1002B000761B831BD61B901B991BA61BD61BD61B1C
:1002C000D61BB31BBC1BC91B4B1D501D551D5F1DF1
:1002D000691DE21D731D7B1D831D8D1D971DA11DB5
:1002E000B01DBA1DE21DC41DCE1DD81D4E414E4984
:1002F0004E495459494E46CDCCCC3D0AD7233C17E4
:10030000B7D13877CC2B329595E6241FB14F0A0030
:100310000020410000C84200401C4620BCBE4CCA20
:100320001B0E5AAEC59D7400407A10F35A00A0729D
:100330004E18090010A5D4E80000E8764817000020
:10034000E40B54020000CA9A3B000000E1F50500EE
:100350000080969800000040420F000000A0860137
:10036000000000102700000000E803000000006407
:1003700000000000000A0000000000010000000072
:10038000002C76D888DC674F0823DFC1DFAE59E147
:10039000B1B796E5E3E453C63AE651997696E8E6B6
:1003A000C28426EB898C9B62ED407C6FFCEFBC9C89
:1003B0009F40F2BAA56FA5F490055A2AF75C936B9B
:1003C0006CF9676DC11BFCE0E40D47FEF520E6B556
:1003D00000D0ED902E0300943577050080841E0830
:1003E0000000204E0A000000C80C333333330F984E
:1003F0006E12831141EF8D2114893BE65516CFFE15
:10040000E6DB18D1844B381BF77C1D901DA4BBE4A0
:1004100024203284725E228100C9F124ECA1E53DE2
:100420002700000A0B02090C0D0E08070304010047
:1004300000000000000000000000000000000000BC
:100440000000000000000000000000000012111079
:10045000000000000000000000000000000000009C
:100460000000000000000000002100240027002AF6
:10047000002D003000330001010000040107010AD3
:100480000100002200250028002B002E003100343E
:100490000002010000050108010B010000200023FB
:1004A00000260029002C002F00320000010000036C
:1004B00001060109010505050507050808080802E8
:1004C0000202020A0A0808040404040101010101ED
:1004D0000101010303030303030303040707070CDC
:1004E0000C0C0C0C0C0C0C02020202060606060692
:1004F0000606060B0B0B0B0B0B0B0B01021020203F
:100500000808102040102040800201020108040267
:1005100001010204081020408080402010080402DD
:100520000180040201804020100804020108040236
:10053000010102040810204080010204081020403C
:100540008000B64A11241FBECFEFD1E2DEBFCDBF7F
:1005500000E00CBF17E0A0E0B2E0E6E3F9EA00E05B
:100560000BBF02C007900D92A83FB107D9F72EE04C
:10057000A8EFB7E001C01D92A630B207E1F712E084
:10058000C2EAD2E000E006C021970109802FFE01F7
:100590000E948C53C13AD10780E00807A9F70E9456
:1005A000693F0C9499542CCD0F931F93CF93DF93F5
:1005B000FB0102A113A1C68DD78D0E94DB16C530A9
:1005C000D105E1F064F4249771F564E070E082EF06
:1005D0009DE00E947515B80182EF9DE022C0C630F3
:1005E000D105B1F02B97F9F46BE070E08BEF9DE053
:1005F0000E947515B8018BEF9DE013C065E070E0B7
:1006000085EF9DE00E947515B80185EF9DE009C05A
:1006100066E070E088EF9DE00E947515B80188EFF4
:100620009DE00E94F21480E090E0DF91CF911F9155
:100630000F9108950C94D94B0C94D94B0C94D94B31
:100640000C94D94B0C94D94B0C94D94B0C94D94B9A
:100650000C94D94B0C94D94B0C94D94B0C94D94B8A
:100660000C94D94B0C94D94B0C94D94BEF92FF922C
:100670000F931F93CF93DF93FB01E2A8F3A802A18E
:1006800013A1C68DD78D0E94EF1D9701A801BE0151
:100690000E94071D80E090E0DF91CF911F910F91A4
:1006A000FF90EF9008956F927F928F929F92AF92FA
:1006B000BF92CF92DF92EF92FF920F931F93CF934F
:1006C000DF93FB01E2A8F3A886A497A4A0A8B1A891
:1006D000C6A0D7A062A073A0068D178D0E94EF1D43
:1006E000EC019701A301B8010E94071DC501B401E7
:1006F0000E9464149701A601B801CE010E94071D53
:1007000080E090E0DF91CF911F910F91FF90EF90EB
:10071000DF90CF90BF90AF909F908F907F906F9021
:1007200008951F93CF93DF931F92CDB7DEB7FB01E0
:1007300062A9168D69830E94EF1D6981812F0E9435
:100740001D1480E090E00F90DF91CF911F910895EC
:100750000F931F93CF93DF93FB0102A913A9C68DBB
:10076000D78D0E94EF1DA801BE010E949B1C80E056
:1007700090E0DF91CF911F910F910895662319F0BA
:1007800082E694E002C08BE594E00C94223ECF9385
:10079000DF93FB01C68DD78D0E94771FBE010E949B
:1007A0001D1F80E090E0DF91CF910895EF92FF92BE
:1007B0000F931F93CF93DF9300D01F92CDB7DEB777
:1007C000FB0122A133A144A155A1068D178D2983D8
:1007D0003A834B835C830E94771F7C01FC018281FA
:1007E000938129813A814B815C818F30F7E29F07A9
:1007F0002CF40196F7019383828303C0F7011382DF
:100800001282B801C70129833A834B835C830E941B
:100810000E1E29813A814B815C818823A1F0F80169
:10082000EE0FFF1FEE0FFF1FE050F84F20833183C4
:1008300042835383B801C7010E94CE1EB801C7018D
:100840000E941D1F04C085E595E00E94223E0E9483
:1008500065170E94351780E090E00F900F900F9081
:100860000F90DF91CF911F910F91FF90EF9008951E
:100870008F929F92AF92BF92CF92DF92EF92FF92B0
:100880000F931F930E94C40D62E070E00E9409392B
:10089000892BD1F40E94C40D21E02F931F921F9247
:1008A0001F921F92812C912CA12CB12CC12CD12CE8
:1008B000760197018601B701A6010E9425210F90BC
:1008C0000F900F900F900F9080E090E01F910F918C
:1008D000FF90EF90DF90CF90BF90AF909F908F9060
:1008E00008958F929F92AF92BF92CF92DF92EF9234
:1008F000FF920F931F930E94C40D61E070E00E946D
:100900000939892BD1F40E94C40D1F9221E02F9345
:100910001F921F921F92812C912CA12CB12CC12CC3
:10092000D12C760197018601B701A6010E942521ED
:100930000F900F900F900F900F9080E090E01F911C
:100940000F91FF90EF90DF90CF90BF90AF909F906E
:100950008F9008958F929F92AF92BF92CF92DF9225
:10096000EF92FF920F931F930E94C40D60E070E01E
:100970000E940939892BD1F40E94C40D1F921F9245
:1009800021E02F931F921F92812C912CA12CB12C2E
:10099000C12CD12C760197018601B701A6010E94D6
:1009A00025210F900F900F900F900F9080E090E016
:1009B0001F910F91FF90EF90DF90CF90BF90AF907D
:1009C0009F908F900895089508950895089508952B
:1009D000089508950895089508950895089508952F
:1009E0000895EF92FF920F931F93CF93DF93CDB7AC
:1009F000DEB72E970FB6F894DEBF0FBECDBF8C01C9
:100A000068ED74E00E948E1267E775E0C8010E94ED
:100A100050126091FC077091FD078091FE07909144
:100A2000FF072AE0AE014F5F5F4F7A010E94A84C9A
:100A3000F70101900020E9F73197AF014E195F09E6
:100A4000B701C8010E94F31166ED74E0C8010E946D
:100A50005012C8012E960FB6F894DEBF0FBECDBF60
:100A6000DF91CF911F910F91FF90EF90089587E74D
:100A700095E00E94223E6091FC077091FD078091F5
:100A8000FE079091FF070E946E3E86ED94E00C9465
:100A9000223E0F931F93CF93DF93EC018AE795E0FB
:100AA0000E94223E8EE795E00E94223E04EA1CE06E
:100AB000F8016081CE0162DE82E895E00E94223E6C
:100AC000F8016181CE015ADE86E895E00E94223E5F
:100AD000F8016281CE0152DE8AE895E00E94223E52
:100AE000F8016381CE014ADE8EE895E00E94223E45
:100AF000F8016481CE0142DE82E995E00E94223E47
:100B0000F8016581CE013ADECE01DF91CF911F91D0
:100B10000F91ADCFCF92DF92EF92FF92CF93DF9301
:100B2000EC0188819981AA81BB81181619061A06E1
:100B30001B0644F081E090E0A0E0B0E08883998358
:100B4000AA83BB838C819D81AE81BF811816190653
:100B50001A061B0644F081E090E0A0E0B0E08C8330
:100B60009D83AE83BF8388859985AA85BB8518162A
:100B700019061A061B0644F081E090E0A0E0B0E000
:100B800088879987AA87BB8786E995E00E94223EDD
:100B900087EB95E00E94223E6091840B7091850B5B
:100BA0008091860B9091870B0E94F1506B017C0124
:100BB000688179818A819B810E94F1509B01AC01FF
:100BC000C701B6010E94DF5242E00E94953E87ECC9
:100BD00095E00E94223E6091880B7091890B809174
:100BE0008A0B90918B0B0E94F1506B017C016C8100
:100BF0007D818E819F810E94F1509B01AC01C701D4
:100C0000B6010E94DF5242E00E94953E87ED95E0DA
:100C10000E94223E60918C0B70918D0B80918E0B07
:100C200090918F0B0E94F1506B017C016885798552
:100C30008A859B850E94F1509B01AC01C701B601DA
:100C40000E94DF5242E00E94953ECE01DF91CF919B
:100C5000FF90EF90DF90CF900ACF8091A20C9091FF
:100C6000A30C892B09F044C08FE090E00E94444B14
:100C7000FC0181E090E0A0E0B0E080839183A2835A
:100C8000B38384839583A683B78380879187A28764
:100C9000B3871586148616861092840B1092850BE6
:100CA0001092860B1092870B1092880B1092890B72
:100CB00010928A0B10928B0B10928C0B10928D0B52
:100CC00010928E0B10928F0B1092A10C1092A00C10
:100CD0001092FC071092FD071092FE071092FF077A
:100CE0001092FB071092FA07F093A30CE093A20C6A
:100CF0008091A20C9091A30C08950E94771F0E94EE
:100D00005F1F8AE995E00E94223EA7DFB0DE80E007
:100D100090E008952F923F924F925F926F927F9250
:100D20008F929F92AF92BF92CF92DF92EF92FF92FB
:100D30000F931F93CF93DF9327D721E02F931F9219
:100D40001F921F921F92812C912CA12CB12CC12C8F
:100D5000D12C760197018601B701A6010E942521B9
:100D60000E94771F0F900F900F900F900F9080911F
:100D7000CC089091CD08019719F486EF9FEF02C03F
:100D80008AE090E0C0E0D0E02C01990F6608770877
:100D9000C330D10599F054F4C130D10579F0C23097
:100DA000D10521F5F1D6E1E0EF9323C0C530D1059F
:100DB00029F0E4F4E9D6F1E0FF931BC0E5D61C016D
:100DC000C301B2010E94F1506B017C011F921F927E
:100DD0001F921F921F92812C912CA12CB12C00E00C
:100DE00010E09801B901A801C10112C0CDD621E0DF
:100DF0002F931F921F921F921F92812C912CA12C36
:100E0000B12CC12CD12C760197018601B701A60126
:100E10000E9425210F900F900F900F900F901DDFD3
:100E20002090FA073090FB0718DFFC0186858111BE
:100E300007C0232829F42196C730D10509F0A8CF8F
:100E400080E090E0DF91CF911F910F91FF90EF90A4
:100E5000DF90CF90BF90AF909F908F907F906F90DA
:100E60005F904F903F902F9008952F923F924F9216
:100E70005F926F927F928F929F92AF92BF92CF922A
:100E8000DF92EF92FF920F931F93CF93DF930E9415
:100E9000771F8091CC089091CD08019719F486EFC7
:100EA0009FEF02C08AE090E0C0E0D0E02C01990FF3
:100EB00066087708C330D105A9F05CF4C130D105CC
:100EC00089F0C230D10531F55FD61F92E1E0EF9392
:100ED00025C0C530D10531F0ECF456D61F92F1E0B3
:100EE000FF931CC051D61C01C301B2010E94F150F6
:100EF0008B019C011F921F921F921F921F92812CA7
:100F0000912CA12CB12CC12CD12C7601B701A601BA
:100F1000C10112C039D61F9221E02F931F921F9258
:100F20001F92812C912CA12CB12CC12CD12C76019B
:100F300097018601B701A6010E9425210F900F900D
:100F40000F900F900F9089DE2090FA073090FB07EA
:100F500084DEFC018685811107C0232829F42196AF
:100F6000C730D10509F0A6CF80E090E0DF91CF91A6
:100F70001F910F91FF90EF90DF90CF90BF90AF90B7
:100F80009F908F907F906F905F904F903F902F90A9
:100F900008952F923F924F925F926F927F928F921D
:100FA0009F92AF92BF92CF92DF92EF92FF920F93F8
:100FB0001F93CF93DF930E94771F8091CC0890916D
:100FC000CD08019719F486EF9FEF02C08AE090E008
:100FD000C0E0D0E02C01990F66087708C330D10536
:100FE000B9F064F4C130D10599F0C230D10541F5B2
:100FF000CBD51F921F92E1E0EF9327C0C530D105FA
:1010000039F0F4F4C1D51F921F92F1E0FF931DC097
:10101000BBD51C01C301B2010E94F150AB01BC0160
:101020001F921F921F921F921F92812C912CA12C14
:10103000B12CC12CD12C760197018601C10112C0BF
:10104000A3D51F921F9221E02F931F921F92812CF4
:10105000912CA12CB12CC12CD12C760197018601A9
:10106000B701A6010E9425210F900F900F900F90BD
:101070000F90F3DD2090FA073090FB07EEDDFC01C6
:101080008685811107C0232829F42196C730D10510
:1010900009F0A4CF80E090E0DF91CF911F910F91F4
:1010A000FF90EF90DF90CF90BF90AF909F908F9088
:1010B0007F906F905F904F903F902F900895CDDD7F
:1010C000FC01168680E090E00895CF93DF9383E0E3
:1010D0000E940113EC01C1DD91E0CD2B09F490E0F9
:1010E0009093A40C82E00E940113EC01B6DD91E024
:1010F000CD2B09F490E09093A50C8EE00E94011393
:10110000EC01ABDD91E0CD2B09F490E09093A60CBF
:101110008FE00E940113EC01A0DD91E0CD2B09F4DA
:1011200090E09093A70C82E10E940113EC0195DD01
:1011300091E0CD2B09F490E09093A80C83E10E94FC
:101140000113EC018ADD91E0CD2B09F490E090933E
:10115000A90CDF91CF9108958FEF9FEF08958EE94D
:1011600095E00E94223E87E293E00E94223E75DDD8
:101170007EDC80E090E008950C94D94B0C94D94B20
:101180000C94D94B0C94D94B0C94D94B0C94D94B4F
:101190000C94D94B0C94D94B0C94D94B5EDDBADC32
:1011A00080E090E0089583EA95E00E94223E55DDBC
:1011B0008CDF53DD6EDC0E94EF1D40E050E068E004
:1011C00070E00E949B1C0E94EF1D40E050E069E02F
:1011D00070E00E949B1C0E94EF1D40E050E06AE01E
:1011E00070E00E949B1C0E94EF1D40E050E06DE00B
:1011F00070E00E949B1C80E090E00895AF92BF9247
:10120000CF92DF92EF92FF920F931F93CF93DF93D2
:10121000EC0186E390E09E8B8D8B87E390E0988FC6
:101220008F8B86E290E09A8F898F8AE190E09C8F85
:101230008B8F8CE190E09E8F8D8F88E190E098A35A
:101240008F8F83E090E09AA389A382E090E09CA333
:101250008BA3FE01E257FF4F8CE390E096838583DA
:101260008DE390E09087878388E390E09287818781
:101270001486138616861586108A17868EE090E0EF
:10128000928B818B8FE090E0948B838BE258FF4FA1
:101290008EE290E09683858380E390E09087878359
:1012A0008EE390E0928781871486138616861586D2
:1012B000108A178682E190E0928B818B83E190E027
:1012C000948B838BE15EFE4F1182108232961182E5
:1012D0001082329611821082CE010E94AC31CE0172
:1012E0000E94C02F6E0186E7C81A8EEFD80AAA2482
:1012F000A394B12CF601B7A6A6A67E01F6E4EF1AD8
:10130000FEEFFF0A84E090E0F70197A786A78E0121
:1013100006511E4F88E090E0F80197A786A780E16C
:1013200090E0F6019183808381E190E0958384834E
:101330008FE190E09383828381E290E097838683BC
:10134000C6010E94F41FF60182858087838581870C
:1013500087E190E0F7019183808389E190E09583B4
:10136000848383E290E09383828385E290E0978395
:101370008683C7010E94F41FF701828580878385D9
:1013800081878BE190E0F801918380838DE190E08B
:101390009583848387E290E09383828389E290E05F
:1013A00097838683C8010E94F41FF8018285808795
:1013B00083858187E45EFE4F8081918172974081B1
:1013C000518162817381369720813181F601358F99
:1013D000248F448B558B668B778B019729F48FEF85
:1013E0009FEF978F868F03C0F601B78EA68EFE0102
:1013F000E85FFC4F808191817097408151816281CB
:101400007381389720813181F701358F248F448B88
:10141000558B668B778B019719F48FEF9FEF03C085
:1014200081E090E0F701978F868FFE01E65FFC4F29
:10143000808191813E974081518162817381CE503C
:10144000DD4F28813981F801358F248F448B558BEE
:10145000668B778B019719F48FEF9FEF03C081E0C4
:1014600090E0F801978F868FDF91CF911F910F91B8
:10147000FF90EF90DF90CF90BF90AF9008952F92A4
:101480003F924F925F926F927F928F929F92AF9214
:10149000BF92CF92DF92EF92FF920F931F93CF9361
:1014A000DF93CDB7DEB7CE57D1090FB6F894DEBFC4
:1014B0000FBECDBF8C01FC011082118212821382FB
:1014C0001482158216821782108611861286138660
:1014D00014861586168617862C01F0E14F0E511CD6
:1014E000C2010E94102E68018EE8C80ED11CC601F0
:1014F0000E94102E7801E4EFEE1AEEEFFE0AC7010B
:101500000E94102E3801F6E76F1AFEEF7F0AC30122
:101510000E94C120480186E4881A8EEF980AC4010F
:101520000E94C1205801E6E1AE1AEEEFBE0AC501E5
:101530000E94C12068ED74E0C801865E9D4FEED721
:10154000F801E05EFD4F1182108232961182108206
:101550003296118210823296118210823296108257
:101560003196108231961082319611821082329615
:101570001182108232961182108232961082319638
:10158000108231961082319610821182128213825B
:101590003496108211821282138234961082118244
:1015A0001282138234961082118212821382349630
:1015B000108211821282138234961082118212825A
:1015C0001382349610821182128213823496108212
:1015D0001182128213823496108211821282138237
:1015E00034961082118212821382349610821182F4
:1015F00012821382349610821182128213823496E0
:101600001082118212821382349610821182128209
:1016100013823496108211821282138234961082C1
:101620003196108231961082319610821182128288
:1016300013823496108211821282138234961082A1
:101640001182128213823496108231961082319662
:101650001082319610823196108231961082319626
:101660001082319610823196108231961082319616
:101670001082319610823196108231961082319606
:1016800010823196108231961082319610823196F6
:1016900010823196108231961082319610823196E6
:1016A000108231961082319610821182128213823A
:1016B0003496108211821282138234961082118223
:1016C00012821382D801AD55BD4F8CE0E0E3F3E008
:1016D00001900D928A95E1F7F801E155FD4F1082D6
:1016E0001182128213823496108211821282138226
:1016F00034961082118212821382349611821082E3
:1017000032961182108232961182108232961082A5
:1017100011821282138234961082118212821382F5
:1017200034961082118212821382349610821182B2
:10173000128213823496108211821282138234969E
:101740001082118212821382349611821082329694
:10175000118210823296118210823296108211828A
:10176000128213823496108211821282138234966E
:101770001082118212821382349610823196108266
:101780003196108231961182108232961182108227
:101790003296118210823296108211821282138246
:1017A0003496108211821282138234961082118232
:1017B0001282138234961182108232961182108224
:1017C00032961182108232961182108232961182E4
:1017D00010823296118210823296118210823296D5
:1017E000118210821801F0EF2F1AFCEF3F0AF1016D
:1017F0001082CE0101960E94102E8EE7FE013196D6
:10180000D20101900D928A95E1F7CE0101960E94D6
:10181000102E8EE7FE013196D60101900D928A9529
:10182000E1F7CE0101960E94102E8EE7FE0131965F
:10183000D70101900D928A95E1F788E5F801808B38
:1018400089E5F60180838AE5F7018083CE01019660
:101850000E94C12080E3FE013196D30101900D92D8
:101860008A95E1F7CE0101960E94C12080E3FE0136
:101870003196D40101900D928A95E1F7CE0101963F
:101880000E94C12080E3FE013196D50101900D92A6
:101890008A95E1F7C801B2DCF1011082C258DF4F2E
:1018A0000FB6F894DEBF0FBECDBFDF91CF911F9171
:1018B0000F91FF90EF90DF90CF90BF90AF909F90EF
:1018C0008F907F906F905F904F903F902F900895F2
:1018D0000F931F93CF93DF938B01EA0188E493E08A
:1018E0000E94223E81EA95E00E94223EF80180811A
:1018F0000E94633ECE010E94643FAFD9DF91CF9139
:101900001F910F91B4C8CF92DF92EF92FF920F9385
:101910001F93CF93DF93CDB7DEB728970FB6F89418
:10192000DEBF0FBECDBF8B016A01865E9D4F7C017D
:1019300064E473E0B5D561EA75E0C701B1D5F8019B
:10194000808189831A8241E050E08E010F5F1F4F32
:10195000B801C70148D54AE0B801C6010E949E4CB3
:10196000F80101900020E9F73197AF01401B510BBE
:10197000B801C70138D571D9BC01C80132D8B80146
:10198000C7019CD589819A810E94D94B28960FB6B0
:10199000F894DEBF0FBECDBFDF91CF911F910F91A5
:1019A000FF90EF90DF90CF900895FC01DB01A959E3
:1019B000BF4F8C91882319F022E030E002C020E074
:1019C00030E0DB01A759BF4F8C91882311F023E051
:1019D00030E0DB01A859BF4F8C91882311F024E03F
:1019E00030E0DB01A659BF4F8C91882311F026E02F
:1019F00030E0DA018D919C918217930721F091E0FC
:101A0000121613060CF090E0DA012D933C93992303
:101A100019F0A901CF0177CF08958F929F92AF92CD
:101A2000BF92CF92DF92EF92FF920F931F93CF93CB
:101A3000DF93EC0180E493E00E94223E87EB95E087
:101A40000E94223E6E0186E7C81A8EEFD80AC601B0
:101A50000E945A200E94F1504B015C01FE01ED559D
:101A6000FD4F60817181828193810E94F1509B01C1
:101A7000AC01C501B4010E94DF5242E00E94953ED4
:101A800087EC95E00E94223E7E01E6E4EE1AEEEF3E
:101A9000FE0AC7010E945A200E94F1504B015C01CE
:101AA000FE01E955FD4F60817181828193810E9421
:101AB000F1509B01AC01C501B4010E94DF5242E02C
:101AC0000E94953E87ED95E00E94223E8E010651D0
:101AD0001E4FC8010E945A200E94F1504B015C0128
:101AE000C555DD4F688179818A819B810E94F150C3
:101AF0009B01AC01C501B4010E94DF5242E00E948B
:101B0000953EABD80E9437058CE393E00E94223EBD
:101B100087EB95E00E94223EF601A68DB78D2089C5
:101B20003189428953890E9443520E946E3E87EC5C
:101B300095E00E94223EF701A68DB78D208931895C
:101B4000428953890E9443520E946E3E87ED95E080
:101B50000E94223EF801A68DB78D208931894289E5
:101B600053890E9443520E946E3E77D8DF91CF91F5
:101B70001F910F91FF90EF90DF90CF90BF90AF90AB
:101B80009F908F900C943705CF93DF938091AA0C90
:101B90009091AB0C892B51F481E193E00E94444B6E
:101BA000EC016DDCD093AB0CC093AA0C8091AA0C15
:101BB0009091AB0CDF91CF9108954F925F926F920D
:101BC0007F928F929F92AF92BF92CF92DF92EF92CD
:101BD000FF920F931F93CF93DF9300D01F92CDB747
:101BE000DEB70E94771F4090DC085090DD086090BF
:101BF000DE087090DF080E94771F8090E0089090C8
:101C0000E108A090E208B090E30827D8C090840BC8
:101C1000D090850BE090860BF090870B1ED8C70103
:101C2000B6010E94F1506B017C01C301B2010E9418
:101C3000F1509B01AC01C701B6010E94DF522B019C
:101C40003C016091880B7091890B80918A0B909177
:101C50008B0B0E94F1506B017C01C501B4010E9405
:101C6000F1509B01AC01C701B6010E94DF52AB01EC
:101C7000BC0149835A836B837C8386DF1F921F924A
:101C80001F921F921F92812C912CA12CB12CC12C40
:101C9000D12C760149815A816B817C818A019B011B
:101CA000B301A2010E9425216FDF1F921F921F9294
:101CB0001F921F9297018601B301A2010E94252164
:101CC00063DF1F921F921F921F921F92970186013E
:101CD000B701A6010E9425210FB6F894DEBF0FBE02
:101CE000CDBF80E090E00F900F900F900F90DF91AC
:101CF000CF911F910F91FF90EF90DF90CF90BF9009
:101D0000AF909F908F907F906F905F904F900895CD
:101D10004F925F926F927F928F929F92AF92BF92FB
:101D2000CF92DF92EF92FF920F931F93CF93DF93A7
:101D300000D01F92CDB7DEB7FB01168907898288D4
:101D40009388A684B784C284D384E484F5844680CF
:101D50005780608471844281538164817581498395
:101D60005A836B837C8310DF1F921F921F920F9305
:101D70001F939301820149815A816B817C810E946A
:101D800025210F900F900F900F900F9080E090E022
:101D90000F900F900F900F90DF91CF911F910F91A7
:101DA000FF90EF90DF90CF90BF90AF909F908F907B
:101DB0007F906F905F904F900895CF93DF93EB01EA
:101DC00020E030E040E85FE36A817B818C819D8187
:101DD0000E94EB50811112C08AEA95E00E94223ED7
:101DE000D3DEFC01E25BFF4F10821182128213826C
:101DF000E45CFE4F108A118A128A138A20E030E0D8
:101E000040E85FE36E817F81888599850E94EB5071
:101E1000811112C08AEB95E00E94223EB5DEFC01E2
:101E2000E453FF4F1082118212821382E251FF4F5E
:101E3000108A118A128A138A20E030E040E85FE3BA
:101E40006A857B858C859D850E94EB50811112C02F
:101E50008AEC95E00E94223E97DEFC01E65BFE4F95
:101E60001082118212821382E056FF4F108A118A6B
:101E7000128A138A0E942D060E94370580E090E0A6
:101E8000DF91CF91089508950895089508950895D4
:101E90000895089508950895CF92DF92EF92FF92EA
:101EA0000F931F93CF93DF936C017A018B01C0E0F6
:101EB000D0E0CE15DF0589F0D8016D918D01D601F6
:101EC000ED91FC910190F081E02DC6011995892BCF
:101ED00011F47E0102C02196ECCFC701DF91CF91B2
:101EE0001F910F91FF90EF90DF90CF90089508958C
:101EF00080E090E00895FC01538D448D252F30E063
:101F0000842F90E0821B930B541710F0CF96089506
:101F100001970895FC01918D828D981761F0828D53
:101F2000DF01A80FB11D5D968C91928D9F5F9F730D
:101F3000928F90E008958FEF9FEF0895FC01918DAF
:101F4000828D981731F0828DE80FF11D858D90E01C
:101F500008958FEF9FEF0895FC01918D228D892FB9
:101F600090E0805C9F4F821B91098F7399270895A1
:101F700082EC9CE0F1DF21E0892B09F420E0822F44
:101F80000895FC01848DDF01A80FB11DA35ABF4F36
:101F90002C91848D90E001968F739927848FA68968
:101FA000B7892C93A089B1898C9180648C93938D8F
:101FB000848D981306C00288F389E02D80818F7D7F
:101FC00080830895EF92FF920F931F93CF93DF9337
:101FD000EC0181E0888F9B8D8C8D981305C0E8897A
:101FE000F989808185FD23C0F62E0B8D10E00F5FEF
:101FF0001F4F0F731127E02E8C8DE8120BC00FB608
:1020000007FCFACFE889F989808185FFF5CFCE01F9
:10201000B8DFF2CF8B8DFE01E80FF11DE35AFF4FC1
:10202000F0820B8FEA89FB898081806207C0EE898C
:10203000FF896083E889F98980818064808381E0F9
:1020400090E0DF91CF911F910F91FF90EF90089555
:10205000CF93DF93EC01888D8823C1F0EA89FB8957
:10206000808185FD05C0A889B9898C9186FD0EC047
:102070000FB607FCF5CF808185FFF2CFA889B9891B
:102080008C9185FFEDCFCE017CDFE8CFDF91CF9142
:10209000089580E090E0892B19F06ADF811125C056
:1020A00080E090E0892B41F080E090E0892B21F0E6
:1020B0000E94000081111CC080E090E0892B41F05B
:1020C00080E090E0892B21F00E940000811113C074
:1020D00080E090E0892BA1F080E090E0892B81F0F6
:1020E0000E94000081110AC008950E940000D8CF0C
:1020F0000E940000E1CF0E940000EACF0C94000093
:10210000089590E0FC013197E231F10508F04EC0EE
:102110008827EE58FF4F8F4F0C948C53809180008E
:102120008F7703C0809180008F7D80938000089519
:1021300080918000877FF9CF84B58F7702C084B506
:102140008F7D84BD08958091B0008F7703C080910A
:10215000B0008F7D8093B0000895809190008F77BC
:1021600007C0809190008F7D03C080919000877F91
:102170008093900008958091A0008F7707C0809190
:10218000A0008F7D03C08091A000877F8093A00076
:102190000895809120018F7707C0809120018F7D65
:1021A00003C080912001877F8093200108953FB76D
:1021B000F8948091BA0C9091BB0CA091BC0CB0919A
:1021C000BD0C26B5A89B05C02F3F19F00196A11D97
:1021D000B11D3FBFBA2FA92F982F8827820F911DBD
:1021E000A11DB11DBC01CD0142E0660F771F881F04
:1021F000991F4A95D1F708950E947C540F931F931D
:10220000CF93DF93EC0188819981009729F02A818F
:102210003B812617370788F48B016F5F7F4F0E9441
:102220009453009761F0998388831B830A832C81E0
:102230003D81232B11F4FC01108281E001C080E07C
:10224000DF91CF911F910F9108950F93CF93DF935B
:102250008091B00C811175C081E08093B00C94DC4A
:10226000EC0106B126B14091000160910001029598
:10227000017026FB222720F9417066956170865710
:102280009E4F0E942B2006B126B140B160B1017073
:1022900022FB222720F943FB442740F96695617011
:1022A000CE0186549E4F0E942B2002B322B340B130
:1022B00060B1017022FB222720F9441F4427441FEC
:1022C00065FB662760F9CE0186519E4F0E942B2048
:1022D000FE01ED58FF4F8081882361F07097808167
:1022E0009181A281B3810196A11DB11D808391834B
:1022F000A283B383FE01EF50FF4F8081882361F0FA
:10230000709780819181A281B3810196A11DB11D39
:1023100080839183A283B383FE01E159FE4F8081C4
:10232000882369F0C15ADE4F88819981AA81BB81D7
:102330000196A11DB11D88839983AA83BB83109246
:10234000B00CDF91CF910F910895CF92DF92EF9271
:10235000FF920F931F93CF93DF937C016B018A0150
:10236000E9010E94771FF601EE0FFF1FEE0FFF1F1E
:10237000E050F84F80819181F701918380830E9422
:10238000771F000F111F000F111FF801E050F84FC9
:1023900081E0408151816281738141305105610545
:1023A000710509F080E0F70182870E94771FCC0F4A
:1023B000DD1FCC0FDD1FC050D84F88819981AA81C5
:1023C000BB81F70182839383A483B583168217822E
:1023D00010861186DF91CF911F910F91FF90EF90A2
:1023E000DF90CF900895EF92FF920F931F93CF93BA
:1023F000DF93FC01248135816115710511F480E0C2
:1024000018C041155105A1F07B01EC018A01020FB2
:10241000131FB801F3DE882391F3288139818C8161
:102420009D81B701820F931F0E9492541D830C83DC
:1024300081E0DF91CF911F910F91FF90EF90089570
:10244000EF92FF920F931F93CF93DF93CDB7DEB739
:1024500064970FB6F894DEBF0FBECDBF7C01CB01F1
:10246000BA018E010F5F1F4F22E044E00E94254B0E
:10247000BC01FC0101900020E9F73197AF01481B36
:10248000590BC701B0DF64960FB6F894DEBF0FBEDC
:10249000CDBFDF91CF911F910F91FF90EF900895E5
:1024A0006115710549F0FB0101900020E9F73197B2
:1024B000AF01461B570B97CF80E00895FB01448185
:1024C0005581608171818FCFEF92FF920F931F939F
:1024D000CF93DF93EC017B018A01BA018FDE288163
:1024E000398181110DC02115310519F0C9010E94F2
:1024F000D94B198218821D821C821B821A8206C047
:102500001D830C83B701C9010E949254CE01DF9153
:10251000CF911F910F91FF90EF900895FC011182D0
:10252000108213821282158214826115710549F09E
:10253000FB0101900020E9F73197AF01461B570BD3
:10254000C3CF08951F920F920FB60F9211240BB6AE
:102550000F922F933F934F935F936F937F938F933C
:102560009F93AF93BF93EF93FF9382EC9CE009DDC1
:10257000FF91EF91BF91AF919F918F917F916F915B
:102580005F914F913F912F910F900BBE0F900FBE17
:102590000F901F9018951F920F920FB60F92112453
:1025A0000BB60F922F938F939F93EF93FF93E0912E
:1025B000D20CF091D30C8081E091D80CF091D90C21
:1025C00082FD12C090818091DB0C8F5F8F73209110
:1025D000DC0C821751F0E091DB0CF0E0EE53F34F8E
:1025E000958F8093DB0C01C08081FF91EF919F91CB
:1025F0008F912F910F900BBE0F900FBE0F901F90D9
:102600001895CF93DF93282F30E0F901EF5DFB4F52
:102610008491F901E550FB4FD491F901EB54FB4F44
:10262000C491CC2389F081116CDDEC2FF0E0EE0F2A
:10263000FF1FE556FB4FA591B491EC91ED2381E08E
:1026400090E021F480E002C080E090E0DF91CF9143
:1026500008951F93CF93DF93282F30E0F901EF5DAA
:10266000FB4F8491F901E550FB4FD491F901EB54F4
:10267000FB4FC491CC23C1F0162F811142DDEC2F0A
:10268000F0E0EE0FFF1FEF57FB4FA591B4918FB70E
:10269000F894111105C09C91ED2FE095E92302C03B
:1026A000EC91ED2BEC938FBFDF91CF911F910895AB
:1026B000CF92DF92EF92FF920F931F93CF93DF930E
:1026C0006C018B017A01EC01CF54D34F888187FFD5
:1026D00004C0FB011182108224C08CE08C9D90010B
:1026E0008D9D300D11248881A901480F511D87FD52
:1026F0005A958091F10D90E04817590794F488811C
:10270000A901480F511D87FD5A95CA01FA01EE0F24
:10271000FF1F8E0F9F1FFC01EF59F24F808186FD36
:1027200019C088818F5F88838CE08C9D90018D9D7E
:10273000300D11248881A901480F511D87FD5A953C
:102740008091F10D90E048175907B4F488818C30DE
:102750003CF112C08881280F311D87FD3A95F9019F
:10276000EE0FFF1F2E0F3F1FF901EF59F24F80812F
:1027700060E08F736EDFD5CFF80180819181049680
:1027800080349C4918F480E49CE904C0F8018081FD
:1027900091810496F701918380838FEF888344C0F1
:1027A000F801408151818881B901680F711D87FD51
:1027B0007A95CB01FB01EE0FFF1F8E0F9F1FFC01CF
:1027C000EF59F24F81819281840F951FF701918318
:1027D00080838881A901480F511D87FD5A95CA0140
:1027E000FA01EE0FFF1F8E0F9F1FFC01EF59F24FF2
:1027F000808186FF19C08881280F311D87FD3A9599
:10280000F901EE0FFF1F2E0F3F1FF901EF59F24F95
:10281000808161E08F73DF91CF911F910F91FF90C5
:10282000EF90DF90CF9015CFDF91CF911F910F9157
:10283000FF90EF90DF90CF900895CF93DF9390E0DB
:10284000FC01E550FB4F2491FC01EB54FB4F8491BC
:10285000882361F190E0880F991FFC01E959FB4F33
:10286000C591D491FC01EF57FB4FA591B491611133
:1028700009C09FB7F8948881209582238883EC91C2
:102880002E230BC0623061F49FB7F8943881822FF9
:10289000809583238883EC912E2B2C939FBF06C0B9
:1028A0008FB7F894E8812E2B28838FBFDF91CF91CB
:1028B00008958230910538F0880F991F880F991F6D
:1028C00005970197F1F708958F929F92AF92BF926B
:1028D000CF92DF92EF92FF926B017C0168DC4B019B
:1028E0005C01C114D104E104F104E9F060DCDC0115
:1028F000CB0188199909AA09BB09883E9340A10513
:10290000B10578F321E0C21AD108E108F10888EE98
:10291000880E83E0981EA11CB11CC114D104E104EF
:10292000F10421F7DECFFF90EF90DF90CF90BF90C2
:10293000AF909F908F9008952FB7F8946091B60C48
:102940007091B70C8091B80C9091B90C2FBF08957D
:102950001F920F920FB60F9211242F933F938F93D4
:102960009F93AF93BF938091B60C9091B70CA091B9
:10297000B80CB091B90C3091B50C23E0230F2D3772
:1029800020F40196A11DB11D05C026E8230F029673
:10299000A11DB11D2093B50C8093B60C9093B70C7C
:1029A000A093B80CB093B90C8091BA0C9091BB0C69
:1029B000A091BC0CB091BD0C0196A11DB11D8093DE
:1029C000BA0C9093BB0CA093BC0CB093BD0CBF9100
:1029D000AF919F918F913F912F910F900FBE0F90CC
:1029E0001F901895CF92DF92EF92FF92CF93DF93D3
:1029F000EC01603282E078070CF03DC077FD06C044
:102A0000653B71052CF064EB70E002C060E070E0A3
:102A1000898128E830E06901C81AD10887FDD3947C
:102A2000CC0CDD1CCC0CDD1C0D2C000CEE08FF08C2
:102A30008A8128E532E0281B310987FD3395220F72
:102A4000331F220F331FC901330FAA0BBB0B9C018D
:102A5000AD012C193D094E095F09DB010E9443526B
:102A600024EB30E040E050E00E941D52C20ED31E25
:102A7000E41EF51EB6018881803380F5998148E80F
:102A800050E0491B510997FD5395440F551F440FC2
:102A9000551F6417750784F09A8128E532E0291BD9
:102AA000310997FD3395220F331F220F331FAB01DE
:102AB000261737070CF4A90142505109440F551F3E
:102AC0002FB7F89490E0FC01EE0FFF1F8E0F9F1FB1
:102AD000FC01EF59F24F528341832FBFDF91CF9119
:102AE000FF90EF90DF90CF9008951F93CF93DF93E7
:102AF000EC01162F8881803308F04DC061E0812FF2
:102B00009CDE8881E82FF0E09F01220F331FE20F47
:102B1000F31FEF59F24F1F739081907C192B108394
:102B200019821A826CE00E9480539CE0899FB00158
:102B3000112440E050E09A01260F371FF901EE0FF3
:102B4000FF1F2E0F3F1FF901EF59F24F908196FDA5
:102B500016C04F5F5F4F4C30510569F7813001F56A
:102B60001092800082E08093810010928500109284
:102B70008400B19A80916F00826080936F00E88139
:102B8000F0E0CF01880F991FE80FF91FEF59F24FBE
:102B90008081806480838881DF91CF911F91089527
:102BA000823061F410929000809391001092950011
:102BB0001092940088BB80937100E1CF833069F458
:102BC0001092A00082E08093A1001092A5001092C4
:102BD000A40089BB80937200D2CF8111D0CF109214
:102BE000200182E08093210110922501109224019E
:102BF0008ABB80937300C3CF1F920F920FB60F92C0
:102C000011240BB60F922F933F934F935F936F93C3
:102C10007F938F939F93AF93BF93EF93FF9348E27C
:102C200051E064E271E080E090E042DDFF91EF91DD
:102C3000BF91AF919F918F917F916F915F914F91D4
:102C40003F912F910F900BBE0F900FBE0F901F90D2
:102C500018951F920F920FB60F9211240BB60F9278
:102C60002F933F934F935F936F937F938F939F9394
:102C7000AF93BF93EF93FF9348EA50E064EA70E0AC
:102C800083E090E015DDFF91EF91BF91AF919F91AF
:102C90008F917F916F915F914F913F912F910F9005
:102CA0000BBE0F900FBE0F901F9018951F920F92A2
:102CB0000FB60F9211240BB60F922F933F934F93A1
:102CC0005F936F937F938F939F93AF93BF93EF9394
:102CD000FF9348E950E064E970E082E090E0E8DCCE
:102CE000FF91EF91BF91AF919F918F917F916F91E4
:102CF0005F914F913F912F910F900BBE0F900FBEA0
:102D00000F901F9018951F920F920FB60F921124DB
:102D10000BB60F922F933F934F935F936F937F93D5
:102D20008F939F93AF93BF93EF93FF9348E850E047
:102D300064E870E081E090E0BBDCFF91EF91BF912F
:102D4000AF919F918F917F916F915F914F913F9143
:102D50002F910F900BBE0F900FBE0F901F901895E4
:102D60001F920F920FB60F9211240BB60F922F9352
:102D70003F934F935F936F937F938F939F93AF9303
:102D8000BF93EF93FF93E091F807F091F90719953E
:102D9000FF91EF91BF91AF919F918F917F916F9133
:102DA0005F914F913F912F910F900BBE0F900FBEEF
:102DB0000F901F9018958091AE0C9091AF0C892BBD
:102DC00041F481E090E00E94444B9093AF0C8093DB
:102DD000AE0C8091AE0C9091AF0C08950F931F93A1
:102DE000CF93DF93FC012081318121153105C1F1A1
:102DF000EC01822F06DC21E0892B09F420E02B87EF
:102E00006A85261729F01E821F82188619860BC034
:102E10008E819F81A885B9850196A11DB11D8E83E4
:102E20009F83A887B9870E811F81288539858A816C
:102E30009B81AC81BD81081719072A073B0784F0E5
:102E400081E06827888105DC0990D881C02DC7D62C
:102E500040E050E0BE01DF91CF911F910F916BC513
:102E6000DF91CF911F910F910895CF93DF93EC01E4
:102E70002AEC30E04BEC50E069EC70E066DA2EECC6
:102E800030E04FEC50E06DEC70E0CE010C965DDA76
:102E900024ED30E045ED50E063ED70E0CE01489662
:102EA00054DA28ED30E049ED50E067ED70E0CE01F6
:102EB00084964BDA2EED30E04FED50E06DED70E092
:102EC000CE01C096DF91CF9140CACF93DF9380911E
:102ED000AC0C9091AD0C892BE9F48CE390E00E944E
:102EE000444BEC01FC01CC96118210823C96E81711
:102EF000F907D1F7198218821D861C86198E188E43
:102F00001DA21CA219AA18AACE01AFDFD093AD0C46
:102F1000C093AC0C8091AC0C9091AD0CDF91CF9133
:102F20000895603E710508F041C4FB018827EC5705
:102F3000FF4F8F4F0C948C5381E090E0A0E0B0E005
:102F40008093000890930108A0930208B0930308AF
:102F50000895109204081092050810920608109225
:102F600007080895109208081092090810920A089C
:102F700010920B08089581E090E0A0E0B0E080930B
:102F80000C0890930D08A0930E08B0930F080895B5
:102F90001092100810921108109212081092130843
:102FA000089583E090E0A0E0B0E08093140890934F
:102FB0001508A0931608B0931708089588E790E0C5
:102FC000A0E0B0E080932C0890932D08A0932E08E9
:102FD000B0932F08089588E790E0A0E0B0E08093D8
:102FE000300890933108A0933208B09333080895C5
:102FF00088E790E0A0E0B0E0809334089093350833
:10300000A0933608B0933708089510923C081092A8
:103010003D0810923E0810923F0808951092400813
:10302000109241081092420810924308089581E0DE
:1030300090E0A0E0B0E08093440890934508A0930E
:103040004608B0934708089510924808109249081E
:1030500010924A0810924B08089510924C08109252
:103060004D0810924E0810924F0808951092500883
:10307000109251081092520810925308089510921D
:103080005408109255081092560810925708089547
:10309000109258081092590810925A0810925B0822
:1030A000089510925C0810925D0810925E081092CC
:1030B0005F080895109264081092650810926608DF
:1030C000109267080895109268081092690810928B
:1030D0006A0810926B08089510926C0810926D089F
:1030E00010926E0810926F08089510927C0810924A
:1030F0007D0810927E0810927F0808951092800833
:1031000010928108109282081092830808951092FC
:1031100084081092850810928608109287080895F6
:1031200081E090E0A0E0B0E0809390089093910857
:10313000A0939208B0939308089581E090E0A0E0F6
:10314000B0E08093940890939508A0939608B0936C
:10315000970808958CE291E0A0E0B0E08093A40885
:103160009093A508A093A608B093A70808958CE2B1
:1031700091E0A0E0B0E08093A8089093A908A09304
:10318000AA08B093AB0808958CE291E0A0E0B0E00B
:103190008093AC089093AD08A093AE08B093AF08AD
:1031A00008951092B4081092B5081092B6081092C3
:1031B000B70808951092B8081092B9081092BA088A
:1031C0001092BB0808951092BC081092BD0810928E
:1031D000BE081092BF0808951092CC081092CD0836
:1031E0001092CE081092CF0808951092D008109235
:1031F000D1081092D2081092D308089581E090E08F
:10320000A0E0B0E08093D4089093D508A093D608AE
:10321000B093D708089585E090E0A0E0B0E08093F7
:10322000DC089093DD08A093DE08B093DF080895D2
:1032300085E090E0A0E0B0E08093E0089093E108A2
:10324000A093E208B093E308089589E190E0A0E03C
:10325000B0E08093E4089093E508A093E608B0936B
:10326000E708089582E390E0A0E0B0E08093F408DE
:103270009093F508A093F608B093F708089582E3B9
:1032800090E0A0E0B0E08093F8089093F908A09354
:10329000FA08B093FB08089582E390E0A0E0B0E064
:1032A0008093FC089093FD08A093FE08B093FF085C
:1032B000089582E390E0A0E0B0E080930409909349
:1032C0000509A0930609B0930709089582E390E0E9
:1032D000A0E0B0E08093080990930909A0930A093F
:1032E000B0930B09089582E390E0A0E0B0E08093F2
:1032F0000C0990930D09A0930E09B0930F0908953E
:1033000080E991E0A0E0B0E080931C0990931D0952
:10331000A0931E09B0931F09089580E991E0A0E0F1
:10332000B0E08093200990932109A0932209B093E3
:103330002309089580E991E0A0E0B0E0809324099A
:1033400090932509A0932609B09327090895109218
:103350002C0910922D0910922E0910922F09089510
:1033600010923009109231091092320910923309EB
:10337000089510923409109235091092360910926E
:10338000370908951092440A1092450A1092460A8D
:103390001092470A08951092480A1092490A109212
:1033A0004A0A10924B0A089510924C0A10924D0A44
:1033B00010924E0A10924F0A089588E592E0A0E01C
:1033C000B0E08093440990934509A0934609B093D7
:1033D0004709089588E592E0A0E0B0E080934809AD
:1033E00090934909A0934A09B0934B09089588E541
:1033F00092E0A0E0B0E080934C0990934D09A09337
:103400004E09B0934F0908958EE190E0A0E0B0E03E
:103410008093540990935509A0935609B093570986
:1034200008958EE190E0A0E0B0E080935809909379
:103430005909A0935A09B0935B0908958EE190E071
:10344000A0E0B0E080935C0990935D09A0935E09D1
:10345000B0935F09089510926C0910926D09109253
:103460006E0910926F0908951092700910927109F7
:1034700010927209109273090895109274091092B3
:10348000750910927609109277090895109294099F
:10349000109295091092960910929709089510922A
:1034A00098091092990910929A0910929B0908950F
:1034B00010929C0910929D0910929E0910929F09EA
:1034C00008951092A4091092A5091092A6091092CD
:1034D000A70908951092A8091092A9091092AA09A3
:1034E0001092AB0908951092AC091092AD09109298
:1034F000AE091092AF09089585E090E0A0E0B0E039
:103500008093BC099093BD09A093BE09B093BF09F5
:10351000089585E090E0A0E0B0E08093C00990932A
:10352000C109A093C209B093C309089585E090E052
:10353000A0E0B0E08093C4099093C509A093C609A8
:10354000B093C709089584EB95E1A0E0B0E08093C3
:10355000CC099093CD09A093CE09B093CF090895DB
:1035600084EB95E1A0E0B0E08093D0099093D1097D
:10357000A093D209B093D309089584EB95E1A0E01C
:10358000B0E08093D4099093D509A093D609B09365
:10359000D709089585E090E0A0E0B0E08093E409C9
:1035A0009093E509A093E609B093E709089585E0B3
:1035B00090E0A0E0B0E08093E8099093E909A0933F
:1035C000EA09B093EB09089585E090E0A0E0B0E04F
:1035D0008093EC099093ED09A093EE09B093EF0965
:1035E00008951092F4091092F5091092F6091092BC
:1035F000F70908951092F8091092F9091092FA0942
:103600001092FB0908951092FC091092FD09109286
:10361000FE091092FF09089510920C0A10920D0AEB
:1036200010920E0A10920F0A08951092100A10922A
:10363000110A1092120A1092130A08951092140A95
:103640001092150A1092160A1092170A08951092F5
:10365000240B1092250B1092260B1092270B089525
:103660008CE390E0A0E0B0E08093280B9093290BCE
:10367000A0932A0BB0932B0B089581E090E0A0E07B
:10368000B0E080932C0B90932D0BA0932E0BB09356
:103690002F0B08951092340B1092350B1092360BAD
:1036A0001092370B08958CE390E0A0E0B0E0809397
:1036B000380B9093390BA0933A0BB0933B0B0895C2
:1036C00081E090E0A0E0B0E080933C0B90933D0B54
:1036D000A0933E0BB0933F0B089510924C0B1092A9
:1036E0004D0B10924E0B10924F0B08958CE390E00F
:1036F000A0E0B0E08093500B9093510BA093520B3D
:10370000B093530B089581E090E0A0E0B0E0809387
:10371000540B9093550BA093560BB093570B0895F1
:1037200010925C0B10925D0B10925E0B10925F0B6F
:1037300008958CE390E0A0E0B0E08093600B90935C
:10374000610BA093620BB093630B089581E090E04E
:10375000A0E0B0E08093640B9093650BA093660BA0
:10376000B093670B08951092740B1092750B109222
:10377000760B1092770B08958CE390E0A0E0B0E018
:103780008093780B9093790BA0937A0BB0937B0B7B
:10379000089581E090E0A0E0B0E080937C0B9093EE
:1037A0007D0BA0937E0BB0937F0B0895660F771F60
:1037B000660F771FFB01E050F84F108211821282D2
:1037C00013820895EBE0F1E08081877F8083089584
:1037D000EBE0F1E080818860808308958E98089501
:1037E0008E9A089514980895149A089588980895C3
:1037F000889A089560E0FC0183850C94291360E0A9
:10380000FC0185810C94291361E0FC0183850C94F3
:10381000291361E0FC0185810C9429134F925F927A
:103820006F927F928F929F92AF92BF92CF92DF92D0
:10383000EF92FF92CF93DF935B01EB01CC0FDD1F83
:10384000CE010E940752482E512C612C712CCE01C2
:1038500001960E940752C82ED12CE12CF12C8DE844
:10386000A81AB10883E0A816B10488F5CE014496E1
:103870000E940752882E912CA12CB12CCE01459686
:103880000E940752482F50E060E070E08FEF8816EA
:103890009104A104B104A9F44F3F510561057105DC
:1038A00081F48FEF481651046104710481F48FEFA5
:1038B000C816D104E104F10451F46FEF7FEFCB019E
:1038C0002BC040385105610571056CF0F6CF80E8DA
:1038D000C816D104E104F10484F740E050E0BA01D5
:1038E000812C912C5401FE2CED2CDC2CCC24C40C0E
:1038F000D51CE61CF71C540199248824C80CD91C3B
:10390000EA1CFB1C742F662755274427CB01BA01FC
:103910006C0D7D1D8E1D9F1DDF91CF91FF90EF904F
:10392000DF90CF90BF90AF909F908F907F906F90DF
:103930005F904F900895EF92FF920F931F93CF9354
:10394000DF93162F072F7A014115510559F4862F61
:103950000E94011331E020E0019709F030E0C32F0D
:10396000D22F26C04130510509F5262F663310F0BD
:103970002AEC260F80917B00922F9870877F892BED
:1039800080937B002770206420937C0080917A00D4
:10399000806480937A0080917A0086FDFCCFC0918C
:1039A000780080917900D0E0D82B02C0C0E0D0E050
:1039B00082E0E816F10410F58AED95E00E94223EBF
:1039C00081EA95E00E94223E8EED95E00E94223E23
:1039D000812F902F0E94643F81EA95E00E94223E51
:1039E00083E595E00E94223ECE010E94643F0E9442
:1039F0002D060E94370580E090E002C081E090E053
:103A0000DF91CF911F910F91FF90EF9008950F9349
:103A10001F93CF93DF938B01EA01AB014150510912
:103A20004433510508F0D4C02230310508F0D0C02D
:103A300048E3429FF001439FF00D1124E60FF71F6A
:103A4000E80FF91F81E08083232B11F46C2F07C04E
:103A500061E0802F0E941D14209739F460E0802FD0
:103A60000E94291380E090E0B5C0CF3FD10509F452
:103A7000ADC0F801EF5DFB4FE4918E2F90E0FC01AB
:103A80003197E231F10508F09DC08827EC59FE4FCF
:103A90008F4F0C948C5384B5806884BDC7BDE2CF32
:103AA00084B5806284BDC8BDDDCF80918000806810
:103AB00080938000D0938900C0938800D3CF8091F9
:103AC0008000806280938000D0938B00C0938A0036
:103AD000C9CF80918000886080938000D0938D0052
:103AE000C0938C00BFCF8091B00080688093B000FD
:103AF000C093B300B7CF8091B00080628093B000D4
:103B0000C093B400AFCF8091900080688093900004
:103B1000D0939900C0939800A5CF809190008062C7
:103B200080939000D0939B00C0939A009BCF80918C
:103B30009000886080939000D0939D00C0939C007B
:103B400091CF8091A00080688093A0008091A00018
:103B50008F7B8093A000D093A900C093A80082CF50
:103B60008091A00080628093A000D093AB00C093AE
:103B7000AA0078CF8091A00088608093A000D093A5
:103B8000AD00C093AC006ECF80912001806880931F
:103B90002001D0932901C093280164CF8091200196
:103BA000806280932001D0932B01C0932A015ACFC9
:103BB00080912001886080932001D0932D01C093D3
:103BC0002C0150CFC038D1050CF448CF61E047CF6D
:103BD00081E090E0DF91CF911F910F910895809146
:103BE000C00C9091C10C892BA1F480E790E00E9459
:103BF000444BFC01F9969C0123593F4FDF01D897B4
:103C00001C921192E217F307C9F79093C10C8093AD
:103C1000C00C8091C00C9091C10C0895683571055D
:103C20000CF05BC0653571050CF09EC0603371050A
:103C30009CF56D3271050CF097C06C317105FCF488
:103C4000693171050CF090C06E3071058CF46B30E9
:103C500071050CF089C06115710509F485C077FD07
:103C600081C0625071096430710508F07BC07CC06E
:103C70006F5071096930710508F074C075C0663203
:103C800071053CF4643271050CF06EC06F5171091E
:103C900066C06952710963C0643471058CF4613483
:103CA00071050CF061C06A3371053CF4673371052E
:103CB0000CF05AC06353710952C06D5371094FC063
:103CC0006E3471053CF46B3471050CF04DC06754D3
:103CD000710945C06155710942C06638710514F516
:103CE000633871050CF040C0623771057CF46F36A3
:103CF0007105D4F56836710534F465367105A4F59F
:103D00006B5571092CC06956710929C06C37710552
:103D100034F46937710544F56357710920C06D5754
:103D200071091DC0603D71057CF46D3C7105E4F4C2
:103D30006439710534F461397105B4F46D58710951
:103D40000EC0695C71090BC06A3D710534F4673DB2
:103D5000710554F4635D710902C06D5D71096330D2
:103D6000710510F080E0089581E008950F931F938E
:103D7000CF93DF938C01C0E0D0E0BE01C8014EDFDD
:103D8000882319F0BE01C801CCD82196C13ED105C7
:103D9000A1F7DF91CF911F910F910895EF92FF92BC
:103DA0000F931F93CF93DF9300D01F92CDB7DEB751
:103DB0008B017B01EE0CFF1C622FC70129833A8324
:103DC0004B835C830E940F5229813A814B815C8135
:103DD000992757FD9A95852F742F632FC701019658
:103DE0000E940F520D58110929813A814B815C8143
:103DF00003301105A8F4BA01992777FD9095892F12
:103E0000C70144960E940F5229813A814B815C81FF
:103E1000652F772788279927C70145960E940F525B
:103E200080E090E00F900F900F900F90DF91CF9176
:103E30001F910F91FF90EF900895CF92DF92EF9234
:103E4000FF92CF93DF93EB01E9DE882359F1FE0166
:103E5000EE0FFF1FEE0FFF1FE050F84FC080D18024
:103E6000E280F38080EE95E00E94223E81EA95E0B8
:103E70000E94223E8EED95E00E94223ECE010E94DD
:103E8000643F81EA95E00E94223E83E595E00E942E
:103E9000223EC701B6010E946E3E0E942D060E947E
:103EA000370504C085E595E00E94223E80E090E061
:103EB000DF91CF91FF90EF90DF90CF9008950F9317
:103EC0001F93CF93DF938C01C0E0D0E0BE01C80107
:103ED000A5DE882319F0BE01C801AFDF2196C13EDF
:103EE000D105A1F7DF91CF911F910F910895EF9226
:103EF000FF920F931F93CF93DF938091BE0C90910D
:103F0000BF0C892B09F065C084E090E00E94444B0F
:103F1000EC0160E070E082DC16161706F4F0CE01CA
:103F200025DF90E0E92E98E0F92E00E010E0B801DE
:103F3000CE0174DE882341F0F70120813181428176
:103F40005381B801CE012ADF0F5F1F4FF4E0EF0E5F
:103F5000F11C0639110559F738C063E070E0CE0155
:103F60005DDC613071058105910569F580E0E82E21
:103F700088E0F82E00E010E0B801CE014FDE882383
:103F8000C9F0B801CE014ADCF701608371838283F6
:103F900093836F3F7F4F8F4F9F4F61F4B801CE01E6
:103FA0000E949117F7012081318142815381B8012C
:103FB000CE01F4DE0F5F1F4FF4E0EF0EF11C013E67
:103FC0001105D1F602C0CE01D1DED093BF0CC09353
:103FD000BE0C8091BE0C9091BF0CDF91CF911F91D0
:103FE0000F91FF90EF900895CF93DF93EC018881BC
:103FF0000E94011321E0892B09F420E02C878C8199
:104000000E94011321E0892B09F420E02E878C8D7A
:104010009D8D0197D1F48A810E94011321E0892BA3
:1040200009F420E02D878E810E94011321E0892B65
:1040300009F420E02F879C858D85981749F08E859F
:10404000821731F09A878B8703C08C858A872B87EC
:10405000DF91CF9108950F93FC019285908783851E
:104060008187A48DB58D119721F4621721F0401737
:1040700011F06287438783858823D1F0828591116F
:104080000AC08823A9F080899189A289B389019700
:10409000A109B10909C081110BC080899189A28948
:1040A000B3890196A11DB11D808B918BA28BB38B1F
:1040B0000F910895AF92BF92CF92DF92EF92FF924D
:1040C0000F931F93CF93DF9300D01F92CDB7DEB72E
:1040D000FC016489758986899789A68CB78C6031C3
:1040E00027E272078105910529F0161617061806B2
:1040F000190644F02089318942895389D5010E94EB
:10410000435230C08F010E94F15020E030E44CE176
:1041100056E40E94DF529B01AC01F801608F718F61
:10412000828F938F608971898289938929833A83E9
:104130004B835C830E94F15029813A814B815C81E1
:104140000E9450516B017C01B501BB0C880B990B8F
:104150000E94F1509B01AC01C701B6010E94505171
:104160000E9447530F900F900F900F90DF91CF91C7
:104170001F910F91FF90EF90DF90CF90BF90AF9085
:104180000895FC011182108213821282158214821A
:10419000178216821086118612861386148615865B
:1041A00016861786108A118A128A138A108E118E2B
:1041B000128E138E158E148E178E168E10A211A2CB
:1041C00012A213A214A215A216A217A210A611A63B
:1041D00012A613A614A615A681E090E097A786A7BD
:1041E00080E197E2A0E0B0E0848B958BA68BB78B43
:1041F0000895CF93DF93EC01FC01E359FF4F108248
:10420000379781E0808360E08D810E9429138F853C
:104210009889892B31F060E08B85DF91CF910C94E8
:104220002913DF91CF910895CF93DF93EC018B8910
:104230000E9401132E8930E08217930711F48F89B1
:1042400001C080E0DF91CF9108952F923F924F926D
:104250005F926F927F928F929F92AF92BF92CF9216
:10426000DF92EF92FF920F931F93CF93DF93CDB71F
:10427000DEB7E6970FB6F894DEBF0FBECDBF1C01C8
:104280002A013B010B871C872D873E872E960EAD9A
:104290001FAD2E97FC01ED55FD4F6081718182812C
:1042A00093810E94F1509B01AC01C301B2010E94B5
:1042B00050510E9447536B8B7C8B8D8B9E8BF101F1
:1042C000E955FD4F60817181828193810E94F15097
:1042D0009B01AC016B857C858D859E850E9450512C
:1042E0000E9447536B8F7C8F8D8F9E8FF101E55518
:1042F000FD4F60817181828193810E94F1509B0109
:10430000AC01C701B6010E9450510E9447536F8F04
:1043100078A389A39AA30E949C146B877C878D87BE
:104320009E87F101EC5DFD4F118210823296118261
:1043300010823E96A114B10461F0C501A0E0B0E086
:10434000408151816281738184179507A607B70761
:1043500014F0A080B180F101E85CFD4F811491045C
:1043600061F0C401A0E0B0E04081518162817381BD
:1043700084179507A607B70714F080809180F10194
:10438000E45CFD4F0115110561F0C801A0E0B0E04B
:10439000408151816281738184179507A607B70711
:1043A00014F000811181310120E1620E711CC50100
:1043B000A0E0B0E0F10180A791A7A2A7B3A72101D7
:1043C000FEE84F0E511CA12CB12CD20158968D92B3
:1043D0009D92AD92BC925B974101B4EF8B1ABEEFF8
:1043E0009B0A20E030E0F401008F118F228F338F81
:1043F0000E942D060E942D060E942D060E942D0669
:104400004091840B5091850B6091860B7091870BC6
:104410004BAB5CAB6DAB7EAB0E942D068091880BE5
:104420009091890BA0918A0BB0918B0B8F87988B01
:10443000A98BBA8B0E942D06A0908C0BB0908D0B8F
:10444000C0908E0BD0908F0BF101E155FD4F108283
:104450001182128213823496108211821282138288
:104460003496108211821282138234961182108245
:1044700032961182108232961182108232964BA9A6
:104480005CA96DA97EA940835183628373833496AE
:104490008F859889A989BA8980839183A283B38300
:1044A0003496A082B182C282D3822F96EFAC2F972E
:1044B0000B891C892D893E89C3013FD78823F9F0D8
:1044C0008CE693E00E94223E87EB95E00E94223E1C
:1044D000F101EE5AFF4F6081718182819381EF5A21
:1044E000FD4F20813181428153810E941D52CA01BA
:1044F000B9010E946E3E0E942D060E94370560960B
:10450000EFAC60970B8D1C8D2D8D3E8D4F8558899E
:1045100069897A89C20111D78823F9F088E693E086
:104520000E94223E87EC95E00E94223EF101E0537A
:10453000FF4F6081718182819381E952FE4F20811A
:104540003181428153810E941D52CA01B9010E94EA
:104550006E3E0E942D060E9437056196EFAC619772
:104560000F8D18A129A13AA1B601A501C401E5D674
:104570008823F9F084E693E00E94223E87ED95E0DF
:104580000E94223EF101E25BFE4F608171818281D7
:104590009381E35AFE4F20813181428153810E94F1
:1045A0001D52CA01B9010E946E3E0E942D060E9452
:1045B0003705D10151961C92F101E157FF4F10824E
:1045C000E258FF4F1082C1010E948D2FC1010E944D
:1045D000912FC3010E94EE2DC2010E94EE2DC40155
:1045E0000E94EE2DF101E55DFD4FFCA3EBA381E000
:1045F00090E0918380837101F3EDEF1AFDEFFF0AE4
:10460000D7018D939C938101015D1D4FF80191832A
:10461000808341E050E0B301C1010E94830CD701C7
:104620004D915C91B201C1010E94830CF80140815F
:104630005181B401C1010E94830C11E0F101E05FDE
:10464000FC4F1083C30164D6C20162D6C40160D698
:1046500064E670E080E090E00E946414C101885D2F
:104660009D4FDC011C9311961C93A101465D5D4F8B
:10467000FA0110832F96FFAD2F97F1110FC06096AE
:104680002FAD6097211105C061963FAD619733232F
:1046900039F191012D583F4FF90110826096FFAD1D
:1046A0006097F11105C091012F503F4FF901108221
:1046B0006196FFAD6197F11105C0910121593E4FFF
:1046C000F90110822F962FAD2F97FC012083609661
:1046D0003FAD60973C936196EFAD6197DA01EC9343
:1046E000C301D7D7C201D5D7C401D3D7C30126D7B9
:1046F000C20124D7C40122D70E942D06DC011E96D8
:104700008C918F87A12CB12CF101E85DFD4FFC8BC2
:10471000EB8B9101275D3D4F3C8F2B8FA101465DB7
:104720005D4F58A34F8FC101855D9D4F9EA78DA7FB
:10473000D101A35DBD4FB8ABAFA73796FAABE9ABDC
:10474000235B31403AA729A7465351405CA74BA7AA
:104750008F5591409EA38DA3A35EB109B8A7AFA3C7
:10476000EB89FC89808181110BC0AB8DBC8D8C9154
:10477000811106C0EF8DF8A18081882309F4F5C26C
:10478000FF85F111F2C24DA55EA5B301C1010E94E2
:10479000D50C4FA558A9B201C1010E94D50C49A959
:1047A0005AA9B401C1010E94D50CC30131D7C2017D
:1047B0002FD7C4012DD7E9A5FAA58081882329F038
:1047C000C30167D7A9A5BAA51C92EBA5FCA580815A
:1047D000882329F0C2015DD7ABA5BCA51C9281013D
:1047E0000E581E4FF8018081882321F0C40151D753
:1047F000D8011C9281010D581F4FF8018081882338
:1048000009F43EC0EA59FD4F60817181072E000C0A
:10481000880B990B0E94F1509B01AC01F101E1550D
:10482000FD4F60817181828193810E9478531816B7
:104830003CF5D8011C9269ED74E08101065E1D4FC4
:10484000C8010E9450126EE176E0C8010E94501229
:1048500066ED74E0C8010E9450122F96BFAD2F97ED
:10486000BB2309F486C3F101E657FE4F108A118A73
:10487000128A138AEC53F140108211821282138241
:1048800081010F501F4FD8018C91882309F43FC03C
:10489000F101E552FD4F60817181072E000C880BFC
:1048A000990B0E94F1509B01AC01F101ED54FD4FB9
:1048B00060817181828193810E94785318163CF542
:1048C000F801108269ED74E08101065E1D4FC80198
:1048D0000E94501266E476E0C8010E94501266ED14
:1048E00074E0C8010E9450126096FFAD6097FF23EC
:1048F00009F443C3F101E654FE4F108A118A128A6B
:10490000138AEDA1FEA1108211821282138281010D
:1049100001591E4FD8018C91882309F43FC0F10141
:10492000E352FD4F60817181072E000C880B990BBB
:104930000E94F1509B01AC01F101E954FD4F6081EF
:104940007181828193810E94785318163CF5D801B9
:104950001C9269ED74E08101065E1D4FC8010E9442
:1049600050126EE676E0C8010E94501266ED74E0C7
:10497000C8010E9450126196BFAD6197BB2309F434
:1049800000C3F101E651FE4F108A118A128A138A80
:10499000EFA1F8A5108211821282138260E0C30198
:1049A00044D5882369F0F101E25BFF4F1082118248
:1049B00012821382E45CFE4F108A118A128A138AD3
:1049C00060E0C20132D5882371F0ADA1BEA11D9275
:1049D0001D921D921C921397F101E654FE4F108A0E
:1049E000118A128A138A60E0C4011FD5882369F0F6
:1049F000EFA1F8A51082118212821382F101E65113
:104A0000FE4F108A118A128A138AF101ED58FF4F66
:104A10008081AB89BC898C93E258FF4F8081EB8DFC
:104A2000FC8D8083F101E159FE4F8081AF8DB8A1EB
:104A30008C93E152F14020813181428153812F8357
:104A4000388749875A87ADA1BEA14D915D916D917F
:104A50007C91EFA1F8A5C080D180E280F3804BABC0
:104A60005CAB6DAB7EAB0E942D068F819885A985CE
:104A7000BA858093840B9093850BA093860BB0939B
:104A8000870B0E942D064BA95CA96DA97EA94093B6
:104A9000880B5093890B60938A0B70938B0B0E9449
:104AA0002D06C0928C0BD0928D0BE0928E0BF09263
:104AB0008F0BC1010E948D2FAB89BC898C918823FB
:104AC00009F44AC00E949C142B853C854D855E8567
:104AD000621773078407950760F40E949C142B8566
:104AE0003C854D855E856217730784079507A0F5A1
:104AF0001EC00E949C146B017C012B853C854D855A
:104B00005E85C21AD30AE40AF50AF101E956FD4F9F
:104B10002081318142815381A8EEB3E00E94395255
:104B20006C157D058E059F0508F42FC2D6CF0E9417
:104B30009C146B017C01F101E956FD4F208131810C
:104B400042815381A8EEB3E00E9439526C157D0575
:104B50008E059F0508F419C2AB8DBC8D8C918823FE
:104B600009F44AC00E949C142B853C854D855E85C6
:104B7000621773078407950760F40E949C142B85C5
:104B80003C854D855E856217730784079507A0F500
:104B90001EC00E949C146B017C012B853C854D85B9
:104BA0005E85C21AD30AE40AF50AF101E556FD4F03
:104BB0002081318142815381A8EEB3E00E943952B5
:104BC0006C157D058E059F0508F4F5C1D6CF0E94B2
:104BD0009C146B017C01F101E556FD4F2081318170
:104BE00042815381A8EEB3E00E9439526C157D05D5
:104BF0008E059F0508F4DFC1AF8DB8A18C91882385
:104C000009F44AC00E949C142B853C854D855E8525
:104C1000621773078407950760F40E949C142B8524
:104C20003C854D855E856217730784079507A0F55F
:104C30001EC00E949C146B017C012B853C854D8518
:104C40005E85C21AD30AE40AF50AF101E156FD4F66
:104C50002081318142815381A8EEB3E00E94395214
:104C60006C157D058E059F0508F4BBC1D6CF0E944B
:104C70009C146B017C01F101E156FD4F20813181D3
:104C800042815381A8EEB3E00E9439526C157D0534
:104C90008E059F0508F4A5C182EC9CE00E94AC0F34
:104CA0001816190684F582EC9CE00E948A0F8F7D0D
:104CB0008534910541F564EE75E0C101865E9D4F36
:104CC0000E94501284E793E00E94223E0E942D062B
:104CD0000E943705F101ED58FF4F1082E258FF4F57
:104CE0001082E258FF4F1082AB89BC891C92EB8D79
:104CF000FC8D1082AF8DB8A11C92B1E0BF87AA24B1
:104D0000A394B12C03C0A114B10481F069EF75E044
:104D1000C101865E9D4F0E945012EB89FC89108272
:104D2000AB8DBC8D1C92EF8DF8A11082C1010E9449
:104D3000D83DF101EA5DFD4F80819181019691831B
:104D400080838D3291400CF40BCDD101A25EBD4F1A
:104D50008D919C911197892B09F002CD14968D911C
:104D60009C91892B09F453C1FBCC8101025E1D4F3C
:104D7000D8018D919C91892B21F0C1010E94D83DD1
:104D8000F7CF85E096E00E94223E2F96BFAD2F9789
:104D9000BB2309F1A114B104F1F4EF85E11140C086
:104DA00084E593E00E94223E0E942D060E94370572
:104DB0006096FFAD6097FF2371F180E593E00E945C
:104DC000223E0E942D060E94370561962FAD619705
:104DD000211118C025C060963FAD6097332339F08C
:104DE000A114B10421F44F8541111AC0E6CF619698
:104DF0005FAD61975523A1F0A114B10489F48F85AB
:104E000081110EC08CE493E00E94223E0E942D0688
:104E10000E94370505C06196EFAD6197E111F2CFB1
:104E200085E090E0ABA1BCA18D939C939101235DA3
:104E30003D4F3C872B87D9018D939C938101015D68
:104E40001D4FF8019183808345E050E0B301C1011B
:104E50000E94830CAB85BC854D915C91B201C10170
:104E60000E94830CF80140815181B401C1010E946C
:104E7000830CC1010E94952FF101E25BFF4F40813D
:104E8000518162817381E258FF4F80819181A281BB
:104E9000B3818F8B988FA98FBA8FE258FF4FC08054
:104EA000D180E280F3804BAB5CAB6DAB7EAB0E94FC
:104EB0002D064BA95CA96DA97EA94093840B509344
:104EC000850B6093860B7093870B0E942D062F89AC
:104ED000388D498D5A8D2093880B3093890B4093E0
:104EE0008A0B50938B0B0E942D06C0928C0BD09294
:104EF0008D0BE0928E0BF0928F0BC1010E948D2FD3
:104F0000C1010E94912F0E942D060E948A05C101B5
:104F10000E940D0DABA1BCA11D921C92EB85FC85DE
:104F200011821082D8011D921C9240E050E0B30122
:104F3000C1010E94830CEB85FC8540815181B20147
:104F4000C1010E94830CD8014D915C91B401C10153
:104F50000E94830CC101E9D7BF85BB2309F454C16A
:104F60000E942D0621E0FC012687AA24A394B12CDF
:104F70004BC153E0A52EB12C83CC43E0A42EB12C21
:104F8000C6CC33E0A32EB12C09CD60E673E08101DD
:104F9000065E1D4FC8010E94501266ED74E0C80104
:104FA0000E94501266E976E0C8010E94501222E089
:104FB000A22EB12CD1CD6CE573E08101065E1D4FB0
:104FC000C8010E94501266ED74E0C8010E945012A0
:104FD0006BEA76E0C8010E94501292E0A92EB12C33
:104FE0000BCE68E573E08101065E1D4FC8010E948B
:104FF000501266ED74E0C8010E94501260EC76E039
:10500000C8010E94501282E0A82EB12C45CE118218
:105010001082F101EC5DFD4F80819181009749F490
:1050200060E773E08101065E1D4FC8010E945012C7
:10503000C6C0019709F0D4C00E942D068C01FC0166
:1050400080819181A281B381181619061A061B0668
:1050500044F081E090E0A0E0B0E080839183A283FF
:10506000B383F80184819581A681B781181619064A
:105070001A061B0644F081E090E0A0E0B0E08483D3
:105080009583A683B783F80180859185A285B38532
:10509000181619061A061B0644F081E090E0A0E0FD
:1050A000B0E080879187A287B38768ED74E0CE0176
:1050B00001960E948E1266E975E0CE0101960E946B
:1050C000501267EB75E0CE0101960E94501260917C
:1050D000840B7091850B8091860B9091870B0E94B9
:1050E000F1506B017C01D8016D917D918D919C9166
:1050F0000E94F1509B01AC01C701B6010E94DF5232
:10510000AB01BC01CE0101960E94201267EC75E054
:10511000CE0101960E9450126091880B7091890B0C
:1051200080918A0B90918B0B0E94F1506B017C0156
:10513000F80164817581868197810E94F1509B01FD
:10514000AC01C701B6010E94DF52AB01BC01CE0128
:1051500001960E94201267ED75E0CE0101960E9433
:10516000501260918C0B70918D0B80918E0B9091F1
:105170008F0B0E94F1506B017C01D80118966D9144
:105180007D918D919C911B970E94F1509B01AC01E8
:10519000C701B6010E94DF52AB01BC01CE010196EE
:1051A0000E942012BE016F5F7F4F8101065E1D4F7E
:1051B000C8010E945E1289819A810E94D94B0E9487
:1051C0002D06BC01CE0101960E94F104BE016F5F65
:1051D0007F4FC8010E945E1289819A810E94D94B3B
:1051E000F101EC5DFD4F8081918101968230910546
:1051F0001CF49183808302C011821082F101EE5D64
:10520000FD4F11821082ACCA83E196E00E94223EDB
:10521000C5010E94643F86ED94E00E94223E0E94F8
:105220002D06B092FB07A092FA07C501E6960FB6CD
:10523000F894DEBF0FBECDBFDF91CF911F910F91CC
:10524000FF90EF90DF90CF90BF90AF909F908F90A6
:105250007F906F905F904F903F902F900895CF93E5
:10526000DF93EC0189890E9401132E8930E08217B7
:10527000930711F48F8901C080E0DF91CF910895E9
:10528000CF93DF93EC018DA5882311F061E001C07D
:1052900060E08F810E9429138EA5882329F08FA5B5
:1052A000882311F061E001C060E08D85DF91CF912E
:1052B0000C942913CF93DF93EC018DA5882311F073
:1052C00060E001C061E08F810E9429138EA58823D0
:1052D00029F08FA5882311F060E001C061E08D8581
:1052E000DF91CF910C942913CF93DF93EC0161E010
:1052F00089850E9429138EA5882321F061E08F857E
:105300000E942913C559DF4F1882DF91CF9108956C
:10531000CF93DF93EC0160E089850E9429138EA56D
:10532000882321F060E08F850E942913C559DF4F43
:1053300081E08883DF91CF910895CF92DF92EF9241
:10534000FF920F931F93CF93DF93FC0142AF53AFB4
:1053500064AF75AFDC01DE964D935D936D937C93E6
:10536000139714960D931D932D933C931397EC0173
:10537000CA5BDF4FE88284A9882389F084A5811164
:1053800009C037FF0CC01D921D921D921C921397ED
:1053900081E006C01016110612061306A4F380E081
:1053A00045A956A967A970AD141615061606170665
:1053B0003CF591AD992321F10D911D912D913C91D9
:1053C00013976801790137FF07C0CC24DD247601EB
:1053D000C01AD10AE20AF30A4C155D056E057F0575
:1053E0007CF437FF07C070956095509541955F4FED
:1053F0006F4F7F4F4D935D936D937C93139781E037
:10540000DF01AD5ABF4F1D921D921D921C92139742
:10541000ED59FF4F91E09083DF91CF911F910F9154
:10542000FF90EF90DF90CF9008950F931F93CF934D
:10543000DF938C01D62FFC01858981110AC0C80138
:105440000EDFC82FC8010E941421D11109C08C2F72
:1054500007C0C8010E941421C82FC80100DFF5CF82
:10546000DF91CF911F910F910895CF93DF93EC01BE
:10547000FC01E359FF4F81E0808339978081B69723
:10548000882341F080819181A281B3810196A11D81
:10549000B11D07C080819181A281B3810197A109CB
:1054A000B10980839183A283B383FE01E059FF4F4A
:1054B00020813181DE01A259BF4FC90195958795A1
:1054C00020FD03C0ED91FC910DC0FE01E80FF91F16
:1054D0000190F081E02D2D913C91E20FF31F01909E
:1054E000F081E02D8C0F9D1F19958F859889892B50
:1054F00011F1FE01EC58FF4F20813181DE01AE58E1
:10550000BF4FC9019595879520FD03C0ED91FC9192
:105510000DC0FE01E80FF91F0190F081E02D2D91E3
:105520003C91E20FF31F0190F081E02D8C0F9D1F45
:10553000DF91CF911994DF91CF9108958F929F922F
:10554000AF92BF92CF92DF92EF92FF920F931F9391
:10555000CF93DF93EC01FC01ED5AFF4F6081718125
:10556000828193810E94EF506B017C0168A979A927
:105570008AA99BA90E94F1509B01AC0160E074E2F2
:1055800084E799E40E94DF524B015C01FE01E15A7D
:10559000FF4F60817181828193810E94EF509B0156
:1055A000AC01C501B4010E94DF524B015C018E01C8
:1055B000095A1F4F20E030E040E05FE30E94505165
:1055C0009B01AC01C701B6010E947B520E944C5363
:1055D000F8016083718382839383C55ADF4FA501ED
:1055E0009401C701B6010E947B520E944C5368830C
:1055F00079838A839B83DF91CF911F910F91FF90D5
:10560000EF90DF90CF90BF90AF909F908F900895D4
:105610000F931F93CF93DF93FC01E359FF4F20813A
:105620002223C1F07A97008111812281338138963B
:10563000408151816281738104171507260737075E
:1056400018F1EC010E94F920CE01DF91CF911F915A
:105650000F9174CFFC01ED59FF4F20812223A1F05F
:10566000709700811181228133813496408151816C
:1056700062817381041715072607370728F0DF9129
:10568000CF911F910F91F1CEDF91CF911F910F918B
:1056900008952F923F924F925F926F927F928F92D6
:1056A0009F92AF92BF92CF92DF92EF92FF920F93B1
:1056B0001F93CF93DF93CDB7DEB762970FB6F89401
:1056C000DEBF0FBECDBF8C017C0126E4E20EF11CD3
:1056D000D7018C9198012C593F4FF801EB59FF4F9E
:1056E0006F01A801425C5F4F4A0114971D01882396
:1056F00041F0F80184A5D9018C9381E0F601808303
:105700002FC0DA014D915D916D917C91F101808105
:105710009181A281B381BB24B394481759076A07CA
:105720007B070CF0B12CF901B08277FF07C07095B0
:105730006095509541955F4F6F4F7F4FB7FF07C002
:10574000B095A095909581959F4FAF4FBF4F21E0A9
:10575000481759076A077B070CF420E0D6012C9301
:10576000F4014081518162817381411551056105C8
:10577000710559F4F801848D958DA68DB78DE15A88
:10578000FF4F80839183A283B383F1018081918154
:10579000A281B381F80142AC53AC64AC75AC980102
:1057A0002D593F4F5901481659066A067B0634F4B5
:1057B000481759076A077B077CF00AC084159505CE
:1057C000A605B7052CF484179507A607B70724F09C
:1057D000D7018C918823D9F0F50180818823B9F015
:1057E000D7018C91811105C0F701808181110FC013
:1057F00006C060E0C80119DE8111F6CF17C0D601DE
:105800006C9181E06827C80110DE882379F0D5010A
:105810001C9260E0C80109DE882309F4C6C1F801C2
:10582000FE961082118212821382BFC1D801949613
:105830002D913D914D915C91979729833A834B83AC
:105840005C8358962D913D914D915C915B972D8392
:105850003E834F8358875C962D913D914D915C918D
:105860005F9729873A874B875C87F1018081918117
:10587000A281B381F801FE96C080D180E280F380DE
:10588000F80142AD53AD64AD75ADE959FF4F1082DB
:10589000319610823801F9E66F0E711CF301108207
:1058A000980126593F4FF9011082329610824C011F
:1058B0005D01841A950AA60AB70AB7FE08C0B0941B
:1058C000A09490948094811C911CA11CB11C481739
:1058D00059076A077B072CF4C41AD50AE60AF70AA7
:1058E00004C0C81AD90AEA0AFB0AD501C401B59551
:1058F000A795979587958D879E87AF87B88BD80199
:10590000A459BF4F1D01F7FC05C08C149D04AE04C3
:10591000BF044CF4F80100A0F1A1E02DFA8BE98B53
:1059200081E0D9011BC02D853E854F8558892C15F6
:105930003D054E055F0508F454C089819A81AB810D
:10594000BC818C159D05AE05BF0564F42D813E819B
:105950002F5F3F4F3A8B298B81E0D3018C93F1016C
:1059600080839EC0C701B6010E94F1502B013C010B
:1059700069817A818B819C810E94F1509B01AC01ED
:10598000C301B2010E94DF522B013C016D817E8177
:105990008F81988529853A854B855C85621B730BC1
:1059A000840B950B0E94F1509B01AC01C301B20125
:1059B0000E9450512B013C0169857A858B859C851D
:1059C0000E94F1509B01AC01C301B2010E947B52C5
:1059D0000E9447537A8B698B81E0F801E959FF4FA8
:1059E0005CC0D501C40129813A814B815C81821B55
:1059F000930BA40BB50BC816D906EA06FB065CF49C
:105A00002D813E812E5F3F4F3A8B298B81E0F8013B
:105A1000E759FF4F42C0C501B4016C197D098E09D9
:105A20009F090E94F1502B013C0169817A818B8191
:105A30009C810E94F1509B01AC01C301B2010E9404
:105A4000DF522B013C016D817E818F8198852985F4
:105A50003A854B855C85621B730B840B950B0E940A
:105A6000F1509B01AC01C301B2010E9450512B01C6
:105A70003C0169857A858B859C850E94F1509B014C
:105A8000AC01C301B2010E947B520E9447537A8B42
:105A9000698B81E0F801E859FF4F8083D1018C9335
:105AA000F80184818823B1F00E949C14D8011296D9
:105AB0004D905C901397052C000C66087708DC016C
:105AC000CB0184199509A609B709893E9340A10520
:105AD000B10568F4F801E15AFF4F29893A89C901F3
