:10000000A1C20000D0C20000CEC20000CCC20000DD
:10001000CAC20000C8C20000C6C20000C4C20000BC
:10002000C2C20000C0C20000BEC20000BCC20000CC
:10003000BAC20000B8C20000B6C20000CEC40000C0
:10004000B2C200000C94230FAEC20000ACC200008C
:100050000C942417A8C20000A6C200000C94480DFE
:10006000A2C200000C946B0B0C94420B9CC20000CB
:100070009AC2000098C2000096C2000094C200001C
:100080000C94F60E90C200008EC200008CC20000DC
:100090008AC2000088C2000086C2000084C200003C
:1000A00082C2000080C200000C94C90E7CC2000015
:1000B0007AC2000078C2000076C200000C949C0E48
:1000C00072C2000070C200006EC200006CC200006C
:1000D0006AC2000068C2000066C2000064C200007C
:1000E00062C20000E20AE50AD40AD80ADE0A1C0B42
:1000F000E90AED0AF30AF70AFB0A010B050B090BE3
:100100001C0B0F0B130B170B80118D1196119F11E8
:10011000AC11B511BA15BA15BA15BA15BA15C2117E
:10012000CF11DC11BA15E911F211FB1108121112ED
:100130001A1223122C123512BA153E1247125012FF
:10014000BA15BA15BA15591262126B12BA15BA1548
:1001500074128112BA15BA15BA158E129B12A81212
:10016000BA15B512BE12C712BA15BA15BA15D01201
:10017000D912E212BA15EF12FC120913BA15BA1508
:10018000BA15161323133013BA153D134A13571318
:10019000BA15BA15BA15641371137E13BA158B13F9
:1001A00094139D13BA15BA15BA15C113CE13DB13E8
:1001B000BA15E813F5130214BA15BA15BA150F14C7
:1001C00018142114BA15BA15BA15BA15BA15BA15F4
:1001D000BA152A1433143C14BA1545144E14571486
:1001E000BA15BA15BA1560146D147A14BA158714B5
:1001F0009414A114BA15BA15BA15AE14BB14C814C8
:10020000BA15D514DE14E714BA15BA15BA15F014D8
:10021000F9140215BA15BA15BA15BA15BA15BA15E0
:10022000BA15BA15BA15BA15BA15A613AF13B8137D
:10023000BA15BA15BA15BA15BA15BA15BA15BA1546
:10024000BA15BA15BA15BA15BA15BA15BA15BA1536
:10025000BA15BA15BA15BA15BA15BA15BA15BA1526
:10026000BA15BA15BA15BA15BA15BA15BA15BA1516
:10027000BA15BA15BA15BA15BA15BA15BA15BA1506
:10028000BA15BA15BA15BA15BA15BA15BA15BA15F6
:10029000BA15BA15BA15BA15BA150B1514152115D4
:1002A000BA152E1537154415BA15BA15BA155115C4
:1002B0005A156715BA1574157D158A15BA15BA152C
:1002C000BA159715A015AD15101815181A18241879
:1002D0002E18A71838184018481852185C186618B5
:1002E00075187F18A718891893189D184E414E4904
:1002F0004E495459494E46CDCCCC3D0AD7233C17E4
:10030000B7D13877CC2B329595E6241FB14F0A0030
:100310000020410000C84200401C4620BCBE4CCA20
:100320001B0E5AAEC59D7400407A10F35A00A0729D
:100330004E18090010A5D4E80000E8764817000020
:10034000E40B54020000CA9A3B000000E1F50500EE
:100350000080969800000040420F000000A0860137
:10036000000000102700000000E803000000006407
:1003700000000000000A0000000000010000000072
:10038000002C76D888DC674F0823DFC1DFAE59E147
:10039000B1B796E5E3E453C63AE651997696E8E6B6
:1003A000C28426EB898C9B62ED407C6FFCEFBC9C89
:1003B0009F40F2BAA56FA5F490055A2AF75C936B9B
:1003C0006CF9676DC11BFCE0E40D47FEF520E6B556
:1003D00000D0ED902E0300943577050080841E0830
:1003E0000000204E0A000000C80C333333330F984E
:1003F0006E12831141EF8D2114893BE65516CFFE15
:10040000E6DB18D1844B381BF77C1D901DA4BBE4A0
:1004100024203284725E228100C9F124ECA1E53DE2
:100420002700000A0B02090C0D0E08070304010047
:1004300000000000000000000000000000000000BC
:100440000000000000000000000000000012111079
:10045000000000000000000000000000000000009C
:100460000000000000000000002100240027002AF6
:10047000002D003000330001010000040107010AD3
:100480000100002200250028002B002E003100343E
:100490000002010000050108010B010000200023FB
:1004A00000260029002C002F00320000010000036C
:1004B00001060109010505050507050808080802E8
:1004C0000202020A0A0808040404040101010101ED
:1004D0000101010303030303030303040707070CDC
:1004E0000C0C0C0C0C0C0C02020202060606060692
:1004F0000606060B0B0B0B0B0B0B0B01021020203F
:100500000808102040102040800201020108040267
:1005100001010204081020408080402010080402DD
:100520000180040201804020100804020108040236
:10053000010102040810204080010204081020403C
:100540008000AE5011241FBECFEFD1E2DEBFCDBF81
:1005500000E00CBF18E0A0E0B2E0E6E6F5EB00E05A
:100560000BBF02C007900D92A635B107D9F72EE058
:10057000A6E5B8E001C01D92AE3BB207E1F712E07C
:10058000C2EAD2E000E006C021970109802FFE01F7
:100590000E94A459C13AD10780E00807A9F70E9438
:1005A00073440C94B15A2CCD0C94F1510C94F1512C
:1005B0000C94F1510C94F1510C94F1510C94F151B3
:1005C0000C94F1510C94F1510C94F1510C94F151A3
:1005D0000C94F1510C94F1510C94F1510C94F15193
:1005E0000C94F1510C94F1510C94F1510C94F15183
:1005F0000C94F151662319F08AEA94E002C083EA70
:1006000094E00C94BE3B0F931F93CF93DF93FB01B9
:1006100002A913A9C68DD78D0E94B418A801BE01E6
:100620000E94601780E090E0DF91CF911F910F91C1
:1006300008950F931F93CF93DF93FB0102A113A1A2
:10064000C68DD78D0E944D17C530D105E1F064F4F9
:10065000249771F564E070E088EA9EE00E94150E30
:10066000B80188EA9EE022C0C630D105B1F02B97D0
:10067000F9F467E070E081EB9EE00E94150EB8018E
:1006800081EB9EE013C065E070E08BEA9EE00E9483
:10069000150EB8018BEA9EE009C066E070E08EEAB4
:1006A0009EE00E94150EB8018EEA9EE00E94920D17
:1006B00080E090E0DF91CF911F910F910895EF922C
:1006C000FF920F931F93CF93DF93FB01E2A8F3A850
:1006D00002A113A1C68DD78D0E94B4189701A8015D
:1006E000BE010E94CC1780E090E0DF91CF911F9176
:1006F0000F91FF90EF9008956F927F928F929F924B
:10070000AF92BF92CF92DF92EF92FF920F931F931F
:10071000CF93DF93FB01E2A8F3A886A497A4A0A837
:10072000B1A8C6A0D7A062A073A0068D178D0E94A5
:10073000B418EC019701A301B8010E94CC17C501C0
:10074000B4010E94040D9701A601B801CE010E94D8
:10075000CC1780E090E0DF91CF911F910F91FF9037
:10076000EF90DF90CF90BF90AF909F908F907F9051
:100770006F9008951F93CF93DF931F92CDB7DEB78D
:10078000FB0162A9168D69830E94B4186981812FCB
:100790000E94BD0C80E090E00F90DF91CF911F91FF
:1007A0000895CF93DF93FB01C68DD78D0E94861AE3
:1007B000BE010E942C1A80E090E0DF91CF91089555
:1007C000EF92FF920F931F93CF93DF9300D01F926E
:1007D000CDB7DEB7FB0122A133A144A155A1068DFF
:1007E000178D29833A834B835C830E94861A7C0190
:1007F000FC018281938129813A814B815C818F3018
:10080000F7E29F072CF40196F7019383828303C0DC
:10081000F70113821282B801C70129833A834B83FF
:100820005C830E941C1929813A814B815C81882359
:10083000A1F0F801EE0FFF1FEE0FFF1FEC59F74F6D
:100840002083318342835383B801C7010E94DD199D
:10085000B801C7010E942C1A04C08DE995E00E94DE
:10086000BE3B0E947E1B0E944E1B80E090E00F90DA
:100870000F900F900F90DF91CF911F910F91FF90EC
:10088000EF9008958F929F92AF92BF92CF92DF9296
:10089000EF92FF920F931F930E94EC3162E070E0A1
:1008A0000E94983F892BD1F40E94EC3121E02F93D4
:1008B0001F921F921F921F92812C912CA12CB12C60
:1008C000C12CD12C760197018601B701A6010E94A7
:1008D000AA1B0F900F900F900F900F9080E090E068
:1008E0001F910F91FF90EF90DF90CF90BF90AF904E
:1008F0009F908F9008958F929F92AF92BF92CF92C8
:10090000DF92EF92FF920F931F930E94EC3161E010
:1009100070E00E94983F892BD1F40E94EC311F9225
:1009200021E02F931F921F921F92812C912CA12CBA
:10093000B12CC12CD12C760197018601B701A601FB
:100940000E94AA1B0F900F900F900F900F9080E0C5
:1009500090E01F910F91FF90EF90DF90CF90BF90AC
:10096000AF909F908F9008958F929F92AF92BF9279
:10097000CF92DF92EF92FF920F931F930E94EC3180
:1009800060E070E00E94983F892BD1F40E94EC3126
:100990001F921F9221E02F931F921F92812C912C66
:1009A000A12CB12CC12CD12C760197018601B70165
:1009B000A6010E94AA1B0F900F900F900F900F900E
:1009C00080E090E01F910F91FF90EF90DF90CF902B
:1009D000BF90AF909F908F9008951F920F920FB687
:1009E0000F9211240BB60F922F933F934F935F9367
:1009F0006F937F938F939F93AF93BF93EF93FF93E7
:100A00008091130D81113FC081E08093130D0E94EE
:100A1000EC31FC01E758FF4F2081222369F07097E9
:100A200040815181628173814F5F5F4F6F4F7F4F74
:100A30004083518362837383FC01E350FF4F208125
:100A4000222369F0709740815181628173814F5FE9
:100A50005F4F6F4F7F4F4083518362837383FC01ED
:100A6000EF57FE4F2081222361F0709780819181A2
:100A7000A281B3810196A11DB11D80839183A283C0
:100A8000B3831092130DFF91EF91BF91AF919F919E
:100A90008F917F916F915F914F913F912F910F9027
:100AA0000BBE0F900FBE0F901F90189508950895DC
:100AB000089508950895089508950895089508954E
:100AC000089508950895089508950895089508953E
:100AD0000895EF92FF920F931F93CF93DF93CDB7BB
:100AE000DEB72E970FB6F894DEBF0FBECDBF8C01D8
:100AF00060E275E00E945F446FEB75E0C8010E9400
:100B00005A3F6091600870916108809162089091ED
:100B100063082AE0AE014F5F5F4F7A010E94C8521E
:100B2000F70101900020E9F73197AF014E195F09F5
:100B3000B701C8010E94CE3E6EE175E0C8010E9477
:100B40005A3FC8012E960FB6F894DEBF0FBECDBF38
:100B5000DF91CF911F910F91FF90EF9008958FEB50
:100B600095E00E94BE3B60916008709161088091A1
:100B70006208909163080E940A3C8EE195E00C9413
:100B8000BE3B0F931F93CF93DF93EC0182EC95E074
:100B90000E94BE3B86EC95E00E94BE3B0DE01DE04E
:100BA000F8016081CE0126DD8AEC95E00E94BE3B13
:100BB000F8016181CE011EDD8EEC95E00E94BE3B06
:100BC000F8016281CE0116DD82ED95E00E94BE3B08
:100BD000F8016381CE010EDD86ED95E00E94BE3BFB
:100BE000F8016481CE0106DD8AED95E00E94BE3BEE
:100BF000F8016581CE01FEDCCE01DF91CF911F911E
:100C00000F91ADCFCF92DF92EF92FF92CF93DF9310
:100C1000EC0188819981AA81BB81181619061A06F0
:100C20001B0644F081E090E0A0E0B0E08883998367
:100C3000AA83BB838C819D81AE81BF811816190662
:100C40001A061B0644F081E090E0A0E0B0E08C833F
:100C50009D83AE83BF8388859985AA85BB85181639
:100C600019061A061B0644F081E090E0A0E0B0E00F
:100C700088879987AA87BB878EED95E00E94BE3B47
:100C80008FEE95E00E94BE3B6091E80B7091E90BFE
:100C90008091EA0B9091EB0B0E940C576B017C0149
:100CA000688179818A819B810E940C579B01AC01EC
:100CB000C701B6010E94F75842E00E94363C8FEF10
:100CC00095E00E94BE3B6091EC0B7091ED0B809122
:100CD000EE0B9091EF0B0E940C576B017C016C8125
:100CE0007D818E819F810E940C579B01AC01C701C1
:100CF000B6010E94F75842E00E94363C8FE096E031
:100D00000E94BE3B6091F00B7091F10B8091F20B51
:100D10009091F30B0E940C576B017C0168857985DB
:100D20008A859B850E940C579B01AC01C701B601C7
:100D30000E94F75842E00E94363CCE01DF91CF91ED
:100D4000FF90EF90DF90CF900ACF80910B0D9091A4
:100D50000C0D892B09F044C08FE090E00E945C519B
:100D6000FC0181E090E0A0E0B0E080839183A28369
:100D7000B38384839583A683B78380879187A28773
:100D8000B3871586148616861092E80B1092E90B2D
:100D90001092EA0B1092EB0B1092EC0B1092ED0BF1
:100DA0001092EE0B1092EF0B1092F00B1092F10BD1
:100DB0001092F20B1092F30B10920A0D1092090D83
:100DC00010926008109261081092620810926308F5
:100DD00010925F0810925E08F0930C0DE0930B0DDB
:100DE00080910B0D90910C0D0895CF93DF93EB0143
:100DF00020E030E040E85FE36A817B818C819D8167
:100E00000E94065781110DC082EE95E00E94BE3B04
:100E10000E94EC31FC01EC5AFF4F108211821282C9
:100E2000138220E030E040E85FE36E817F818885B7
:100E300099850E94065781110DC082EF95E00E94AE
:100E4000BE3B0E94EC31FC01E852FF4F1082118240
:100E50001282138220E030E040E85FE36A857B8500
:100E60008C859D850E94065781110DC082E096E019
:100E70000E94BE3B0E94EC31FC01E45AFE4F1082FE
:100E800011821282138261DF6ADE80E090E0DF91DE
:100E9000CF91089582E196E00E94BE3B87E293E005
:100EA0000E94BE3B52DF5BDE80E090E008954DDFA4
:100EB000A9DE80E090E008950E94861A0E946E1AD2
:100EC00087E196E00E94BE3B40DF49DE80E090E093
:100ED00008952F923F924F925F926F927F928F92DE
:100EE0009F92AF92BF92CF92DF92EF92FF920F93B9
:100EF0001F93CF93DF930E94EC3121E02F931F9239
:100F00001F921F921F92812C912CA12CB12CC12CCD
:100F1000D12C760197018601B701A6010E94AA1B78
:100F20000E94861A0F900F900F900F900F90809153
:100F3000300990913109019719F486EF9FEF02C0B3
:100F40008AE090E0C0E0D0E02C01990F66087708B5
:100F5000C330D105A9F05CF4C130D10589F0C230AD
:100F6000D10539F50E94EC31E1E0EF9326C0C530A0
:100F7000D10531F0F4F40E94EC31F1E0FF931DC093
:100F80000E94EC311C01C301B2010E940C576B019D
:100F90007C011F921F921F921F921F92812C912CF5
:100FA000A12CB12C00E010E09801B901A801C10109
:100FB00013C00E94EC3121E02F931F921F921F92C9
:100FC0001F92812C912CA12CB12CC12CD12C7601FB
:100FD00097018601B701A6010E94AA1B0F900F90EE
:100FE0000F900F900F90B1DE20905E0830905F0858
:100FF000ACDEFC018685811107C0232829F42196E7
:10100000C730D10509F0A4CF80E090E0DF91CF9107
:101010001F910F91FF90EF90DF90CF90BF90AF9016
:101020009F908F907F906F905F904F903F902F9008
:1010300008952F923F924F925F926F927F928F927C
:101040009F92AF92BF92CF92DF92EF92FF920F9357
:101050001F93CF93DF930E94861A8091300990915D
:101060003109019719F486EF9FEF02C08AE090E002
:10107000C0E0D0E02C01990F66087708C330D10595
:10108000B9F064F4C130D10599F0C230D10549F509
:101090000E94EC311F92E1E0EF9328C0C530D105EA
:1010A00039F0FCF40E94EC311F92F1E0FF931EC076
:1010B0000E94EC311C01C301B2010E940C578B014C
:1010C0009C011F921F921F921F921F92812C912CA4
:1010D000A12CB12CC12CD12C7601B701A601C101E4
:1010E00013C00E94EC311F9221E02F931F921F9298
:1010F0001F92812C912CA12CB12CC12CD12C7601CA
:1011000097018601B701A6010E94AA1B0F900F90BC
:101110000F900F900F9019DE20905E0830905F08BE
:1011200014DEFC018685811107C0232829F421964D
:10113000C730D10509F0A2CF80E090E0DF91CF91D8
:101140001F910F91FF90EF90DF90CF90BF90AF90E5
:101150009F908F907F906F905F904F903F902F90D7
:1011600008952F923F924F925F926F927F928F924B
:101170009F92AF92BF92CF92DF92EF92FF920F9326
:101180001F93CF93DF930E94861A8091300990912C
:101190003109019719F486EF9FEF02C08AE090E0D1
:1011A000C0E0D0E02C01990F66087708C330D10564
:1011B000C9F06CF4C130D105A9F0C230D10559F5A0
:1011C0000E94EC311F921F92E1E0EF932AC0C530DC
:1011D000D10541F004F50E94EC311F921F92F1E01D
:1011E000FF931FC00E94EC311C01C301B2010E9499
:1011F0000C57AB01BC011F921F921F921F921F92AE
:10120000812C912CA12CB12CC12CD12C76019701D1
:101210008601C10113C00E94EC311F921F9221E090
:101220002F931F921F92812C912CA12CB12CC12C99
:10123000D12C760197018601B701A6010E94AA1B55
:101240000F900F900F900F900F907FDD20905E0811
:1012500030905F087ADDFC018685811107C0232864
:1012600029F42196C730D10509F0A0CF80E090E0A5
:10127000DF91CF911F910F91FF90EF90DF90CF9072
:10128000BF90AF909F908F907F906F905F904F90A6
:101290003F902F90089559DDFC01168680E090E084
:1012A0000895CF93DF9385E44CD2EC014EDD91E0BD
:1012B000CD2B09F490E090930D0D84E442D2EC0123
:1012C00044DD91E0CD2B09F490E090930E0D83E482
:1012D00038D2EC013ADD91E0CD2B09F490E0909307
:1012E0000F0D82E42ED2EC0130DD91E0CD2B09F41C
:1012F00090E09093100D81E424D2EC0126DD91E082
:10130000CD2B09F490E09093110D80E41AD2EC01FA
:101310001CDD91E0CD2B09F490E09093120DDF914C
:10132000CF9108958BE196E00E94BE3B0EDDB9DFC0
:101330000CDD27DC0E94B41840E050E068E070E06B
:101340000E9460170E94B41840E050E069E070E02D
:101350000E9460170E94B41840E050E06AE070E01C
:101360000E9460170E94B41840E050E06DE070E009
:101370000E94601780E090E00895089580E090E07A
:101380000895FC01538D448D252F30E0842F90E08B
:10139000821B930B541710F0CF9608950197089570
:1013A000FC01918D828D981761F0828DDF01A80F6D
:1013B000B11D5D968C91928D9F5F9F73928F90E08F
:1013C00008958FEF9FEF0895FC01918D828D9817FE
:1013D00031F0828DE80FF11D858D90E008958FEF3B
:1013E0009FEF0895FC01918D228D892F90E0805C04
:1013F0009F4F821B91098F739927089584E39DE085
:10140000F1DF21E0892B09F420E0822F0895FC010F
:10141000848DDF01A80FB11DA35ABF4F2C91848D7D
:1014200090E001968F739927848FA689B7892C93B2
:10143000A089B1898C9180648C93938D848D98134D
:1014400006C00288F389E02D80818F7D8083089516
:10145000EF92FF920F931F93CF93DF93EC0181E004
:10146000888F9B8D8C8D981305C0E889F9898081C0
:1014700085FD23C0F62E0B8D10E00F5F1F4F0F73FD
:101480001127E02E8C8DE8120BC00FB607FCFACFA7
:10149000E889F989808185FFF5CFCE01B8DFF2CFE9
:1014A0008B8DFE01E80FF11DE35AFF4FF0820B8F89
:1014B000EA89FB898081806207C0EE89FF896083A9
:1014C000E889F98980818064808381E090E0DF9100
:1014D000CF911F910F91FF90EF900895CF93DF93DD
:1014E000EC01888D8823C1F0EA89FB89808185FD24
:1014F00005C0A889B9898C9186FD0EC00FB607FC7E
:10150000F5CF808185FFF2CFA889B9898C9185FFBD
:10151000EDCFCE017CDFE8CFDF91CF91089580E061
:1015200090E0892B19F06ADF811125C080E090E0FE
:10153000892B41F080E090E0892B21F00E9400008F
:1015400081111CC080E090E0892B41F080E090E0A8
:10155000892B21F00E940000811113C080E090E0EF
:10156000892BA1F080E090E0892B81F00E9400009F
:1015700081110AC008950E940000D8CF0E94000087
:10158000E1CF0E940000EACF0C940000089590E0A3
:10159000FC013197E231F10508F04EC08827EE5882
:1015A000FF4F8F4F0C94A459809180008F7703C018
:1015B000809180008F7D80938000089580918000CD
:1015C000877FF9CF84B58F7702C084B58F7D84BDC6
:1015D00008958091B0008F7703C08091B0008F7D17
:1015E0008093B0000895809190008F7707C080911C
:1015F00090008F7D03C080919000877F8093900042
:1016000008958091A0008F7707C08091A0008F7D02
:1016100003C08091A000877F8093A00008958091EF
:1016200020018F7707C0809120018F7D03C08091BA
:101630002001877F8093200108953FB7F89480911F
:101640001E0D90911F0DA091200DB091210D26B57A
:10165000A89B05C02F3F19F00196A11DB11D3FBFEA
:10166000BA2FA92F982F8827820F911DA11DB11D78
:10167000BC01CD0142E0660F771F881F991F4A9574
:10168000D1F708951F920F920FB60F9211240BB647
:101690000F922F933F934F935F936F937F938F930B
:1016A0009F93AF93BF93EF93FF9384E39DE0AFDEEF
:1016B000FF91EF91BF91AF919F918F917F916F912A
:1016C0005F914F913F912F910F900BBE0F900FBEE6
:1016D0000F901F9018951F920F920FB60F92112422
:1016E0000BB60F922F938F939F93EF93FF93E091FD
:1016F000440DF091450D8081E0914A0DF0914B0D24
:1017000082FD12C0908180914D0D8F5F8F7320916B
:101710004E0D821751F0E0914D0DF0E0EC5CF24F70
:10172000958F80934D0D01C08081FF91EF919F9126
:101730008F912F910F900BBE0F900FBE0F901F90A7
:101740001895CF93DF93282F30E0F901EF5DFB4F21
:101750008491F901E550FB4FD491F901EB54FB4F13
:10176000C491CC2389F0811112DFEC2FF0E0EE0F51
:10177000FF1FE556FB4FA591B491EC91ED2381E05D
:1017800090E021F480E002C080E090E0DF91CF9112
:1017900008951F93CF93DF93282F30E0F901EF5D79
:1017A000FB4F8491F901E550FB4FD491F901EB54C3
:1017B000FB4FC491CC23C1F0162F8111E8DEEC2F32
:1017C000F0E0EE0FFF1FEF57FB4FA591B4918FB7DD
:1017D000F894111105C09C91ED2FE095E92302C00A
:1017E000EC91ED2BEC938FBFDF91CF911F9108957A
:1017F000CF92DF92EF92FF920F931F93CF93DF93DD
:101800006C018B017A01EC01CB5ED24F888187FF9E
:1018100004C0FB011182108224C08CE08C9D9001D9
:101820008D9D300D11248881A901480F511D87FD20
:101830005A958091A70E90E04817590794F4888133
:10184000A901480F511D87FD5A95CA01FA01EE0FF3
:10185000FF1F8E0F9F1FFC01E95EF14F808186FD07
:1018600019C088818F5F88838CE08C9D90018D9D4D
:10187000300D11248881A901480F511D87FD5A950B
:101880008091A70E90E048175907B4F488818C30F6
:101890003CF112C08881280F311D87FD3A95F9016E
:1018A000EE0FFF1F2E0F3F1FF901E95EF14F808100
:1018B00060E08F736EDFD5CFF8018081918104964F
:1018C00080349C4918F480E49CE904C0F8018081CC
:1018D00091810496F701918380838FEF888344C0C0
:1018E000F801408151818881B901680F711D87FD20
:1018F0007A95CB01FB01EE0FFF1F8E0F9F1FFC019E
:10190000E95EF14F81819281840F951FF7019183E8
:1019100080838881A901480F511D87FD5A95CA010E
:10192000FA01EE0FFF1F8E0F9F1FFC01E95EF14FC2
:10193000808186FF19C08881280F311D87FD3A9567
:10194000F901EE0FFF1F2E0F3F1FF901E95EF14F66
:10195000808161E08F73DF91CF911F910F91FF9094
:10196000EF90DF90CF9015CFDF91CF911F910F9126
:10197000FF90EF90DF90CF900895CF93DF9390E0AA
:10198000FC01E550FB4F2491FC01EB54FB4F84918B
:10199000882361F190E0880F991FFC01E959FB4F02
:1019A000C591D491FC01EF57FB4FA591B491611102
:1019B00009C09FB7F8948881209582238883EC9191
:1019C0002E230BC0623061F49FB7F8943881822FC8
:1019D000809583238883EC912E2B2C939FBF06C088
:1019E0008FB7F894E8812E2B28838FBFDF91CF919A
:1019F00008958230910538F0880F991F880F991F3C
:101A000005970197F1F708958F929F92AF92BF9239
:101A1000CF92DF92EF92FF926B017C010EDE4B01C1
:101A20005C01C114D104E104F104E9F006DEDC013B
:101A3000CB0188199909AA09BB09883E9340A105E1
:101A4000B10578F321E0C21AD108E108F10888EE67
:101A5000880E83E0981EA11CB11CC114D104E104BE
:101A6000F10421F7DECFFF90EF90DF90CF90BF9091
:101A7000AF909F908F9008952FB7F89460911A0DB2
:101A800070911B0D80911C0D90911D0D2FBF08951D
:101A90001F920F920FB60F9211242F933F938F93A3
:101AA0009F93AF93BF9380911A0D90911B0DA091BE
:101AB0001C0DB0911D0D3091190D23E0230F2D3712
:101AC00020F40196A11DB11D05C026E8230F029642
:101AD000A11DB11D2093190D80931A0D90931B0D1C
:101AE000A0931C0DB0931D0D80911E0D90911F0DA4
:101AF000A091200DB091210D0196A11DB11D8093E3
:101B00001E0D90931F0DA093200DB093210DBF913A
:101B1000AF919F918F913F912F910F900FBE0F909A
:101B20001F901895CF92DF92EF92FF92CF93DF93A1
:101B3000EC01603282E078070CF03DC077FD06C012
:101B4000653B71052CF064EB70E002C060E070E072
:101B5000898128E830E06901C81AD10887FDD3944B
:101B6000CC0CDD1CCC0CDD1C0D2C000CEE08FF0891
:101B70008A8128E532E0281B310987FD3395220F41
:101B8000331F220F331FC901330FAA0BBB0B9C015C
:101B9000AD012C193D094E095F09DB010E947D58FA
:101BA00024EB30E040E050E00E945758C20ED31EB4
:101BB000E41EF51EB6018881803380F5998148E8DE
:101BC00050E0491B510997FD5395440F551F440F91
:101BD000551F6417750784F09A8128E532E0291BA8
:101BE000310997FD3395220F331F220F331FAB01AD
:101BF000261737070CF4A90142505109440F551F0D
:101C00002FB7F89490E0FC01EE0FFF1F8E0F9F1F7F
:101C1000FC01E95EF14F528341832FBFDF91CF91E9
:101C2000FF90EF90DF90CF9008951F93CF93DF93B5
:101C3000EC01162F8881803308F04DC061E0812FC0
:101C40009CDE8881E82FF0E09F01220F331FE20F16
:101C5000F31FE95EF14F1F739081907C192B108365
:101C600019821A826CE00E9498599CE0899FB00109
:101C7000112440E050E09A01260F371FF901EE0FC2
:101C8000FF1F2E0F3F1FF901E95EF14F908196FD76
:101C900016C04F5F5F4F4C30510569F7813001F539
:101CA0001092800082E08093810010928500109253
:101CB0008400B19A80916F00826080936F00E88108
:101CC000F0E0CF01880F991FE80FF91FE95EF14F8F
:101CD0008081806480838881DF91CF911F910895F6
:101CE000823061F4109290008093910010929500E0
:101CF0001092940088BB80937100E1CF833069F427
:101D00001092A00082E08093A1001092A500109292
:101D1000A40089BB80937200D2CF8111D0CF1092E2
:101D2000200182E08093210110922501109224016C
:101D30008ABB80937300C3CF1F920F920FB60F928E
:101D400011240BB60F922F933F934F935F936F9392
:101D50007F938F939F93AF93BF93EF93FF9348E24B
:101D600051E064E271E080E090E042DDFF91EF91AC
:101D7000BF91AF919F918F917F916F915F914F91A3
:101D80003F912F910F900BBE0F900FBE0F901F90A1
:101D900018951F920F920FB60F9211240BB60F9247
:101DA0002F933F934F935F936F937F938F939F9363
:101DB000AF93BF93EF93FF9348EA50E064EA70E07B
:101DC00083E090E015DDFF91EF91BF91AF919F917E
:101DD0008F917F916F915F914F913F912F910F90D4
:101DE0000BBE0F900FBE0F901F9018951F920F9271
:101DF0000FB60F9211240BB60F922F933F934F9370
:101E00005F936F937F938F939F93AF93BF93EF9362
:101E1000FF9348E950E064E970E082E090E0E8DC9C
:101E2000FF91EF91BF91AF919F918F917F916F91B2
:101E30005F914F913F912F910F900BBE0F900FBE6E
:101E40000F901F9018951F920F920FB60F921124AA
:101E50000BB60F922F933F934F935F936F937F93A4
:101E60008F939F93AF93BF93EF93FF9348E850E016
:101E700064E870E081E090E0BBDCFF91EF91BF91FE
:101E8000AF919F918F917F916F915F914F913F9112
:101E90002F910F900BBE0F900FBE0F901F901895B3
:101EA000EF92FF920F931F93CF93DF938C01F62E47
:101EB000EA01EFB6F8948091140D811123C0EAEE87
:101EC000F4E09491E0E3F5E08491E92FF0E0EE0F87
:101ED000FF1FE959FB4FA591B491EC91E82319F448
:101EE00061E085E356DC61E085E347DD8CB5806128
:101EF0008CBD8CB580648CBD61E084E33EDD61E027
:101F000083E33BDD8091140D8F5F8093140DEFBE52
:101F10008DE58CBD81E08DBD60E0F801828539DC06
:101F20008F2D8BD7F80184838F2D90E0880F892F18
:101F3000881F990B892B49F08B817FD78A817DD7A8
:101F400089817BD7888179D744C00E94053D0E9452
:101F5000053D61E0F80182851CDC60E0F8018285C6
:101F600018DC8F2D6AD780E068D790E0A0E0B0E061
:101F7000BA2FA92F982F882788839983AA83BB8398
:101F800080E05BD7488159816A817B81482B762F1D
:101F9000652F542F4427488359836A837B8380E0CD
:101FA0004CD7488159816A817B81482B762F652FD8
:101FB000542F4427488359836A837B8380E03DD72D
:101FC000488159816A817B81482B488359836A8380
:101FD0007B8361E0F8018285DF91CF911F910F91A2
:101FE000FF90EF90D6CBCF92DF92EF92FF920F93BC
:101FF0001F93AC014A5A5F4F062F660F110B220B3D
:10200000330B980111270027002711272F7733273B
:10201000FA01C080D180E280F380F0E8EF220C2941
:102020001D292E293F29FA0100831183228333833E
:102030006DEE1F910F91FF90EF90DF90CF9030CF1A
:10204000CF92DF92EF92FF920F931F93AC014E5A03
:102050005F4F062F10E020E030E0302F22271127BD
:1020600000270027112722273F70FA01C080D18066
:10207000E280F380F0EFFF220C291D292E293F2951
:10208000FA0100831183228333836CEE1F910F9139
:10209000FF90EF90DF90CF9003CF6031710529F171
:1020A00070F46230710539F118F4672B31F108953D
:1020B00064307105F1F068307105C9F0089560343D
:1020C000710579F020F46032710569F00895603887
:1020D000710529F06115714091F460E00FC061E075
:1020E0000DC062E00BC063E009C064E007C065E0BA
:1020F00005C066E003C067E001C068E0A1CF0895B5
:10210000CF92DF92EF92FF920F931F93AC014E5A42
:102110005F4F062F10E020E030E067E0000F111F56
:10212000221F331F6A95D1F70078177022273327B3
:10213000FA01C080D180E280F380E894C7F8F8EF1C
:10214000DF220C291D292E293F29FA010083118342
:10215000228333836CEE1F910F91FF90EF90DF90FD
:10216000CF909ECE0F931F93AC014E5A5F4F6F706E
:10217000FA010081118122813381007F062B0083C7
:102180001183228333836CEE1F910F9189CEFC0162
:1021900042A353A364A375A3AC014E5D5F4F65E9F1
:1021A0007FCEFC01468F578F60A371A3AC01425EC6
:1021B0005F4F64E975CECF93DF93EC01AC01425FD2
:1021C0005F4F60E86DDEAE014E5E5F4F60E9CE01AD
:1021D00067DEAE014A595F4FFA0180819181A28189
:1021E000B3819927AA27BB2780839183A283B383D6
:1021F00061E9CE0155DEAE01465E5F4F63E9CE0177
:102200004FDE4E8D5F8D68A179A1CE01CADF4AA154
:102210005BA16CA17DA1CE01BADFAE014A5D5F4F2B
:102220006DEACE013DDEAE01465D5F4F63EBCE0150
:1022300037DEAE014E5A5F4F6CEECE0131DEAE019D
:102240004A5A5F4F6DEECE012BDEAE01425A5F4F10
:1022500060EFCE0125DEAE0146595F4FFA01808165
:102260009181A281B3819927AA27BB27808391837B
:10227000A283B38362EFCE01DF91CF9111CECF93D2
:10228000DF93EC0168EC70E080E090E0BDDB8E81D4
:102290009F818F3F2FEF920729F061E06EDB61E0B5
:1022A0008E8177DA8C859D858F3F2FEF920711F015
:1022B00061E063DB888599858F3F2FEF920729F0D6
:1022C00061E05BDB60E0888564DA61E08A8555DB8C
:1022D00061E08A855EDACE016EDF68E0CE0142DF22
:1022E000CE01DF91CF910C946C3E603E710508F0F9
:1022F00041C4FB018827EC57FF4F8F4F0C94A45922
:1023000081E090E0A0E0B0E08093640890936508DD
:10231000A0936608B0936708089510926808109219
:10232000690810926A0810926B08089510926C0860
:1023300010926D0810926E0810926F08089581E057
:1023400090E0A0E0B0E08093700890937108A093B3
:102350007208B0937308089510927408109275086B
:102360001092760810927708089583E090E0A0E03C
:10237000B0E08093780890937908A0937A08B0939E
:102380007B08089588E790E0A0E0B0E08093900893
:1023900090939108A0939208B0939308089588E7CA
:1023A00090E0A0E0B0E08093940890939508A0930B
:1023B0009608B0939708089588E790E0A0E0B0E011
:1023C0008093980890939908A0939A08B0939B08DB
:1023D00008951092A0081092A1081092A2081092DD
:1023E000A30808951092A4081092A5081092A608B8
:1023F0001092A708089581E090E0A0E0B0E08093FB
:10240000A8089093A908A093AA08B093AB080895D0
:102410001092AC081092AD081092AE081092AF085E
:1024200008951092B0081092B1081092B20810925C
:10243000B30808951092B4081092B5081092B60827
:102440001092B70808951092B8081092B908109227
:10245000BA081092BB0808951092BC081092BD08EB
:102460001092BE081092BF0808951092C0081092F2
:10247000C1081092C2081092C30808951092C808AB
:102480001092C9081092CA081092CB0808951092B1
:10249000CC081092CD081092CE081092CF08089563
:1024A0001092D0081092D1081092D2081092D3083E
:1024B00008951092E0081092E1081092E20810923C
:1024C000E30808951092E4081092E5081092E608D7
:1024D0001092E70808951092E8081092E908109207
:1024E000EA081092EB08089581E090E0A0E0B0E0E7
:1024F0008093F4089093F508A093F608B093F7083A
:10250000089581E090E0A0E0B0E08093F808909317
:10251000F908A093FA08B093FB0808958CE291E0C3
:10252000A0E0B0E08093080990930909A0930A09FC
:10253000B0930B0908958CE291E0A0E0B0E08093A5
:102540000C0990930D09A0930E09B0930F090895FB
:102550008CE291E0A0E0B0E0809310099093110923
:10256000A0931209B09313090895109218091092BC
:10257000190910921A0910921B09089510921C094A
:1025800010921D0910921E0910921F0908951092B1
:10259000200910922109109222091092230908950E
:1025A00010923009109231091092320910923309B9
:1025B000089510923409109235091092360910923C
:1025C0003709089581E090E0A0E0B0E080933809F9
:1025D00090933909A0933A09B0933B09089585E097
:1025E00090E0A0E0B0E08093400990934109A0936F
:1025F0004209B0934309089585E090E0A0E0B0E07F
:102600008093440990934509A0934609B0934709E4
:10261000089589E190E0A0E0B0E0809348099093AC
:102620004909A0934A09B0934B09089582E390E0C9
:10263000A0E0B0E08093580990935909A0935A09FB
:10264000B0935B09089582E390E0A0E0B0E080934E
:102650005C0990935D09A0935E09B0935F090895AA
:1026600082E390E0A0E0B0E080936009909361097C
:10267000A0936209B0936309089582E390E0A0E01B
:10268000B0E08093680990936909A0936A09B093B8
:102690006B09089582E390E0A0E0B0E080936C09BC
:1026A00090936D09A0936E09B0936F09089582E32A
:1026B00090E0A0E0B0E08093700990937109A0933E
:1026C0007209B0937309089580E991E0A0E0B0E049
:1026D0008093800990938109A0938209B093830924
:1026E000089580E991E0A0E0B0E0809384099093A0
:1026F0008509A0938609B0938709089580E991E040
:10270000A0E0B0E08093880990938909A0938A099A
:10271000B0938B090895109290091092910910922C
:1027200092091092930908951092940910929509B4
:102730001092960910929709089510929809109294
:10274000990910929A0910929B0908951092A80A6B
:102750001092A90A1092AA0A1092AB0A0895109238
:10276000AC0A1092AD0A1092AE0A1092AF0A089508
:102770001092B00A1092B10A1092B20A1092B30AE3
:10278000089588E592E0A0E0B0E08093A8099093D6
:10279000A909A093AA09B093AB09089588E592E02E
:1027A000A0E0B0E08093AC099093AD09A093AE098E
:1027B000B093AF09089588E592E0A0E0B0E080937F
:1027C000B0099093B109A093B209B093B3090895E9
:1027D0008EE190E0A0E0B0E08093B8099093B90951
:1027E000A093BA09B093BB0908958EE190E0A0E0F0
:1027F000B0E08093BC099093BD09A093BE09B0934B
:10280000BF0908958EE190E0A0E0B0E08093C00998
:102810009093C109A093C209B093C309089510927F
:10282000D0091092D1091092D2091092D3090895BB
:102830001092D4091092D5091092D6091092D70996
:1028400008951092D8091092D9091092DA091092BD
:10285000DB0908951092F8091092F9091092FA090B
:102860001092FB0908951092FC091092FD09109234
:10287000FE091092FF0908951092000A1092010AB1
:102880001092020A1092030A08951092080A1092F8
:10289000090A10920A0A10920B0A089510920C0A63
:1028A00010920D0A10920E0A10920F0A08951092BB
:1028B000100A1092110A1092120A1092130A089527
:1028C00085E090E0A0E0B0E08093200A9093210A98
:1028D000A093220AB093230A089585E090E0A0E037
:1028E000B0E08093240A9093250AA093260AB0931F
:1028F000270A089585E090E0A0E0B0E08093280AE0
:102900009093290AA0932A0AB0932B0A089584EB86
:1029100095E1A0E0B0E08093300A9093310AA09353
:10292000320AB093330A089584EB95E1A0E0B0E059
:102930008093340A9093350AA093360AB093370AED
:10294000089584EB95E1A0E0B0E08093380A90937D
:10295000390AA0933A0AB0933B0A089585E090E0C3
:10296000A0E0B0E08093480A9093490AA0934A0AF5
:10297000B0934B0A089585E090E0A0E0B0E080932A
:102980004C0A90934D0AA0934E0AB0934F0A0895B3
:1029900085E090E0A0E0B0E08093500A9093510A67
:1029A000A093520AB093530A08951092580A1092B5
:1029B000590A10925A0A10925B0A089510925C0A02
:1029C00010925D0A10925E0A10925F0A08951092AA
:1029D000600A1092610A1092620A1092630A0895C6
:1029E0001092700A1092710A1092720A1092730A71
:1029F00008951092740A1092750A1092760A109235
:102A0000770A08951092780A1092790A10927A0A39
:102A100010927B0A08951092880B1092890B1092E5
:102A20008A0B10928B0B08958CE390E0A0E0B0E04D
:102A300080938C0B90938D0BA0938E0BB0938F0B88
:102A4000089581E090E0A0E0B0E08093900B909337
:102A5000910BA093920BB093930B08951092980B47
:102A60001092990B10929A0B10929B0B08958CE385
:102A700090E0A0E0B0E080939C0B90939D0BA0931E
:102A80009E0BB0939F0B089581E090E0A0E0B0E032
:102A90008093A00B9093A10BA093A20BB093A30BD8
:102AA00008951092B00B1092B10B1092B20B1092CD
:102AB000B30B08958CE390E0A0E0B0E08093B40BFA
:102AC0009093B50BA093B60BB093B70B089581E02C
:102AD00090E0A0E0B0E08093B80B9093B90BA09386
:102AE000BA0BB093BB0B08951092C00B1092C10BA0
:102AF0001092C20B1092C30B08958CE390E0A0E0FB
:102B0000B0E08093C40B9093C50BA093C60BB09319
:102B1000C70B089581E090E0A0E0B0E08093C80B7F
:102B20009093C90BA093CA0BB093CB0B089510924E
:102B3000D80B1092D90B1092DA0B1092DB0B089580
:102B40008CE390E0A0E0B0E08093DC0B9093DD0B91
:102B5000A093DE0BB093DF0B089581E090E0A0E03E
:102B6000B0E08093E00B9093E10BA093E20BB09365
:102B7000E30B0895660F771F660F771FFB01EC5973
:102B8000F74F108211821282138208954F925F9242
:102B90006F927F928F929F92AF92BF92CF92DF926D
:102BA000EF92FF92CF93DF935B01EB01CC0FDD1F20
:102BB000CE010E941F58482E512C612C712CCE0141
:102BC00001960E941F58C82ED12CE12CF12C8DE8C3
:102BD000A81AB10883E0A816B10488F5CE0144967E
:102BE0000E941F58882E912CA12CB12CCE01459605
:102BF0000E941F58482F50E060E070E08FEF881669
:102C00009104A104B104A9F44F3F51056105710578
:102C100081F48FEF481651046104710481F48FEF41
:102C2000C816D104E104F10451F46FEF7FEFCB013A
:102C30002BC040385105610571056CF0F6CF80E876
:102C4000C816D104E104F10484F740E050E0BA0171
:102C5000812C912C5401FE2CED2CDC2CCC24C40CAA
:102C6000D51CE61CF71C540199248824C80CD91CD7
:102C7000EA1CFB1C742F662755274427CB01BA0199
:102C80006C0D7D1D8E1D9F1DDF91CF91FF90EF90EC
:102C9000DF90CF90BF90AF909F908F907F906F907C
:102CA0005F904F900895FC018EEA97E4A1EEBDE39A
:102CB00080839183A283B38315828FEF9FEF9783E5
:102CC0008683918780877387628795878487168636
:102CD0001786108A118A128A138A148A158A168A0C
:102CE000178A108E118E128E138E148E158E168EDC
:102CF000178E10A211A212A213A214A215A216A23C
:102D000017A210A611A612A613A614A615A684E54E
:102D100095EBAAEABAEA86A797A7A0ABB1AB8AEA75
:102D200094E5A5E9BAE482AB93ABA4ABB5AB89E279
:102D300099E2A9E4B4E286AB97ABA0AFB1AF82E26F
:102D400092E4A0E1B0E182AF93AFA4AFB5AFDF01F1
:102D5000DE964FEF5FEF6FEF7BEF4D935D936D93DB
:102D60007C93139714964DE757E76BEB75EB4D93F8
:102D70005D936D937C931397149646E555E569E250
:102D800079E44D935D936D937C931397149642E28F
:102D900052E460E470E04D935D936D937C931397E0
:102DA000149646E550E86FEF7FEF4D935D936D937A
:102DB0007C93139714961D921D921D921C9213974B
:102DC00014961D921D921D921C92139714961D929B
:102DD0001D921D921C921397149640E854E065E0F2
:102DE00070E04D935D936D937C93139714961D92B1
:102DF0001D921D921C92139714961D921D921D9266
:102E00001C92139714961D921D921D921C9213975B
:102E100014961D921D921D921C921397149640E0D9
:102E200050E067EF70E04D935D936D937C93139743
:102E3000EA58FF4F1182108208958EBD00000DB434
:102E400007FEFDCF8EB508951F920F920FB60F9219
:102E500011240BB60F922F933F934F935F936F9371
:102E60007F938F939F93AF93BF93EF93FF93E0E094
:102E7000F0E01995FF91EF91BF91AF919F918F91E4
:102E80007F916F915F914F913F912F910F900BBE6A
:102E90000F900FBE0F901F9018958091280D909164
:102EA000290D892B41F481E090E00E945C519093C0
:102EB000290D8093280D8091280D9091290D08955A
:102EC000EF92FF920F931F93CF93DF93162F072F4D
:102ED0007A014115510559F4862F0E94A10B31E06A
:102EE00020E0019709F030E0C32FD22F26C04130F7
:102EF000510509F5262F663310F02AEC260F809134
:102F00007B00922F9870877F892B80937B0027709E
:102F1000206420937C0080917A00806480937A0002
:102F200080917A0086FDFCCFC09178008091790075
:102F3000D0E0D82B02C0C0E0D0E082E0E816F10477
:102F400010F582E296E00E94BE3B85E196E00E9489
:102F5000BE3B86E296E00E94BE3B812F902F0E94EE
:102F6000313C85E196E00E94BE3B8BE995E00E94F2
:102F7000BE3BCE010E94313C0E94A5060E94AF05D7
:102F800080E090E002C081E090E0DF91CF911F915E
:102F90000F91FF90EF9008950F931F93CF93DF93BE
:102FA0008B01EA01AB01415051094433510508F04E
:102FB000D4C02230310508F0D0C048E3429FF00170
:102FC000439FF00D1124E60FF71FE80FF91F81E072
:102FD0008083232B11F46C2F07C061E0802F0E94A7
:102FE000BD0C209739F460E0802F0E94C90B80E06F
:102FF00090E0B5C0CF3FD10509F4ADC0F801EF5D59
:10300000FB4FE4918E2F90E0FC013197E231F10506
:1030100008F09DC08827EC59FE4F8F4F0C94A4599F
:1030200084B5806884BDC7BDE2CF84B5806284BDAD
:10303000C8BDDDCF80918000806880938000D093F0
:103040008900C0938800D3CF8091800080628093F4
:103050008000D0938B00C0938A00C9CF80918000FC
:10306000886080938000D0938D00C0938C00BFCF88
:103070008091B00080688093B000C093B300B7CF58
:103080008091B00080628093B000C093B400AFCF55
:1030900080919000806880939000D0939900C093B5
:1030A0009800A5CF80919000806280939000D0938B
:1030B0009B00C0939A009BCF809190008860809382
:1030C0009000D0939D00C0939C0091CF8091A00070
:1030D00080688093A0008091A0008F7B8093A000E7
:1030E000D093A900C093A80082CF8091A0008062F5
:1030F0008093A000D093AB00C093AA0078CF8091BA
:10310000A00088608093A000D093AD00C093AC0075
:103110006ECF80912001806880932001D093290197
:10312000C093280164CF80912001806280932001A8
:10313000D0932B01C0932A015ACF8091200188603F
:1031400080932001D0932D01C0932C0150CFC03823
:10315000D1050CF448CF61E047CF81E090E0DF91EA
:10316000CF911F910F9108958091240D9091250D7D
:10317000892BA1F480E790E00E945C51FC01F99654
:103180009C0123593F4FDF01D8971C921192E217FF
:10319000F307C9F79093250D8093240D8091240D9A
:1031A0009091250D08950F931F93CF93DF93FC010A
:1031B0002081318121153105D1F1EC01822F0E944E
:1031C000A10B21E0892B09F420E02B876A852617C3
:1031D00029F01E821F82188619860BC08E819F815E
:1031E000A885B9850196A11DB11D8E839F83A887EF
:1031F000B9870E811F81288539858A819B81AC81A1
:10320000BD81081719072A073B078CF081E0682762
:1032100088810E94C90B0990D881C02DA5DF40E0AC
:1032200050E0BE01DF91CF911F910F9149CEDF9108
:10323000CF911F910F910895683571050CF05BC017
:10324000653571050CF09EC0603371059CF56D32DB
:1032500071050CF097C06C317105FCF46931710592
:103260000CF090C06E3071058CF46B3071050CF071
:1032700089C06115710509F485C077FD81C0625070
:1032800071096430710508F07BC07CC06F50710912
:103290006930710508F074C075C0663271053CF480
:1032A000643271050CF06EC06F51710966C06952CD
:1032B000710963C0643471058CF4613471050CF0DC
:1032C00061C06A3371053CF4673371050CF05AC074
:1032D0006353710952C06D5371094FC06E3471054B
:1032E0003CF46B3471050CF04DC06754710945C056
:1032F0006155710942C06638710514F5633871056E
:103300000CF040C0623771057CF46F367105D4F55E
:103310006836710534F465367105A4F56B5571098D
:103320002CC06956710929C06C37710534F46937AE
:10333000710544F56357710920C06D5771091DC0AF
:10334000603D71057CF46D3C7105E4F464397105F0
:1033500034F461397105B4F46D5871090EC0695CBB
:1033600071090BC06A3D710534F4673D710554F471
:10337000635D710902C06D5D71096330710510F004
:1033800080E0089581E008950F931F93CF93DF931A
:103390008C01C0E0D0E0BE01C8014EDF882321F0DF
:1033A000BE01C8010E9475112196C13ED10599F751
:1033B000DF91CF911F910F910895EF92FF920F939C
:1033C0001F93CF93DF9300D01F92CDB7DEB78B0151
:1033D0007B01EE0CFF1C622FC70129833A834B83CC
:1033E0005C830E94275829813A814B815C8199270F
:1033F00057FD9A95852F742F632FC70101960E9460
:1034000027580D58110929813A814B815C8103307D
:103410001105A8F4BA01992777FD9095892FC70166
:1034200044960E94275829813A814B815C81652FFF
:10343000772788279927C70145960E94275880E05B
:1034400090E00F900F900F900F90DF91CF911F9110
:103450000F91FF90EF900895CF92DF92EF92FF923D
:10346000CF93DF93EB01E8DE882359F1FE01EE0FE5
:10347000FF1FEE0FFF1FEC59F74FC080D180E28095
:10348000F38088E296E00E94BE3B85E196E00E94D0
:10349000BE3B86E296E00E94BE3BCE010E94313CDC
:1034A00085E196E00E94BE3B8BE995E00E94BE3B21
:1034B000C701B6010E940A3C0E94A5060E94AF0502
:1034C00004C08DE995E00E94BE3B80E090E0DF9172
:1034D000CF91FF90EF90DF90CF9008950F931F93BF
:1034E000CF93DF938C01C0E0D0E0BE01C801A4DE21
:1034F000882319F0BE01C801AFDF2196C13ED10576
:10350000A1F7DF91CF911F910F910895EF92FF9254
:103510000F931F93CF93DF938091220D9091230DF2
:10352000892B09F065C084E090E00E945C51EC01B9
:1035300060E070E02BDB16161706F4F0CE0124DFF6
:1035400094E6E92E98E0F92E00E010E0B801CE01F3
:1035500073DE882341F0F70120813181428153815C
:10356000B801CE012ADF0F5F1F4FF4E0EF0EF11C10
:103570000639110559F738C063E070E0CE0106DB6B
:10358000613071058105910569F584E6E82E88E0D2
:10359000F82E00E010E0B801CE014EDE8823C9F01D
:1035A000B801CE01F3DAF7016083718382839383DC
:1035B0006F3F7F4F8F4F9F4F61F4B801CE010E9444
:1035C0007511F7012081318142815381B801CE010B
:1035D000F4DE0F5F1F4FF4E0EF0EF11C013E11050A
:1035E000D1F602C0CE01D0DED093230DC093220DC0
:1035F0008091220D9091230DDF91CF911F910F911A
:10360000FF90EF900895CF92DF92EF92FF920F9389
:103610001F93CF93DF937C016B018A01E90176DF71
:10362000F601EE0FFF1FEE0FFF1FEC59F74F8081E1
:103630009181F7019183808369DF000F111F000FD3
:10364000111FF801EC59F74F81E0408151816281EF
:103650007381413051056105710509F080E0F70182
:10366000828754DFCC0FDD1FCC0FDD1FCC59D74F25
:1036700088819981AA81BB81F70182839383A48386
:10368000B5831682178210861186DF91CF911F9124
:103690000F91FF90EF90DF90CF900895CF93DF933D
:1036A000EC012AEC30E04BEC50E069EC70E0ABDF71
:1036B0002EEC30E04FEC50E06DEC70E0CE010C965B
:1036C000A2DF24ED30E045ED50E063ED70E0CE0187
:1036D000489699DF28ED30E049ED50E067ED70E065
:1036E000CE01849690DF2EED30E04FED50E06DED91
:1036F00070E0CE01C096DF91CF9185CFCF93DF935D
:103700008091260D9091270D892BE9F48CE390E0B0
:103710000E945C51EC01FC01CC96118210823C9617
:10372000E817F907D1F7198218821D861C86198EB1
:10373000188E1DA21CA219AA18AACE01AFDFD09321
:10374000270DC093260D8091260D9091270DDF91B6
:10375000CF9108952F923F924F925F926F927F92F6
:103760008F929F92AF92BF92CF92DF92EF92FF9291
:103770000F931F93CF93DF93CDB7DEB7EA970FB6C2
:10378000F894DEBF0FBECDBF1C012A013B010B87A1
:103790001C872D873E8762960EAD1FAD6297FC0198
:1037A000EB54FD4F60817181828193810E940C579F
:1037B0009B01AC01C301B2010E946B570E945F598B
:1037C0006B8B7C8B8D8B9E8BF101E754FD4F608161
:1037D0007181828193810E940C579B01AC016B85A2
:1037E0007C858D859E850E946B570E945F596B8FEB
:1037F0007C8F8D8F9E8FF101E354FD4F608171812D
:10380000828193810E940C579B01AC01C701B601D4
:103810000E946B570E945F596F8F78A389A39AA368
:103820000E943C0D6B877C878D879E87F101EA5C47
:10383000FD4F118210823296118210823E96A114A1
:10384000B10461F0C501A0E0B0E040815181628126
:10385000738184179507A607B70714F0A080B1807D
:10386000F101E65BFD4F8114910461F0C401A0E019
:10387000B0E0408151816281738184179507A6076A
:10388000B70714F080809180F101E25BFD4F0115D4
:10389000110561F0C801A0E0B0E040815181628172
:1038A000738184179507A607B70714F0008111816B
:1038B000310120E1620E711CC501A0E0B0E0F10110
:1038C00086A797A7A0ABB1AB2101F4E94F0E511C1D
:1038D000A12CB12CD2015E968D929D92AD92BC929C
:1038E00091974101B8EE8B1ABEEF9B0A20E030E0C1
:1038F000F401068F178F20A331A30E94A5060E9412
:10390000A5060E94A5060E94A5064091E80B5091CD
:10391000E90B6091EA0B7091EB0B4FAB58AF69AFBD
:103920007AAF0E94A5068091EC0B9091ED0BA091CF
:10393000EE0BB091EF0B8F87988BA98BBA8B0E94FF
:10394000A506A090F00BB090F10BC090F20BD090B8
:10395000F30BF101EF53FD4F10821182128213829B
:103960003496108211821282138234961082118250
:103970001282138234961182108232961182108242
:1039800032961182108232964FA958AD69AD7AAD48
:10399000408351836283738334968F859889A98984
:1039A000BA8980839183A283B3833496A082B18243
:1039B000C282D3826396EFAC63970B891C892D89F1
:1039C0003E89C3010E945C258823F9F080E593E0DD
:1039D0000E94BE3B8FEE95E00E94BE3BF101E85A8B
:1039E000FF4F6081718182819381E35AFD4F208175
:1039F0003181428153810E945758CA01B9010E9406
:103A00000A3C0E94A5060E94AF056496EFAC64973D
:103A10000B8D1C8D2D8D3E8D4F85588969897A8936
:103A2000C2010E945C258823F9F08CE493E00E9497
:103A3000BE3B8FEF95E00E94BE3BF101E452FF4F89
:103A40006081718182819381E352FE4F20813181B7
:103A5000428153810E945758CA01B9010E940A3C11
:103A60000E94A5060E94AF056596EFAC65970F8D85
:103A700018A129A13AA1B601A501C4010E945C25A3
:103A80008823F9F088E493E00E94BE3B8FE096E043
:103A90000E94BE3BF101E05AFE4F6081718182813C
:103AA0009381E35AFE4F20813181428153810E94EC
:103AB0005758CA01B9010E940A3C0E94A5060E94FB
:103AC000AF05D10155961C92F101E756FF4F1082C8
:103AD000EC57FF4F1082C1010E94EF2AC1010E94E2
:103AE000F32AC3010E94BC29C2010E94BC29C4015F
:103AF0000E94BC29F101E35CFD4FFEA3EDA381E030
:103B000090E0918380837101F1ECEF1AFDEFFF0AE1
:103B1000D7018D939C9381010F5B1D4FF801918319
:103B2000808341E050E0B301C1010E94A230D7017F
:103B30004D915C91B201C1010E94A230F801408117
:103B40005181B401C1010E94A23011E0F101EE5D8A
:103B5000FC4F1083C3019BD7C20199D7C40197D7EB
:103B600064E670E080E090E00E94040DC101865C94
:103B70009D4FDC011C9311961C93A101445C5D4F89
:103B8000FA0110836396FFAD6397F1110FC064963D
:103B90002FAD6497211105C065963FAD659733231E
:103BA00039F1910127583F4FF90110826496FFAD1A
:103BB0006497F11105C0910123503F4FF901108224
:103BC0006596FFAD6597F11105C091012F573E4FE6
:103BD000F901108263962FAD6397FC0120836496F0
:103BE0003FAD64973C936596EFAD6597DA01EC9332
:103BF000C3010E940827C2010E940827C4010E9435
:103C00000827C3010E945E26C2010E945E26C401ED
:103C10000E945E260E94A506DC011E968C918F876D
:103C2000A12CB12CF101E65CFD4FFC8BEB8B9101DB
:103C3000255C3D4F3C8F2B8FA101445C5D4F58A309
:103C40004F8FC101835C9D4F9EA78DA7D101A15CC1
:103C5000BD4FB8ABAFA73796FAABE9AB2F5B31409E
:103C600038A72FA34C5351405AA749A7895B910904
:103C70009CA78BA7A65CB140BCA3ABA3E058FF4FA9
:103C8000FCABEBAB21593D4F3EAB2DABEB89FC8937
:103C9000808181110BC0AB8DBC8D8C91811106C0D0
:103CA000EF8DF8A18081882309F4CFC2FF85F1113F
:103CB000CCC24DA55EA5B301C1010E94FB304FA54A
:103CC00058A9B201C1010E94FB3049A95AA9B40107
:103CD000C1010E94FB30C3010E94C826C2010E949C
:103CE000C826C4010E94C826AFA1B8A58C9188231C
:103CF00031F0C3010E940827EFA1F8A51082A9A501
:103D0000BAA58C91882331F0C2010E940827E9A549
:103D1000FAA51082ABA5BCA58C91882331F0C40113
:103D20000E940827EBA5FCA51082ABA1BCA18C9139
:103D30008823C1F1EDA9FEA960817181072E000CD5
:103D4000880B990B0E940C579B01AC01ABA9BCA935
:103D50006D917D918D919C910E949059181614F54A
:103D6000ABA1BCA11C9261E275E08101045D1D4F15
:103D7000C8010E945A3F6AE676E0C8010E945A3F95
:103D80006EE175E0C8010E945A3F6396BFAD63972C
:103D9000BB2309F45FC3F101EC5AFF4F108211827B
:103DA00012821382810103501F4FF8018081882302
:103DB000C1F1E051FE4F60817181072E000C880B2C
:103DC000990B0E940C579B01AC01F101EB53FD4F85
:103DD00060817181828193810E94905918160CF53F
:103DE000F801108261E275E08101045D1D4FC80198
:103DF0000E945A3F62E976E0C8010E945A3F6EE194
:103E000075E0C8010E945A3F6496FFAD6497FF2396
:103E100009F424C3F101E852FF4F1082118212828B
:103E2000138281010F571E4FD8018C918823C9F14D
:103E3000F101E151FD4F60817181072E000C880B6B
:103E4000990B0E940C579B01AC01F101E753FD4F08
:103E500060817181828193810E94905918160CF5BE
:103E6000D8011C9261E275E08101045D1D4FC8011B
:103E70000E945A3F6AEB76E0C8010E945A3F6EE109
:103E800075E0C8010E945A3F6596BFAD6597BB2398
:103E900009F4E8C2F101E45AFE4F10821182128245
:103EA000138260E0C30183D6882339F0F101EC5A14
:103EB000FF4F108211821282138260E0C20177D616
:103EC000882339F0F101E852FF4F108211821282EB
:103ED000138260E0C4016BD6882339F0F101E45A03
:103EE000FE4F1082118212821382EBA1FCA180810D
:103EF000AB89BC898C93F101E350FF4F8081EB8D3E
:103F0000FC8D8083F101EF57FE4F8081AF8DB8A10A
:103F10008C93ED52F14020813181428153812F8376
:103F2000388749875A87EC57FF4F4081518162811A
:103F30007381EC57FF4FC080D180E280F3804FAB9C
:103F400058AF69AF7AAF0E94A5068F819885A98581
:103F5000BA858093E80B9093E90BA093EA0BB0939A
:103F6000EB0B0E94A5064FA958AD69AD7AAD409301
:103F7000EC0B5093ED0B6093EE0B7093EF0B0E94E4
:103F8000A506C092F00BD092F10BE092F20BF092EA
:103F9000F30BC1010E94EF2AAB89BC898C91882365
:103FA00009F44AC00E943C0D2B853C854D855E85F9
:103FB000621773078407950760F40E943C0D2B85F8
:103FC0003C854D855E856217730784079507A0F5CC
:103FD0001EC00E943C0D6B017C012B853C854D85EC
:103FE0005E85C21AD30AE40AF50AF101E755FD4FCE
:103FF0002081318142815381A8EEB3E00E94735841
:104000006C157D058E059F0508F430C2D6CF0E9441
:104010003C0D6B017C01F101E755FD4F20813181A1
:1040200042815381A8EEB3E00E9473586C157D0560
:104030008E059F0508F41AC2AB8DBC8D8C91882328
:1040400009F44AC00E943C0D2B853C854D855E8558
:10405000621773078407950760F40E943C0D2B8557
:104060003C854D855E856217730784079507A0F52B
:104070001EC00E943C0D6B017C012B853C854D854B
:104080005E85C21AD30AE40AF50AF101E355FD4F31
:104090002081318142815381A8EEB3E00E947358A0
:1040A0006C157D058E059F0508F4F6C1D6CF0E94DC
:1040B0003C0D6B017C01F101E355FD4F2081318105
:1040C00042815381A8EEB3E00E9473586C157D05C0
:1040D0008E059F0508F4E0C1AF8DB8A18C918823AF
:1040E00009F44AC00E943C0D2B853C854D855E85B8
:1040F000621773078407950760F40E943C0D2B85B7
:104100003C854D855E856217730784079507A0F58A
:104110001EC00E943C0D6B017C012B853C854D85AA
:104120005E85C21AD30AE40AF50AF101EF54FD4F85
:104130002081318142815381A8EEB3E00E947358FF
:104140006C157D058E059F0508F4BCC1D6CF0E9475
:104150003C0D6B017C01F101EF54FD4F2081318159
:1041600042815381A8EEB3E00E9473586C157D051F
:104170008E059F0508F4A6C184E39DE00E94F20924
:104180001816190684F584E39DE00E94D0098F7DFE
:104190008534910541F56CE276E0C101845D9D4F67
:1041A0000E945A3F8EE893E00E94BE3B0E94A50603
:1041B0000E94AF05ABA1BCA11C92F101E350FF4FDF
:1041C0001082EC57FF4F1082EB89FC891082AB8D77
:1041D000BC8D1C92EF8DF8A11082F1E0FF87AA241C
:1041E000A394B12C03C0A114B10481F061E476E082
:1041F000C101845D9D4F0E945A3FAB89BC891C92CE
:10420000EB8DFC8D1082AF8DB8A11C92C1010E9474
:10421000D543F101E85CFD4F808191810196918346
:1042200080838D3291400CF431CDD101A05DBD4F22
:104230008D919C911197892B09F028CD14968D9121
:104240009C91892B09F454C121CD8101005D1D4F42
:10425000D8018D919C91892B21F0C1010E94D543F9
:10426000F7CF81E596E00E94BE3B6396BFAD6397B2
:10427000BB2309F1A114B104F1F4EF85E11140C0B1
:1042800088E393E00E94BE3B0E94A5060E94AF0512
:104290006496FFAD6497FF2371F184E393E00E947D
:1042A000BE3B0E94A5060E94AF0565962FAD65979F
:1042B000211118C025C064963FAD6497332339F0AF
:1042C000A114B10421F44F8541111AC0E6CF6596BF
:1042D0005FAD65975523A1F0A114B10489F48F85D2
:1042E00081110EC080E393E00E94BE3B0E94A506B0
:1042F0000E94AF0505C06596EFAD6597E111F2CF5D
:1043000085E090E0ADA1BEA18D939C939101215CCD
:104310003D4F3C872B87D9018D939C9381010F5B87
:104320001D4FF8019183808345E050E0B301C10146
:104330000E94A230AB85BC854D915C91B201C10158
:104340000E94A230F80140815181B401C1010E9454
:10435000A230C1010E94F72AF101EC5AFF4F4081BF
:10436000518162817381EC57FF4F80819181A281DD
:10437000B3818F8B988FA98FBA8FEC57FF4FC08076
:10438000D180E280F3804FAB58AF69AF7AAF0E9423
:10439000A5064FA958AD69AD7AAD4093E80B50938F
:1043A000E90B6093EA0B7093EB0B0E94A5062F8933
:1043B000388D498D5A8D2093EC0B3093ED0B409343
:1043C000EE0B5093EF0B0E94A506C092F00BD0921B
:1043D000F10BE092F20BF092F30BC1010E94EF2A75
:1043E000C1010E94F32A0E94A5060E940206C10193
:1043F0000E943331ADA1BEA11D921C92EB85FC85BC
:1044000011821082D8011D921C9240E050E0B3014D
:10441000C1010E94A230EB85FC8540815181B2012F
:10442000C1010E94A230D8014D915C91B401C1013B
:104430000E94A230C1010E94F72ABF85BB2309F464
:104440007FC10E94A50621E0FC012687AA24A3942F
:10445000B12C76C153E0A52EB12CA4CC43E0A42E00
:10446000B12CDFCC33E0A32EB12C1BCD64E473E080
:104470008101045D1D4FC8010E945A3F6EE175E045
:10448000C8010E945A3F62EE76E0C8010E945A3F7E
:1044900022E0A22EB12CD0CD60E473E08101045D56
:1044A0001D4FC8010E945A3F6EE175E0C8010E948D
:1044B0005A3F67EF76E0C8010E945A3F92E0A92E6A
:1044C000B12C0ACE6CE373E08101045D1D4FC8017D
:1044D0000E945A3F6EE175E0C8010E945A3F6CE0AD
:1044E00077E0C8010E945A3F82E0A82EB12C44CE4A
:1044F00011821082F101EA5CFD4F8081918181304F
:10450000910509F0F3C00E94A5068C01FC01808191
:104510009181A281B381181619061A061B0644F070
:1045200081E090E0A0E0B0E080839183A283B38338
:10453000F80184819581A681B781181619061A069B
:104540001B0644F081E090E0A0E0B0E08483958316
:10455000A683B783F80180859185A285B385181657
:1045600019061A061B0644F081E090E0A0E0B0E0D6
:1045700080879187A287B38760E275E0CE010196BC
:104580000E945F446EED75E0CE0101960E945A3F95
:104590006FEE75E0CE0101960E945A3F6091E80BE4
:1045A0007091E90B8091EA0B9091EB0B0E940C57F4
:1045B0006B017C01D8016D917D918D919C910E9440
:1045C0000C579B01AC01C701B6010E94F758AB0123
:1045D000BC01CE0101960E94FB3E6FEF75E0CE015B
:1045E00001960E945A3F6091EC0B7091ED0B809107
:1045F000EE0B9091EF0B0E940C576B017C01F801C0
:1046000064817581868197810E940C579B01AC0162
:10461000C701B6010E94F758AB01BC01CE0101965B
:104620000E94FB3E6FE076E0CE0101960E945A3F69
:104630006091F00B7091F10B8091F20B9091F30B64
:104640000E940C576B017C01D80118966D917D91E9
:104650008D919C911B970E940C579B01AC01C70147
:10466000B6010E94F758AB01BC01CE0101960E9431
:10467000FB3EBE016F5F7F4F8101045D1D4FC8018E
:104680000E94683F89819A810E94F1510AC0892B5A
:10469000C9F46AE873E08101045D1D4FC8010E94FE
:1046A0005A3F0E94A506BC01CE0101960E946905F1
:1046B000BE016F5F7F4FC8010E94683F89819A8168
:1046C0000E94F151F101EA5CFD4F808191810196D8
:1046D000833091051CF49183808302C01182108283
:1046E000F101EC5CFD4F11821082D0CA823091053D
:1046F00071F66DE476E08101045D1D4FC8010E94F2
:104700005A3F6FEE75E0C8010E945A3F60E070E0CA
:10471000C8010E942B3F6FEF75E0C8010E945A3F0D
:1047200060E070E0C8010E942B3F6FE076E0C801B6
:104730000E945A3F60E070E0C8010E942B3FB1CF59
:104740008FE596E00E94BE3BC5010E94313C8EE1A0
:1047500095E00E94BE3B0E94A506B0925F08A09221
:104760005E08C501EA960FB6F894DEBF0FBECDBF56
:10477000DF91CF911F910F91FF90EF90DF90CF903D
:10478000BF90AF909F908F907F906F905F904F9071
:104790003F902F90089508950895EBE0F1E0808117
:1047A000877F80830895EBE0F1E0808188608083DB
:1047B00008958E9808958E9A089514980895149ADD
:1047C000089588980895889A0895CF93DF93EC010F
:1047D0008F81882331F061E089890E94C90B1F8293
:1047E00006C060E089890E94C90B81E08F83DF9158
:1047F000CF910895CF93DF93EC018E81882331F020
:1048000061E08B850E94C90B1E8206C060E08B852B
:104810000E94C90B81E08E83DF91CF91089560E003
:10482000FC0181890C94C90B60E0FC0183850C9428
:10483000C90B61E0FC0181890C94C90B61E0FC01AA
:1048400083850C94C90BAF92BF92CF92DF92EF9207
:10485000FF920F931F93CF93DF9300D01F92CDB79A
:10486000DEB7FC016489758986899789A68CB78C27
:10487000603127E272078105910529F016161706A7
:104880001806190644F02089318942895389D501D7
:104890000E947D5830C08F010E940C5720E030E408
:1048A0004CE156E40E94F7589B01AC01F801608F7F
:1048B000718F828F938F608971898289938929830F
:1048C0003A834B835C830E940C5729813A814B8148
:1048D0005C810E946B576B017C01B501BB0C880B9E
:1048E000990B0E940C579B01AC01C701B6010E94B5
:1048F0006B570E945F590F900F900F900F90DF91B0
:10490000CF911F910F91FF90EF90DF90CF90BF90CC
:10491000AF900895FC0111821082138212821582D9
:1049200014821782168210861186128613861486C8
:10493000158616861786108A118A128A138A108E97
:10494000118E128E138E158E148E178E168E10A247
:1049500011A212A213A214A215A216A217A210A6A7
:1049600011A612A613A614A615A681E090E097A79B
:1049700086A780E197E2A0E0B0E0848B958BA68BC0
:10498000B78B0895CF93DF93EC01FC01ED58FF4FF7
:104990001082379781E0808360E08B850E94C90B8D
:1049A0008D899E89892B31F060E08989DF91CF91D3
:1049B0000C94C90BDF91CF910895CF93DF93EC0155
:1049C000898D0E94A10B2C8D30E08217930711F482
:1049D0008D8D01C080E0DF91CF910895CF93DF935B
:1049E000EC018F890E94A10B2C8D30E08217930778
:1049F00011F48D8D01C080E0DF91CF910895CF93A8
:104A0000DF93EC018BA9882311F061E001C060E025
:104A10008D850E94C90B8CA9882329F08DA9882334
:104A200011F061E001C060E08B89DF91CF910C94BF
:104A3000C90BCF93DF93EC018BA9882311F060E0C1
:104A400001C061E08D850E94C90B8CA9882329F0E3
:104A50008DA9882311F060E001C061E08B89DF91AE
:104A6000CF910C94C90BCF93DF93EC0161E08F855C
:104A70000E94C90B8CA9882321F061E08D890E94D6
:104A8000C90BCF58DF4F1882DF91CF910895CF9394
:104A9000DF93EC0160E08F850E94C90B8CA988230D
:104AA00021F060E08D890E94C90BCF58DF4F81E073
:104AB0008883DF91CF910895CF92DF92EF92FF929A
:104AC0000F931F93CF93DF93FC01DC01A05CBF4FDA
:104AD0004D935D936D937C93139714964D935D93D3
:104AE0006D937C93139714960D931D932D933C9384
:104AF0001397EC01C45BDF4FE88282AD882389F015
:104B000082A9811109C037FF0CC01D921D921D9210
:104B10001C92139781E006C01016110612061306A8
:104B2000A4F380E043AD54AD65AD76AD1416150623
:104B3000160617063CF597AD992321F10D911D91AD
:104B40002D913C9113976801790137FF07C0CC2460
:104B5000DD247601C01AD10AE20AF30A4C155D057C
:104B60006E057F057CF437FF07C070956095509502
:104B700041955F4F6F4F7F4F4D935D936D937C9346
:104B8000139781E0DF01A75ABF4F1D921D921D921E
:104B90001C921397E759FF4F91E09083DF91CF91DB
:104BA0001F910F91FF90EF90DF90CF9008950F939A
:104BB0001F93CF93DF938C01D62FFC01838D81113E
:104BC00009C0C8010BDFC82FC801F7DED11108C02A
:104BD0008C2F06C0C801F1DEC82FC801FFDEF6CF5A
:104BE000DF91CF911F910F910895CF93DF93EC0147
:104BF000FC01ED58FF4F81E0808339978081B697A3
:104C0000882341F080819181A281B3810196A11D09
:104C1000B11D07C080819181A281B3810197A10953
:104C2000B10980839183A283B383FE01EA58FF4FC9
:104C300020813181DE01AC58BF4FC9019595879520
:104C400020FD03C0ED91FC910DC0FE01E80FF91F9E
:104C50000190F081E02D2D913C91E20FF31F019026
:104C6000F081E02D8C0F9D1F19958D899E89892BD0
:104C700011F1FE01E658FF4F20813181DE01A85875
:104C8000BF4FC9019595879520FD03C0ED91FC911B
:104C90000DC0FE01E80FF91F0190F081E02D2D916C
:104CA0003C91E20FF31F0190F081E02D8C0F9D1FCE
:104CB000DF91CF911994DF91CF9108958F929F92B8
:104CC000AF92BF92CF92DF92EF92FF920F931F931A
:104CD000CF93DF93EC01FC01E75AFF4F60817181B4
:104CE000828193810E940A576B017C016EA97FA982
:104CF00088AD99AD0E940C579B01AC0160E074E255
:104D000084E799E40E94F7584B015C01FE01EB59DE
:104D1000FF4F60817181828193810E940A579B01BC
:104D2000AC01C501B4010E94F7584B015C018E0132
:104D3000035A1F4F20E030E040E05FE30E946B57D2
:104D40009B01AC01C701B6010E9493580E946459AF
:104D5000F8016083718382839383CF59DF4FA5016C
:104D60009401C701B6010E9493580E946459688358
:104D700079838A839B83DF91CF911F910F91FF905D
:104D8000EF90DF90CF90BF90AF909F908F9008955D
:104D90000F931F93CF93DF93FC01ED58FF4F2081BA
:104DA0002223B9F07A9700811181228133813896CC
:104DB00040815181628173810417150726073707E7
:104DC00010F1EC01DFDDCE01DF91CF911F910F914A
:104DD00075CFFC01E759FF4F20812223A1F0709786
:104DE0000081118122813381349640815181628119
:104DF0007381041715072607370728F0DF91CF9135
:104E00001F910F91F2CEDF91CF911F910F910895D5
:104E10002F923F924F925F926F927F928F929F92CA
:104E2000AF92BF92CF92DF92EF92FF920F931F93B8
:104E3000CF93DF93CDB7DEB762970FB6F894DEBF9E
:104E40000FBECDBF1C016C012CE4C20ED11CD601DB
:104E50008C91F101E659FF4F7F01910125593F4F98
:104E60004901A1014C5B5F4F5E874D878101085B63
:104E70001F4F882341F0D101D2968C91808381E02D
:104E8000F90180832FC0AD85BE854D915D916D91F7
:104E90007C91F80180819181A281B38121E0481742
:104EA00059076A077B070CF020E0F701208377FFA2
:104EB00007C070956095509541955F4F6F4F7F4F3C
:104EC000B7FF07C0B095A095909581959F4FAF4FC4
:104ED000BF4F21E0481759076A077B070CF420E011
:104EE000D4012C93ED85FE854081518162817381CF
:104EF000411551056105710559F4F10182A193A194
:104F0000A4A1B5A1EB59FF4F80839183A283B38302
:104F1000F80180819181A281B3817101F0E4EF0EEB
:104F2000F11CF70140805180628073809101275904
:104F30003F4F5901481659066A067B0634F4481754
:104F400059076A077B077CF00AC084159505A605FA
:104F5000B7052CF484179507A607B70724F0D601E8
:104F60008C918823D9F0F50180818823B9F0D6018E
:104F70008C91811105C0F601808181110FC006C09E
:104F800060E0C10114DE8111F6CF18C0D4016C912C
:104F900081E06827C1010BDE882381F0D5011C92D6
:104FA00060E0C10104DE882309F4CDC1F101EC5BAE
:104FB000FF4F1082118212821382C5C1D1019A96CD
:104FC0002D913D914D915C919D9729833A834B831F
:104FD0005C835E962D913D914D915C9191972D83CF
:104FE0003E834F83588792962D913D914D915C91D0
:104FF000959729873A874B875C87F8018081918153
:10500000A281B381ED85FE850081118122813381EA
:10501000F7014081518162817381F101E359FF4FB2
:105020001082319610822101FFE64F0E511CF201D1
:1050300010823101F0E76F0E711CF301108232967D
:1050400010824C015D01841A950AA60AB70AB7FEC0
:1050500008C0B094A09490948094811C911CA11CD1
:10506000B11C481759076A077B073CF468017901AE
:10507000C41AD50AE60AF70A06C068017901C81AF7
:10508000D90AEA0AFB0AA501940155954795379577
:1050900027952D873E874F87588B81010E581F4FCC
:1050A000F7FC05C08C149D04AE04BF0454F4D10178
:1050B00096960D90BC91A02DBA8BA98B81E0F3013F
:1050C000BAC02D853E854F8558892C153D054E0566
:1050D0005F0508F454C089819A81AB81BC818C152D
:1050E0009D05AE05BF0564F42D813E812F5F3F4FC6
:1050F0003A8B298B81E0D2018C93F80180839EC08A
:10510000C701B6010E940C572B013C0169817A81CD
:105110008B819C810E940C579B01AC01C301B201A1
:105120000E94F7582B013C016D817E818F8198850B
:1051300029853A854B855C85621B730B840B950B27
:105140000E940C579B01AC01C301B2010E946B5736
:105150002B013C0169857A858B859C850E940C57C3
:105160009B01AC01C301B2010E9493580E945F5998
:105170007A8B698B81E0F101E359FF4F5CC0D50167
:10518000C40129813A814B815C81821B930BA40B62
:10519000B50BC816D906EA06FB065CF42D813E81E4
:1051A0002E5F3F4F3A8B298B81E0F101E159FF4F90
:1051B00042C0C501B4016C197D098E099F090E9486
:1051C0000C572B013C0169817A818B819C810E9463
:1051D0000C579B01AC01C301B2010E94F7582B018F
:1051E0003C016D817E818F81988529853A854B852B
:1051F0005C85621B730B840B950B0E940C579B0103
:10520000AC01C301B2010E946B572B013C016985BF
:105210007A858B859C850E940C579B01AC01C3014C
:10522000B2010E9493580E945F597A8B698B81E08A
:10523000F101E259FF4F8083D8018C93F1018285FF
:105240008823B1F00E943C0DD10118960D911C915C
:105250001997012E000C220B330BDC01CB01801BB4
:10526000910BA20BB30B893E9340A105B10568F4E5
:10527000F101EB59FF4F29893A89C901A0E0B0E05B
:1052800080839183A283B3838BCE0E943C0DD10196
:1052900019967C936E93189781E295E00E94BE3B2D
:1052A00081E297E00E94BE3B60E070E0CB010E948B
:1052B0000A3C87E297E00E94BE3BC701B6010E940C
:1052C0000A3C8DE297E00E94BE3BC501B4010E94FA
:1052D0000A3C83E397E00E94BE3B4AE06D857E85F1
:1052E0008F8598890E94BF3B8AE397E00E94BE3B6E
:1052F00069817A818B819C810E940A3C80E497E0DD
:105300000E94BE3B69857A858B859C850E940A3CFC
:1053100086E497E00E94BE3B6D817E818F819885F7
:105320000E940A3C8CE497E00E94BE3B85E196E037
:105330000E94BE3B89899A890E94313C8EE195E0AA
:105340000E94BE3B95CF62960FB6F894DEBF0FBEAB
:10535000CDBFDF91CF911F910F91FF90EF90DF9024
:10536000CF90BF90AF909F908F907F906F905F9005
:105370004F903F902F9008950F931F93FC01E45B93
:10538000FF4F2081211110C03897008111812281A7
:1053900033813496408151816281738104171507EE
:1053A0002607370744F404C0FC0122A9222319F080
:1053B0001F910F913ECB1F910F9121CBFC01848156
:1053C000883569F48091300D9091310D91838083FF
:1053D00080912E0D90912F0D938382830FC089357C
:1053E00029F480912C0D90912D0D06C08A3531F451
:1053F00080912A0D90912B0D91838083DF01AC5811
:10540000BF4F8AEF93E211969C938E93129611965A
:105410001C921E92129685EE93E211969C938E93A7
:10542000129611961C921E9212968CEC93E2119693
:105430009C938E93129611961C921E9212968BEC50
:1054400093E28D939C93EE57FF4F11821082089543
:10545000FC0181E0868387831186108612868CE2A8
:1054600091E0A0E0B0E0868F978FA0A3B1A342E3C4
:1054700050E060E070E042A353A364A375A346A389
:1054800057A360A771A782A793A7A4A7B5A788E78A
:1054900090E0A0E0B0E086A797A7A0ABB1AB12AABE
:1054A00013AA14AA15AA84E690E0A0E0B0E086ABA7
:1054B00097ABA0AFB1AF12AE13AE14AE15AE16AE31
:1054C00017AEDF01A05CBF4F1D921D921D921C9272
:1054D000139714961D921D921D921C921397149669
:1054E0001D921D921D921C92139714961C92119658
:1054F0001D921D921D921C92139714961D921D923F
:105500001D921C92139714961D921D921D921C922F
:10551000139714961D921D921D921C921397149628
:105520001D921D921D921C92139714961D921D920E
:105530001D921C92139714961D921D921D921C92FF
:10554000139714961C9211961C9211961C92119608
:105550001C9211961C9211961C9211961C921196F7
:105560001C9211961C9211961C9211961C921486F4
:10557000138616861586108A1786128A118A148A4F
:10558000138A168A158A108E178A128E118E11961A
:105590008EE194E211969C938E93129611961C9232
:1055A0001E92129689E194E211969C938E93129624
:1055B00011961C921E92129684E194E211969C938D
:1055C0008E93129611961C921E9212968FE094E280
:1055D0008D939C93EE57FF4F1182108208950E9485
:1055E000A5060C9451090E94A5060C94C105CF9301
:1055F000DF93EC01FC01EE5DFC4F1082EE58F109E7
:105600008081811103C0CE0140962DDAFE01EB5658
:10561000FD4F8081811104C0CE018C569F4F23DA4B
:10562000FE01EA56FD4F8081811104C0CE01885EE3
:105630009E4F19DA64E670E080E090E0DF91CF9150
:105640000C94040D2F923F924F925F926F927F9233
:105650008F929F92AF92BF92CF92DF92EF92FF9282
:105660000F931F93CF93DF93EC010E94861AFE01E4
:10567000E551FD4F8091200A9091210A918380830A
:105680000E94861AFE01E351FD4F8091240A9091F9
:10569000250A918380830E94861AFE01E151FD4F05
:1056A0008091280A9091290A918380830E94861A0A
:1056B0008E010F501D4F6091480A7091490A8091E8
:1056C0004A0A90914B0A0E940C57F801608371833B
:1056D000828393830E94861A1E01FBE02F1AFDEF3E
:1056E0003F0A60914C0A70914D0A80914E0A909148
:1056F0004F0A0E940C57F101608371838283938368
:105700000E94861A20E030E048EC52E4F801608103
:105710007181828193810E94F7582B013C0120E026
:1057200030E048EC52E4F101608171818281938123
:105730000E94F7584B015C016091500A7091510A28
:105740008091520A9091530A0E940C5720E030E059
:1057500048EC52E40E94F7586B017C012AE037EDD7
:1057600043E25CE3C301B2010E94905918168CF425
:1057700020E030E046EC52E4C301B2010E9406573B
:1057800087FD0FC0412C512C46EC642E42E4742E50
:1057900008C05AE0452E57ED552E53E2652E5CE3C6
:1057A000752EF80140825182628273822AE037EDC1
:1057B00043E25CE3C501B4010E94905918168CF4D1
:1057C00020E030E046EC52E4C501B4010E940657E7
:1057D00087FD0FC0812C912C26ECA22E22E4B22E44
:1057E00008C03AE0832E37ED932E33E2A32E3CE33C
:1057F000B32EF10180829182A282B3822AE037ED3A
:1058000043E25CE3C701B6010E94905918168CF47C
:1058100020E030E046EC52E4C701B6010E94065792
:1058200087FD0FC0C12CD12C86ECE82E82E4F82E27
:1058300008C09AE0C92E97EDD92E93E2E92E9CE399
:10584000F92EFE01E750FD4FC082D182E282F38241
:105850000E94861A8091080A9091090AFE01FD5F54
:10586000918380830E94861A80910C0A90910D0A80
:10587000FE01EE5FFC4F918380830E94861A809127
:10588000100A9091110AFE01EC5FFC4F9183808316
:105890000E94861A8091300A9091310AA091320AB2
:1058A000B091330AFE01EA5FFC4F80839183A283AB
:1058B000B3830E94861A8091340A9091350AA09190
:1058C000360AB091370AFE01E65FFC4F8083918370
:1058D000A283B3830E94861A8091380A9091390A74
:1058E000A0913A0AB0913B0AFE01E25FFC4F80832F
:1058F0009183A283B3830E94861A8091580A909163
:10590000590AFE01EE5EFC4F918380830E94861A45
:1059100080915C0A90915D0AFE01EC5EFC4F9183E0
:1059200080830E94861A8091600A9091610AFE012C
:10593000EA5EFC4F918380830E94861A8091700AF0
:105940009091710AFE01E85EFC4F918380830E9472
:10595000861A8091740A9091750AFE01E65EFC4FEA
:10596000918380830E94861A8091780A9091790AA7
:10597000FE01E45EFC4F918380830E94861A809131
:10598000F8099091F909A091FA09B091FB09FE017B
:10599000E350FD4F0197A105B10519F481E0808323
:1059A00001C010820E94861A8091FC099091FD0925
:1059B000A091FE09B091FF09FE01E250FD4F019751
:1059C000A105B10519F481E0808301C010820E9415
:1059D000861A8091000A9091010AA091020AB09162
:1059E000030AC150DD4F0197A105B10519F481E00B
:1059F000888301C01882DF91CF911F910F91FF9092
:105A0000EF90DF90CF90BF90AF909F908F907F905E
:105A10006F905F904F903F902F9008958FEF9FEF82
:105A200008950C94F1510C94F1510C94F1510C9493
:105A3000F151AF92BF92CF92DF92EF92FF920F930C
:105A40001F93CF93DF93EC018AE190E09C8F8B8FC3
:105A50008BE190E09E8F8D8F89E190E098A38F8FEE
:105A60008FE090E09AA389A38EE190E09CA38BA3A2
:105A70008EE090E09EA38DA385E490E098A78FA38D
:105A800084E490E09AA789A7FE01EC56FF4F80E2DC
:105A900090E09487838781E290E0968785878FE105
:105AA00090E0908B8787128A118A148A138A168A4B
:105AB000158A83E490E0908F878B82E490E0928F48
:105AC000818FEC57FF4F83E290E09487838784E2D5
:105AD00090E09687858782E290E0908B8787128A94
