:10000000A1C20000D0C20000CEC20000CCC20000DD
:10001000CAC20000C8C20000C6C20000C4C20000BC
:10002000C2C20000C0C20000BEC20000BCC20000CC
:10003000BAC20000B8C20000B6C20000B4C20000DC
:10004000B2C200000C941929AEC20000ACC200007C
:100050000C944629A8C20000A6C200000C943E27BA
:10006000A2C200000C9461250C9438259CC20000AB
:100070009AC2000098C2000096C2000094C200001C
:100080000C94EC2890C200008EC200008CC20000CC
:100090008AC2000088C2000086C2000084C200003C
:1000A00082C2000080C200000C94BF287CC2000005
:1000B0007AC2000078C2000076C200000C94922838
:1000C00072C2000070C200006EC200006CC200006C
:1000D0006AC2000068C2000066C2000064C200007C
:1000E00062C200003B18481851185A186718701857
:1000F000751C751C751C751C751C7D188A18971845
:10010000751CA418AD18B618C318CC18D518DE186D
:10011000E718F018751CF91802190B19751C751CD5
:10012000751C14191D192619751C751C2F193C19DD
:10013000751C751C751C491956196319751C7019A5
:1001400079198219751C751C751C8B1994199D19C8
:10015000751CAA19B719C419751C751C751CD11901
:10016000DE19EB19751CF819051A121A751C751C85
:10017000751C1F1A2C1A391A751C461A4F1A581A50
:10018000751C751C751C7C1A891A961A751CA31A85
:10019000B01ABD1A751C751C751CCA1AD31ADC1A44
:1001A000751C751C751C751C751C751C751CE51A59
:1001B000EE1AF71A751C001B091B121B751C751C07
:1001C000751C1B1B281B351B751C421B4F1B5C1B06
:1001D000751C751C751C691B761B831B751C901B7D
:1001E000991BA21B751C751C751CAB1BB41BBD1B7E
:1001F000751C751C751C751C751C751C751C751C77
:10020000751C751C751C611A6A1A731A751C751C8D
:10021000751C751C751C751C751C751C751C751C56
:10022000751C751C751C751C751C751C751C751C46
:10023000751C751C751C751C751C751C751C751C36
:10024000751C751C751C751C751C751C751C751C26
:10025000751C751C751C751C751C751C751C751C16
:10026000751C751C751C751C751C751C751C751C06
:10027000751C751C751CC61BCF1BDC1B751CE91B74
:10028000F21BFF1B751C751C751C0C1C151C221CFD
:10029000751C2F1C381C451C751C751C751C521CAC
:1002A0005B1C681CE91DEE1DF31DFD1D071E801E55
:1002B000111E191E211E2B1E351E3F1E4E1E581EBE
:1002C000801E621E6C1E761E112314230323072337
:1002D0000D234B2318231C23222326232A233023D8
:1002E000342338234B233E23422346234E414E4999
:1002F0004E495459494E46CDCCCC3D0AD7233C17E4
:10030000B7D13877CC2B329595E6241FB14F0A0030
:100310000020410000C84200401C4620BCBE4CCA20
:100320001B0E5AAEC59D7400407A10F35A00A0729D
:100330004E18090010A5D4E80000E8764817000020
:10034000E40B54020000CA9A3B000000E1F50500EE
:100350000080969800000040420F000000A0860137
:10036000000000102700000000E803000000006407
:1003700000000000000A0000000000010000000072
:10038000002C76D888DC674F0823DFC1DFAE59E147
:10039000B1B796E5E3E453C63AE651997696E8E6B6
:1003A000C28426EB898C9B62ED407C6FFCEFBC9C89
:1003B0009F40F2BAA56FA5F490055A2AF75C936B9B
:1003C0006CF9676DC11BFCE0E40D47FEF520E6B556
:1003D00000D0ED902E0300943577050080841E0830
:1003E0000000204E0A000000C80C333333330F984E
:1003F0006E12831141EF8D2114893BE65516CFFE15
:10040000E6DB18D1844B381BF77C1D901DA4BBE4A0
:1004100024203284725E228100C9F124ECA1E53DE2
:100420002700002100240027002A002D003000337F
:100430000001010000040107010A0101021020204F
:100440000808102040102040800201020108040228
:10045000010102040810204080804020100804029E
:1004600001800402018040201008040201080402F7
:1004700001010204081020408001020408102040FD
:100480008005050505070508080808020202020A9A
:100490000A08080404040401010101010101010327
:1004A00003030303030303040707070C0C0C0C0CE2
:1004B0000C0C0C0202020206060606060606060BD5
:1004C0000B0B0B0B0B0B0B00000A0B02090C0D0E98
:1004D0000807030401000000000000000000000005
:1004E000000000000000000000000000000000000C
:1004F00000000012111000000000000000000000C9
:1005000000000000000000000000000000000022C9
:1005100000250028002B002E0031003400020100CD
:1005200000050108010B010000200023002600291E
:10053000002C002F00320000010000030106010919
:100540000100DA4B11241FBECFEFD1E2DEBFCDBFD9
:1005500000E00CBF17E0A0E0B2E0EEE7FBEA00E04D
:100560000BBF02C007900D92AA3FB107D9F72EE04A
:10057000AAEFB7E001C01D92A930B207E1F712E07F
:10058000C2EAD2E000E006C021970109802FFE01F7
:100590000E94B054C13AD10780E00807A9F70E9431
:1005A00073400C94BD552CCD0F931F93CF93DF93C5
:1005B000FB0102A113A1C68DD78D0E947129C53000
:1005C000D105E1F064F4249771F564E070E085EF03
:1005D0009DE00E940B28B80185EF9DE022C0C63047
:1005E000D105B1F02B97F9F46BE070E08EEF9DE050
:1005F0000E940B28B8018EEF9DE013C065E070E00B
:1006000088EF9DE00E940B28B80188EF9DE009C0AB
:1006100066E070E08BEF9DE00E940B28B8018BEF45
:100620009DE00E94882780E090E0DF91CF911F91AC
:100630000F9108950C94FD4C0C94FD4C0C94FD4CC2
:100640000C94FD4C0C94FD4C0C94FD4C0C94FD4C06
:100650000C94FD4C0C94FD4C0C94FD4C0C94FD4CF6
:100660000C94FD4C0C94FD4C0C94FD4CEF92FF92BD
:100670000F931F93CF93DF93FB01E2A8F3A802A18E
:1006800013A1C68DD78D0E948D1E9701A801BE01B2
:100690000E94A61D80E090E0DF91CF911F910F9105
:1006A000FF90EF9008956F927F928F929F92AF92FA
:1006B000BF92CF92DF92EF92FF920F931F93CF934F
:1006C000DF93FB01E2A8F3A886A497A4A0A8B1A891
:1006D000C6A0D7A062A073A0068D178D0E948D1EA4
:1006E000EC019701A301B8010E94A61DC501B40148
:1006F0000E94FA269701A601B801CE010E94A61D0C
:1007000080E090E0DF91CF911F910F91FF90EF90EB
:10071000DF90CF90BF90AF909F908F907F906F9021
:1007200008951F93CF93DF931F92CDB7DEB7FB01E0
:1007300062A9168D69830E948D1E6981812F0E9496
:10074000B32680E090E00F90DF91CF911F91089544
:100750000F931F93CF93DF93FB0102A913A9C68DBB
:10076000D78D0E948D1EA801BE010E943A1D80E017
:1007700090E0DF91CF911F910F910895662319F0BA
:1007800084E694E002C08DE594E00C94163FCF938C
:10079000DF93FB01C68DD78D0E941520BE010E94FC
:1007A000BB1F80E090E0DF91CF910895EF92FF9220
:1007B0000F931F93CF93DF9300D01F92CDB7DEB777
:1007C000FB0122A133A144A155A1068D178D2983D8
:1007D0003A834B835C830E9415207C01FC0182815B
:1007E000938129813A814B815C818F30F7E29F07A9
:1007F0002CF40196F7019383828303C0F7011382DF
:100800001282B801C70129833A834B835C830E941B
:10081000AC1E29813A814B815C818823A1F0F801CB
:10082000EE0FFF1FEE0FFF1FEE5FF74F20833183A8
:1008300042835383B801C7010E946C1FB801C701EE
:100840000E94BB1F04C087E595E00E94163F0E94EE
:10085000FD290E94CD2980E090E00F900F900F902D
:100860000F90DF91CF911F910F91FF90EF9008951E
:100870008F929F92AF92BF92CF92DF92EF92FF92B0
:100880000F931F930E94AC1662E070E00E94F5394E
:10089000892BC9F40E94AC1621E02F931F921F925E
:1008A0001F921F92812C912CA12CB12CC12CD12CE8
:1008B000760197018601B701A6012ED40F900F9003
:1008C0000F900F900F9080E090E01F910F91FF909C
:1008D000EF90DF90CF90BF90AF909F908F90089552
:1008E0008F929F92AF92BF92CF92DF92EF92FF9240
:1008F0000F931F930E94AC1661E070E00E94F539DF
:10090000892BC9F40E94AC161F9221E02F931F92ED
:100910001F921F92812C912CA12CB12CC12CD12C77
:10092000760197018601B701A601F6D30F900F90CB
:100930000F900F900F9080E090E01F910F91FF902B
:10094000EF90DF90CF90BF90AF909F908F900895E1
:100950008F929F92AF92BF92CF92DF92EF92FF92CF
:100960000F931F930E94AC1660E070E00E94F5396F
:10097000892BC9F40E94AC161F921F9221E02F937D
:100980001F921F92812C912CA12CB12CC12CD12C07
:10099000760197018601B701A601BED30F900F9093
:1009A0000F900F900F9080E090E01F910F91FF90BB
:1009B000EF90DF90CF90BF90AF909F908F90089571
:1009C000089508950895089508950895089508953F
:1009D000089508950895089508950895CF93DF9395
:1009E000EC016AED74E00E94242569E775E0CE0110
:1009F0000E94E6244091FE075091FF076091000895
:100A000070910108CE010E94B62468ED74E0CE0119
:100A10000E94E624CE01DF91CF91089589E795E009
:100A20000E94163F6091FE077091FF0780910008B9
:100A3000909101080E94623F88ED94E00C94163F6B
:100A40000F931F93CF93DF93EC018CE795E00E9407
:100A5000163F80E895E00E94163F07EA1CE0F80187
:100A60006081CE018BDE84E895E00E94163FF8019C
:100A70006181CE0183DE88E895E00E94163FF8018F
:100A80006281CE017BDE8CE895E00E94163FF80182
:100A90006381CE0173DE80E995E00E94163FF80184
:100AA0006481CE016BDE84E995E00E94163FF80177
:100AB0006581CE0163DECE01DF91CF911F910F9151
:100AC000ADCFCF92DF92EF92FF92CF93DF93EC0105
:100AD00088819981AA81BB81181619061A061B06FE
:100AE00044F081E090E0A0E0B0E088839983AA839D
:100AF000BB838C819D81AE81BF81181619061A06B1
:100B00001B0644F081E090E0A0E0B0E08C839D8380
:100B1000AE83BF8388859985AA85BB85181619067B
:100B20001A061B0644F081E090E0A0E0B0E0888760
:100B30009987AA87BB8788E995E00E94163F8AEAD1
:100B400096E00E94163F6091860B7091870B809112
:100B5000880B9091890B0E9415526B017C01688172
:100B600079818A819B810E9415529B01AC01C7014A
:100B7000B6010E94035442E00E94893F8AEB96E04E
:100B80000E94163F60918A0B70918B0B80918C0BA9
:100B900090918D0B0E9415526B017C016C817D81BF
:100BA0008E819F810E9415529B01AC01C701B60145
:100BB0000E94035442E00E94893F8AEC96E00E9422
:100BC000163F60918E0B70918F0B8091900B9091DE
:100BD000910B0E9415526B017C01688579858A858D
:100BE0009B850E9415529B01AC01C701B6010E9472
:100BF000035442E00E94893FCE01DF91CF91FF90E4
:100C0000EF90DF90CF900ACF8091A50C9091A60C29
:100C1000892B09F044C08FE090E00E94684CFC01F1
:100C200081E090E0A0E0B0E080839183A283B38371
:100C300084839583A683B78380879187A287B387B0
:100C40001586148616861092860B1092870B1092CA
:100C5000880B1092890B10928A0B10928B0B1092BA
:100C60008C0B10928D0B10928E0B10928F0B10929A
:100C7000900B1092910B1092A40C1092A30C109256
:100C8000FE071092FF0710920008109201081092C0
:100C9000FD071092FC07F093A60CE093A50C809141
:100CA000A50C9091A60C08950E9415200E94FD1F8E
:100CB0008CE995E00E94163FA7DFB0DE80E090E06F
:100CC00008952F923F924F925F926F927F928F92F0
:100CD0009F92AF92BF92CF92DF92EF92FF920F93CB
:100CE0001F93CF93DF930E94AC1621E02F931F92A6
:100CF0001F921F921F92812C912CA12CB12CC12CE0
:100D0000D12C760197018601B701A60105D20E9478
:100D100015200F900F900F900F900F908091CE089C
:100D20009091CF08019719F486EF9FEF02C08AE0F7
:100D300090E0C0E0D0E02C01990F66087708C3303E
:100D4000D105A9F05CF4C130D10589F0C230D105DC
:100D500039F50E94AC16E1E0EF9326C0C530D1050D
:100D600031F0F4F40E94AC16F1E0FF931DC00E9434
:100D7000AC161C01C301B2010E9415526B017C012B
:100D80001F921F921F921F921F92812C912CA12CB7
:100D9000B12C00E010E09801B901A801C10113C015
:100DA0000E94AC1621E02F931F921F921F921F9258
:100DB000812C912CA12CB12CC12CD12C7601970126
:100DC0008601B701A601A8D10F900F900F900F9048
:100DD0000F901ADF2090FC073090FD0715DFFC0113
:100DE0008685811107C0232829F42196C730D105B3
:100DF00009F0A5CF80E090E0DF91CF911F910F9196
:100E0000FF90EF90DF90CF90BF90AF909F908F902A
:100E10007F906F905F904F903F902F9008952F920A
:100E20003F924F925F926F927F928F929F92AF927A
:100E3000BF92CF92DF92EF92FF920F931F93CF93C7
:100E4000DF930E9415208091CE089091CF080197E2
:100E500019F486EF9FEF02C08AE090E0C0E0D0E096
:100E60002C01990F66087708C330D105B9F064F4F6
:100E7000C130D10599F0C230D10549F50E94AC16B8
:100E80001F92E1E0EF9328C0C530D10539F0FCF4A2
:100E90000E94AC161F92F1E0FF931EC00E94AC1698
:100EA0001C01C301B2010E9415528B019C011F92CB
:100EB0001F921F921F921F92812C912CA12CB12C5A
:100EC000C12CD12C7601B701A601C10113C00E942B
:100ED000AC161F9221E02F931F921F921F92812C1C
:100EE000912CA12CB12CC12CD12C7601970186011B
:100EF000B701A60111D10F900F900F900F900F9096
:100F000083DE2090FC073090FD077EDEFC018685A5
:100F1000811107C0232829F42196C730D10509F093
:100F2000A3CF80E090E0DF91CF911F910F91FF90D0
:100F3000EF90DF90CF90BF90AF909F908F907F9079
:100F40006F905F904F903F902F9008952F923F9217
:100F50004F925F926F927F928F929F92AF92BF92C9
:100F6000CF92DF92EF92FF920F931F93CF93DF9375
:100F70000E9415208091CE089091CF08019719F416
:100F800086EF9FEF02C08AE090E0C0E0D0E02C0145
:100F9000990F66087708C330D105C9F06CF4C130E9
:100FA000D105A9F0C230D10559F50E94AC161F92A7
:100FB0001F92E1E0EF932AC0C530D10541F004F55E
:100FC0000E94AC161F921F92F1E0FF931FC00E9477
:100FD000AC161C01C301B2010E941552AB01BC0149
:100FE0001F921F921F921F921F92812C912CA12C55
:100FF000B12CC12CD12C760197018601C10113C0FF
:101000000E94AC161F921F9221E02F931F921F92F5
:10101000812C912CA12CB12CC12CD12C76019701C3
:101020008601B701A60178D00F900F900F900F9016
:101030000F90EADD2090FC073090FD07E5DDFC0114
:101040008685811107C0232829F42196C730D10550
:1010500009F0A1CF80E090E0DF91CF911F910F9137
:10106000FF90EF90DF90CF90BF90AF909F908F90C8
:101070007F906F905F904F903F902F900895C4DDC8
:10108000FC01168680E090E00895CF93DF9385E41D
:101090000E949725EC01B8DD91E0CD2B09F490E09A
:1010A0009093A70C84E40E949725EC01ADDD91E0BC
:1010B000CD2B09F490E09093A80C83E40E9497252F
:1010C000EC01A2DD91E0CD2B09F490E09093A90C06
:1010D00082E40E949725EC0197DD91E0CD2B09F485
:1010E00090E09093AA0C81E40E949725EC018CDD9E
:1010F00091E0CD2B09F490E09093AB0C80E40E943A
:101100009725EC0181DD91E0CD2B09F490E09093DF
:10111000AC0CDF91CF9108952F923F924F925F9246
:101120006F927F928F929F92AF92BF92CF92DF92F7
:10113000EF92FF920F931F93CF93DF93CDB7DEB75C
:10114000E0970FB6F894DEBF0FBECDBF1C012A0199
:101150003B010F83188729873A8728960EAD1FAD6C
:101160002897FC01ED55FD4F60817181828193814B
:101170000E9415529B01AC01C301B2010E9474523E
:101180000E946B546D877E878F87988BF101E9559C
:10119000FD4F60817181828193810E9415529B0174
:1011A000AC016F81788589859A850E9474520E946E
:1011B0006B546F8B788F898F9A8FF101E555FD4FB6
:1011C00060817181828193810E9415529B01AC01E3
:1011D000C701B6010E9474520E946B546B8F7C8FC2
:1011E0008D8F9E8F0E9432276B8B7C8B8D8B9E8B7D
:1011F000F101EC5DFD4F1182108232961182108256
:101200003E96A114B10461F0C501A0E0B0E04081B8
:1012100051816281738184179507A607B70714F07F
:10122000A080B180F101E85CFD4F8114910461F070
:10123000C401A0E0B0E040815181628173818417D4
:101240009507A607B70714F080809180F101E45C50
:10125000FD4F0115110561F0C801A0E0B0E040812B
:1012600051816281738184179507A607B70714F02F
:10127000008111819101205F3F4F3A8B298BC5017D
:10128000A0E0B0E0F10180A791A7A2A7B3A7210138
:10129000FEE84F0E511CA12CB12CD20158968D9214
:1012A0009D92AD92BC925B973101B4EF6B1ABEEF89
:1012B0007B0A20E030E0F301008F118F228F338F03
:1012C000A3DCA2DCA1DCA0DC4091860B5091870B53
:1012D0006091880B7091890B4DA75EA76FA778ABC3
:1012E00093DC80918A0B90918B0BA0918C0BB09129
:1012F0008D0B8F839887A987BA8786DC80908E0BA9
:1013000090908F0BA090900BB090910BF101E15554
:10131000FD4F108211821282138234961082118244
:1013200012821382349610821182128213823496B2
:1013300011821082329611821082329611821082AE
:1013400032964DA55EA56FA578A94083518362832F
:10135000738334968F819885A985BA85808391831C
:10136000A283B383349680829182A282B38229962B
:10137000EFAC29970D851E852F85388989899A8933
:101380000E94662A8823E9F081E593E00E94163FD7
:101390008AEA96E00E94163FF101EE5AFF4F608103
:1013A000718182819381EF5AFD4F20813181428189
:1013B00053810E944153CA01B9010E94623F24DC5B
:1013C0002DDB2A96EFAC2A970F89188D298D3A8D3F
:1013D0004F81588569857A85C2010E94662A8823D3
:1013E000E9F08DE493E00E94163F8AEB96E00E94BC
:1013F000163FF101E053FF4F60817181828193813B
:10140000E952FE4F20813181428153810E94415334
:10141000CA01B9010E94623FF7DB00DB2B96EFACFB
:101420002B970B8D1C8D2D8D3E8DB501A401C30115
:101430000E94662A8823E9F089E493E00E94163F1F
:101440008AEC96E00E94163FF101E25BFE4F60815C
:10145000718182819381E35AFE4F208131814281E3
:1014600053810E944153CA01B9010E94623FCCDB03
:10147000D5DAD10151961C92F101E157FF4F10824C
:10148000E258FF4F1082C1010E947930C1010E94D1
:101490007D3089899A890E94B72EC2010E94B72E99
:1014A000C3010E94B72E81E090E0F101E55DFD4FA0
:1014B000918380837101B3EDEB1ABDEFFB0AF70155
:1014C000918380838101015D1D4FD8018D939C9391
:1014D00041E050E069897A89C1010E946215F701F3
:1014E00040815181B201C1010E946215D8014D9124
:1014F0005C91B301C1010E94621511E0F101E05F4E
:10150000FC4F108389899A890E94532AC2010E9444
:10151000532AC3010E94532A64E670E080E090E001
:101520000E94FA26C101885D9D4FFC011083D10104
:10153000A75DBD4F1C93A101465D5D4FFA0110836D
:101540002996FFAD2997F1110FC02A962FAD2A9742
:10155000211105C02B963FAD2B97332339F1910113
:101560002D583F4FF90110822A96FFAD2A97F111AD
:1015700005C091012F503F4FF90110822B96FFAD0E
:101580002B97F11105C0910121593E4FF9011082AD
:1015900029962FAD2997FC0120832A963FAD2A97E3
:1015A0003C932B96EFAD2B97DA01EC9389899A89BE
:1015B0000E94142CC2010E94142CC3010E94142CFE
:1015C00089899A890E94692BC2010E94692BC301F3
:1015D0000E94692B19DBDC011E968C918D87188681
:1015E0001F82F101E85DFD4FF88FEF8B9101275DC0
:1015F0003D4F3C8F2B8FA101465D5D4F58A34F8F10
:10160000C101855D9D4F9EA38DA3D101A35DBD4FFB
:10161000B8A7AFA3EA59F140FAA3E9A32D5131408D
:101620003CA32BA3FE96FAA7E9A7225C3F4F3CA759
:101630002BA7AF89B88D8C9181110BC0EB8DFC8DE0
:101640008081811106C0AF8DB8A18C91882309F4E7
:10165000F8C2BD85B111F5C2C1010E9457304DA13C
:101660005EA169897A89C1010E94BB154FA158A565
:10167000B201C1010E94BB15A101415D5D4FB301E3
:10168000C1010E94BB1589899A890E94D32BC2018E
:101690000E94D32BC3010E94D32B81010A581F4FF4
:1016A000D8018C91882331F089899A890E94142C61
:1016B000F801108281010C501F4FD8018C918823B2
:1016C00029F0C2010E94142CF801108281010E58E9
:1016D0001E4FD8018C91882329F0C3010E94142C3D
:1016E000F801108281010D581F4FD8018C91882379
:1016F00009F43EC0F101E752FD4F60817181072E70
:10170000000C880B990B0E9415529B01AC01F10152
:10171000E155FD4F60817181828193810E949C54CB
:10172000181634F5D8011C926BED74E08101065E49
:101730001D4FC8010E94E6246AED75E0C8010E94B1
:10174000E62468ED74E0C8010E94E6242996BFAD46
:101750002997BB2309F479C3C10186579E4F0E9484
:101760005D40F101E25BFF4F108211821282138211
:1017700081010F501F4FF80180818823E9F1E65164
:10178000FE4F60817181072E000C880B990B0E941F
:1017900015529B01AC01F101ED54FD4F6081718147
:1017A000828193810E949C54181634F5D8011C92B2
:1017B0006BED74E08101065E1D4FC8010E94E624B6
:1017C00062E076E0C8010E94E62468ED74E0C8019A
:1017D0000E94E6242A96BFAD2A97BB2309F43AC398
:1017E000C10186549E4F0E945D40E9A1FAA1FE9678
:1017F0001082118212821382810101591E4FD80179
:101800008C91882309F43EC0F101E352FD4F6081C1
:101810007181072E000C880B990B0E9415529B01B9
:10182000AC01F101E954FD4F6081718182819381A6
:101830000E949C54181634F5D8011C926BED74E08C
:101840008101065E1D4FC8010E94E6246AE276E02F
:10185000C8010E94E62468ED74E0C8010E94E624F5
:101860002B96BFAD2B97BB2309F4F9C2C10186515A
:101870009E4F0E945D40EBA1FCA1FE96108211825A
:101880001282138260E089899A890E94DE2A882365
:1018900061F0F101E25BFF4F10821182128213822C
:1018A000C10186579E4F0E945D4060E0C2010E94C8
:1018B000DE2A882359F0E9A5FAA510821182128246
:1018C0001382C10186549E4F0E945D4060E0C301B7
:1018D0000E94DE2A882361F0ABA5BCA51D921D9253
:1018E0001D921C921397C10186519E4F0E945D402C
:1018F000F101ED58FF4F8081EF89F88D8083F10170
:10190000EF50FF4F8081AB8DBC8D8C93E258FF4F21
:101910008081EF8DF8A18083F101E25BFF4F408170
:10192000518162817381E9A1FAA1FE968080918044
:10193000A280B380EBA1FCA1FE96C080D180E280A2
:10194000F3804DA75EA76FA778AB5ED94DA55EA5C6
:101950006FA578A94093860B5093870B6093880BF3
:101960007093890B51D980928A0B90928B0BA09225
:101970008C0BB0928D0B48D9C0928E0BD0928F0BEE
:10198000E092900BF092910BC1010E947930AF89E7
:10199000B88D8C91882309F44AC00E9432272B8984
:1019A0003C894D895E89621773078407950760F447
:1019B0000E9432272B893C894D895E896217730703
:1019C00084079507A0F51EC00E9432276B017C0199
:1019D0002B893C894D895E89C21AD30AE40AF50A2B
:1019E000F101E956FD4F2081318142815381A8EEFA
:1019F000B3E00E945D536C157D058E059F0508F4CC
:101A000033C2D6CF0E9432276B017C01F101E95627
:101A1000FD4F2081318142815381A8EEB3E00E94C5
:101A20005D536C157D058E059F0508F41DC2AB8DB9
:101A3000BC8D8C91882309F44AC00E9432272B89DF
:101A40003C894D895E89621773078407950760F4A6
:101A50000E9432272B893C894D895E896217730762
:101A600084079507A0F51EC00E9432276B017C01F8
:101A70002B893C894D895E89C21AD30AE40AF50A8A
:101A8000F101E556FD4F2081318142815381A8EE5D
:101A9000B3E00E945D536C157D058E059F0508F42B
:101AA000FAC1D6CF0E9432276B017C01F101E556C5
:101AB000FD4F2081318142815381A8EEB3E00E9425
:101AC0005D536C157D058E059F0508F4E4C1AF8D4F
:101AD000B8A18C91882309F44AC00E9432272B892F
:101AE0003C894D895E89621773078407950760F406
:101AF0000E9432272B893C894D895E8962177307C2
:101B000084079507A0F51EC00E9432276B017C0157
:101B10002B893C894D895E89C21AD30AE40AF50AE9
:101B2000F101E156FD4F2081318142815381A8EEC0
:101B3000B3E00E945D536C157D058E059F0508F48A
:101B4000C1C1D6CF0E9432276B017C01F101E15661
:101B5000FD4F2081318142815381A8EEB3E00E9484
:101B60005D536C157D058E059F0508F4ABC185ECB2
:101B70009CE00E9421221816190684F585EC9CE051
:101B80000E94FF218F7D8534910541F560EA75E063
:101B9000C101865E9D4F0E94E62486E793E00E9485
:101BA000163F32D80E940E05F101ED58FF4F10820A
:101BB000E258FF4F1082E258FF4F1082AF89B88D74
:101BC0001C92EB8DFC8D1082AF8DB8A11C92B1E000
:101BD000BD87E1E0F0E0F887EF8304C02F8138850E
:101BE000232B81F065EB75E0C101865E9D4F0E945D
:101BF000E624AF89B88D1C92EB8DFC8D1082AF8DE1
:101C0000B8A11C92C1010E94CC3EF101EA5DFD4FDA
:101C1000808191810196918380838D3291400CF473
:101C200008CDD101A25EBD4F8D919C911197892B5A
:101C300009F0FFCC14968D919C91892B09F459C120
:101C4000F8CC8101025E1D4FF80180819181892BC2
:101C500021F0C1010E94CC3EF7CF81EC95E00E94BB
:101C6000163F2996FFAD2997FF2311F12F81388563
:101C7000232BF1F43D85311142C089E393E00E94AA
:101C8000163F0E9404060E940E052A964FAD2A9721
:101C9000442381F185E393E00E94163F0E940406ED
:101CA0000E940E052B965FAD2B9751111AC027C0CD
:101CB0002A968FAD2A97882341F0AF81B885AB2B48
:101CC00021F4BD85B1111BC0E5CF2B96EFAD2B974D
:101CD000EE23A9F02F813885232B89F43D8531111E
:101CE0000EC081E393E00E94163F0E9404060E940A
:101CF0000E0505C02B969FAD2B979111F2CF810158
:101D0000055D1D4F85E090E0D8018D939C936101A6
:101D1000B3EDCB1ABDEFDB0AF6019183808371012D
:101D2000F1EDEF1AFDEFFF0AD7018D939C9345E08B
:101D300050E069897A89C101C5D6F6014081518197
:101D4000B201C101BFD6D7014D915C91B301C10170
:101D5000B9D6C1010E948130F101E25BFF4F4081A1
:101D6000518162817381E258FF4F80809180A2800F
:101D7000B380E258FF4F80819181A281B3818B8B28
:101D80009C8BAD8BBE8B4DA75EA76FA778AB0E94D7
:101D900004064DA55EA56FA578A94093860B5093C8
:101DA000870B6093880B7093890B0E9404068092C6
:101DB0008A0B90928B0BA0928C0BB0928D0B0E9491
:101DC00004062B893C894D895E8920938E0B3093C4
:101DD0008F0B4093900B5093910BC1010E9479306F
:101DE000C1010E947D300E9404060E946105C1016C
:101DF000FAD6D8011D921C92F60111821082D701E9
:101E00001D921C9240E050E069897A89C1015AD63E
:101E1000F60140815181B201C10154D6D7014D91E3
:101E20005C91B301C1014ED6C1010E948130BD85D4
:101E3000BB2309F430C20E94040621E0FC0126877E
:101E400021E030E038872F8326C2E3E0F0E0F88716
:101E5000EF838ECCE3E0F0E0F887EF83CDCCE3E0D6
:101E6000F0E0F887EF830ECD65E473E08101065E54
:101E70001D4FC8010E94E62468ED74E0C8010E946D
:101E8000E62462E576E0C8010E94E62422E030E024
:101E900038872F83CCCD61E473E08101065E1D4F4E
:101EA000C8010E94E62468ED74E0C8010E94E6249F
:101EB00067E676E0C8010E94E62442E050E05887D9
:101EC0004F8305CE6DE373E08101065E1D4FC801AF
:101ED0000E94E62468ED74E0C8010E94E6246CE7E5
:101EE00076E0C8010E94E62482E090E098878F8324
:101EF0003ECE11821082F101EC5DFD4F8081918117
:101F0000009749F462E773E08101065E1D4FC80146
:101F10000E94E6249BC1019709F0A9C10E94040612
:101F20008C01FC0180819181A281B3811816190670
:101F30001A061B0644F081E090E0A0E0B0E0808348
:101F40009183A283B383F80184819581A681B781AF
:101F5000181619061A061B0644F081E090E0A0E06E
:101F6000B0E084839583A683B783F801808591854B
:101F7000A285B385181619061A061B0644F081E0DF
:101F800090E0A0E0B0E080879187A287B3876AEDF8
:101F900074E0CE0101960E94242568E975E0CE0127
:101FA00001960E94E6246AEA76E0CE0101960E943C
:101FB000E6246091860B7091870B8091880B90913D
:101FC000890B0E9415526B017C01D8016D917D91A6
:101FD0008D919C910E9415529B01AC01C701B601E5
:101FE0000E940354AB01BC01CE0101960E9456240D
:101FF0006AEB76E0CE0101960E94E62460918A0B9E
:1020000070918B0B80918C0B90918D0B0E941552CF
:102010006B017C01F80164817581868197810E9442
:1020200015529B01AC01C701B6010E940354AB01DC
:10203000BC01CE0101960E9456246AEC76E0CE01E6
:1020400001960E94E62460918E0B70918F0B809117
:10205000900B9091910B0E9415526B017C01D8015D
:1020600018966D917D918D919C911B970E941552B0
:102070009B01AC01C701B6010E940354AB01BC0136
:10208000CE0101960E945624BE016F5F7F4F8101F1
:10209000065E1D4FC8010E94F42489819A810E9426
:1020A000FD4C0E940406BC01CE0101960E94EE0484
:1020B000BE016F5F7F4FC8010E94F42489819A811D
:1020C0000E94FD4C6DE273E0C8010E94E6246AEABA
:1020D00076E0C8010E94E624F101E657FE4FFC8736
:1020E000EB87CF010E9492200E9415526B017C0168
:1020F000F101ED55FD4F60817181828193810E94D4
:1021000015529B01AC01C701B6010E940354AB01FB
:10211000BC01C8010E9486246AEB76E0C8010E94D7
:10212000E6246101F6E4CF1AFEEFDF0AC6010E9441
:1021300092200E9415524B015C01F101E955FD4FBF
:1021400060817181828193810E9415529B01AC0153
:10215000C501B4010E940354AB01BC01C8010E9437
:1021600086246AEC76E0C8010E94E624710126E12B
:10217000E21A2EEFF20AC7010E9492200E94155225
:102180004B015C01F101E555FD4F60817181828158
:1021900093810E9415529B01AC01C501B4010E94BC
:1021A0000354AB01BC01C8010E9486240E940406AE
:1021B000BC01CE0101960E94EE04BE016F5F7F4F0D
:1021C000C8010E94F42489819A810E94FD4C69E231
:1021D00073E0C8010E94E6246AEA76E0C8010E9422
:1021E000E624EB85FC85A68DB78D2089318942894F
:1021F00053890E946753AB01BC01C8010E94B624F9
:102200006AEB76E0C8010E94E624F601A68DB78D40
:1022100020893189428953890E946753AB01BC01EF
:10222000C8010E94B6246AEC76E0C8010E94E62448
:10223000F701A68DB78D20893189428953890E9483
:102240006753AB01BC01C8010E94B6240E9404067A
:10225000BC01CE0101960E94EE04BE016F5F7F4F6C
:10226000C8010E94F42489819A810E94FD4CF101E9
:10227000EC5DFD4F808191810196823091051CF4C7
:102280009183808302C011821082F101EE5DFD4FC7
:1022900011821082CEC98FEC95E00E94163F8F818B
:1022A00098850E94584088ED94E00E94163F0E9455
:1022B00004064F8158855093FD074093FC07CA01DF
:1022C000E0960FB6F894DEBF0FBECDBFDF91CF9181
:1022D0001F910F91FF90EF90DF90CF90BF90AF9044
:1022E0009F908F907F906F905F904F903F902F9036
:1022F00008958FEF9FEF089581E996E00E94163FC1
:1023000085E593E00E94163F0E9404060E940E0598
:1023100080E090E008950C94FD4C0C94FD4C0C94DE
:10232000FD4C0C94FD4C0C94FD4C0C94FD4C0C9409
:10233000FD4C0C94FD4C0C94FD4C0E9404060E9434
:10234000610580E090E0089586E996E00E94163FDE
:102350000E9404060E9445080E9404060E9420056F
:102360000E948D1E40E050E068E070E00E943A1D3F
:102370000E948D1E40E050E069E070E00E943A1D2E
:102380000E948D1E40E050E06AE070E00E943A1D1D
:102390000E948D1E40E050E06DE070E00E943A1D0A
:1023A00080E090E00895AF92BF92CF92DF92EF92DB
:1023B000FF920F931F93CF93DF93EC018AE190E09C
:1023C0009E8B8D8B8BE190E0988F8F8B89E190E0D5
:1023D0009A8F898F8FE090E09C8F8B8F8EE190E0B9
:1023E0009E8F8D8F8EE090E098A38F8F85E490E094
:1023F0009AA389A384E490E09CA38BA3FE01E257F7
:10240000FF4F80E290E09683858381E290E09087A1
:1024100087838FE190E092878187148613861686E2
:102420001586108A178683E490E0928B818B82E474
:1024300090E0948B838BE258FF4F83E290E0968389
:10244000858384E290E09087878382E290E09287A0
:1024500081871486138616861586108A178681E46E
:1024600090E0928B818B80E490E0948B838BE15E93
:10247000FE4F1182108232961182108232961182A2
:102480001082CE010E949832CE010E94AC30CE0163
:1024900086579E4F41E050E0FC0157A746A7DE015A
:1024A000A654BE4F24E030E09F963C932E939E9717
:1024B0005E01F6E1AF1AFEEFBF0A28E030E0F50159
:1024C00037A726A720E130E0FC013183208321E1FA
:1024D00030E0358324832FEF3FEF3383228337832C
:1024E0002683628560876385618767E170E0119666
:1024F0007C936E9368E170E015967C936E931497CD
:1025000013963C932E93129717963C932E931697FF
:102510001A966C911A9718966C9318971B966C9153
:102520001B9719966C9319976DE170E0F501718313
:1025300060836CE170E07583648333832283378327
:1025400026836285608763856187BE016A5F7C4FF1
:10255000FB01608171818E010C501D4FF801C0801C
:10256000D180E280F38006501109F80100811181C9
:10257000FC01158F048FC48AD58AE68AF78A6130F8
:10258000710519F4378F268F03C0FC01578F468FD2
:10259000CE01885F9C4FFC01808191819E01285073
:1025A0003D4FF90140815181628173812850310989
:1025B000F901208131815D963C932E935C9754966E
:1025C0004D935D936D937C935797019719F48FEF1B
:1025D0009FEF02C081E090E05F969C938E935E97A0
:1025E000DE01A65FBC4F8D919C9111971E974D9176
:1025F0005D916D917C91CE50DD4F28813981F5013F
:10260000358F248F448B558B668B778B019719F40C
:102610008FEF9FEF03C081E090E0F501978F868FE9
:10262000DF91CF911F910F91FF90EF90DF90CF90AE
:10263000BF90AF9008952F923F924F925F926F920A
:102640007F928F929F92AF92BF92CF92DF92EF9242
:10265000FF920F931F93CF93DF93CDB7DEB7CE5783
:10266000D1090FB6F894DEBF0FBECDBF8C01FC01BF
:1026700010821182128213821482158216821782AE
:10268000108611861286138614861586168617867E
:102690002C01F0E14F0E511CC2010E94DA2E68019C
:1026A0008EE8C80ED11CC6010E94DA2E7801E4EF34
:1026B000EE1AEEEFFE0AC7010E94DA2E3801F6E7A5
:1026C0006F1AFEEF7F0AC3010E94F920480186E4D9
:1026D000881A8EEF980AC4010E94F9205801E6E199
:1026E000AE1AEEEFBE0AC5010E94F9206AED74E051
:1026F000C801865E9D4F0E942425F801E05EFD4FD3
:1027000011821082329611821082329611821082CA
:102710003296118210823296108231961082319652
:102720001082319611821082329611821082329676
:102730001182108232961082319610823196108268
:102740003196108211821282138234961082118285
:10275000128213823496108211821282138234966E
:102760001082118212821382349610821182128298
:102770001382349610821182128213823496108250
:102780001182128213823496108211821282138275
:102790003496108211821282138234961082118232
:1027A000128213823496108211821282138234961E
:1027B0001082118212821382349610821182128248
:1027C0001382349610821182128213823496108200
:1027D00011821282138234961082319610823196C1
:1027E00010823196108211821282138234961082E6
:1027F0001182128213823496108211821282138205
:102800003496108231961082319610823196108261
:102810003196108231961082319610823196108254
:102820003196108231961082319610823196108244
:102830003196108231961082319610823196108234
:102840003196108231961082319610823196108224
:102850003196108231961082319610823196108214
:102860003196108211821282138234961082118264
:102870001282138234961082118212821382D8013E
:10288000AD55BD4F8CE0EEE5F3E001900D928A95D9
:10289000E1F7F801E155FD4F108211821282138297
:1028A0003496108211821282138234961082118221
:1028B0001282138234961182108232961182108213
:1028C0003296118210823296108211821282138205
:1028D00034961082118212821382349610821182F1
:1028E00012821382349610821182128213823496DD
:1028F0001082118212821382349610821182128207
:10290000138234961182108232961182108232968E
:1029100011821082329610821182128213823496B2
:1029200010821182128213823496108211821282D6
:10293000138234961082319610823196108231962D
:102940001182108232961182108232961182108288
:102950003296108211821282138234961082118272
:10296000128213823496108211821282138234965C
:102970001182108232961182108232961182108258
:102980003296118210823296118210823296118212
:1029900010823296118210823296118210821801B2
:1029A000F0EF2F1AFCEF3F0AF1011082CE010196E1
:1029B0000E94DA2E8EE7FE013196D20101900D922F
:1029C0008A95E1F7CE0101960E94DA2E8EE7FE018C
:1029D0003196D60101900D928A95E1F7CE010196CC
:1029E0000E94DA2E8EE7FE013196D70101900D92FA
:1029F0008A95E1F788E5F801808B89E5F601808307
:102A00008AE5F7018083CE0101960E94F92080E3D8
:102A1000FE013196D30101900D928A95E1F7CE0126
:102A200001960E94F92080E3FE013196D4010190C5
:102A30000D928A95E1F7CE0101960E94F92080E37C
:102A4000FE013196D50101900D928A95E1F7C801FA
:102A5000AADCF1011082C258DF4F0FB6F894DEBF36
:102A60000FBECDBFDF91CF911F910F91FF90EF90DF
:102A7000DF90CF90BF90AF909F908F907F906F909E
:102A80005F904F903F902F9008950F931F93CF9397
:102A9000DF938B01EA018EE693E00E94163F84E902
:102AA00096E00E94163FF80180810E94573FCE01B8
:102AB0000E9458400E940406DF91CF911F910F9110
:102AC0000C940E05CF92DF92EF92FF920F931F931B
:102AD000CF93DF93CDB7DEB728970FB6F894DEBF5C
:102AE0000FBECDBF8B016A01865E9D4F7C016AE6F9
:102AF00073E00E94E62464E976E0C7010E94E624C0
:102B0000F801808189831A8241E050E08E010F5FD5
:102B10001F4FB801C7010E9429244AE0B801C6012D
:102B20000E94C24DF80101900020E9F73197AF01F2
:102B3000401B510BB801C7010E9429240E940406C2
:102B4000BC01C8010E94EE04B801C7010E94F42430
:102B500089819A810E94FD4C28960FB6F894DEBFB9
:102B60000FBECDBFDF91CF911F910F91FF90EF90DE
:102B7000DF90CF900895FC01DB01A959BF4F8C91E4
:102B8000882319F022E030E002C020E030E0DB01D1
:102B9000A759BF4F8C91882311F023E030E0DB016F
:102BA000A859BF4F8C91882311F024E030E0DB015D
:102BB000A659BF4F8C91882311F026E030E0DA014E
:102BC0008D919C918217930721F091E012161306C4
:102BD0000CF090E0DA012D933C93992319F0A901B0
:102BE000CF0170CF08958F929F92AF92BF92CF92F4
:102BF000DF92EF92FF920F931F93CF93DF93EC013D
:102C00008DE293E00E94163F8AEA96E00E94163F0A
:102C10006E0186E7C81A8EEFD80AC6010E9492207C
:102C20000E9415524B015C01FE01ED55FD4F608184
:102C30007181828193810E9415529B01AC01C50173
:102C4000B4010E94035442E00E94893F8AEB96E05F
:102C50000E94163F7E01E6E4EE1AEEEFFE0AC7017F
:102C60000E9492200E9415524B015C01FE01E95521
:102C7000FD4F60817181828193810E9415529B0179
:102C8000AC01C501B4010E94035442E00E94893F97
:102C90008AEC96E00E94163F8E0106511E4FC80135
:102CA0000E9492200E9415524B015C01C555DD4FD8
:102CB000688179818A819B810E9415529B01AC01B8
:102CC000C501B4010E94035442E00E94893F0E9462
:102CD00004060E940E0589E293E00E94163F8AEAEC
:102CE00096E00E94163FF601A68DB78D20893189A6
:102CF000428953890E9467530E94623F8AEB96E0A3
:102D00000E94163FF701A68DB78D2089318942892F
:102D100053890E9467530E94623F8AEC96E00E94AA
:102D2000163FF801A68DB78D2089318942895389D4
:102D30000E9467530E94623F0E940406DF91CF9178
:102D40001F910F91FF90EF90DF90CF90BF90AF90C9
:102D50009F908F900C940E05CF93DF938091AD0CD4
:102D60009091AE0C892B51F481E193E00E94684C64
:102D7000EC0161DCD093AE0CC093AD0C8091AD0C36
:102D80009091AE0CDF91CF9108954F925F926F9228
:102D90007F928F929F92AF92BF92CF92DF92EF92EB
:102DA000FF920F931F93CF93DF9300D01F92CDB765
:102DB000DEB70E9415204090DE085090DF0860903A
:102DC000E0087090E1080E9415208090E208909041
:102DD000E308A090E408B090E5080E940406C090C3
:102DE000860BD090870BE090880BF090890B0E94A7
:102DF0000406C701B6010E9415526B017C01C30194
:102E0000B2010E9415529B01AC01C701B6010E949C
:102E100003542B013C0160918A0B70918B0B8091C4
:102E20008C0B90918D0B0E9415526B017C01C5019A
:102E3000B4010E9415529B01AC01C701B6010E946A
:102E40000354AB01BC0149835A836B837C8384DFC9
:102E50001F921F921F921F921F92812C912CA12CC6
:102E6000B12CC12CD12C760149815A816B817C8196
:102E70008A019B01B301A2010E948C086DDF1F92A1
:102E80001F921F921F921F9297018601B301A20108
:102E90000E948C0861DF1F921F921F921F921F9247
:102EA00097018601B701A6010E948C080FB6F8941D
:102EB000DEBF0FBECDBF80E090E00F900F900F906F
:102EC0000F90DF91CF911F910F91FF90EF90DF90C6
:102ED000CF90BF90AF909F908F907F906F905F90BA
:102EE0004F9008954F925F926F927F928F929F9230
:102EF000AF92BF92CF92DF92EF92FF920F931F9308
:102F0000CF93DF9300D01F92CDB7DEB7FB011689B8
:102F1000078982889388A684B784C284D384E48492
:102F2000F584468057806084718442815381648136
:102F3000758149835A836B837C830EDF1F921F92B6
:102F40001F920F931F939301820149815A816B81D4
:102F50007C810E948C080F900F900F900F900F9023
:102F600080E090E00F900F900F900F90DF91CF9145
:102F70001F910F91FF90EF90DF90CF90BF90AF9097
:102F80009F908F907F906F905F904F900895CF9318
:102F9000DF93EB0120E030E040E85FE36A817B8172
:102FA0008C819D810E940F52811110C08DE996E0A5
:102FB0000E94163FD1DEFC01E25BFF4F10821182BE
:102FC0001282138286579E4F0E945D4020E030E0BF
:102FD00040E85FE36E817F81888599850E940F526A
:102FE000811110C08DEA96E00E94163FB5DEFC010B
:102FF000E453FF4F108211821282138286549E4F37
:103000000E945D4020E030E040E85FE36A857B8518
:103010008C859D850E940F52811110C08DEB96E02A
:103020000E94163F99DEFC01E65BFE4F1082118282
:103030001282138286519E4F0E945D400E940406B8
:103040000E940E0580E090E0DF91CF9108950895F1
:103050000895089508950895089508950895089588
:10306000603E710508F041C4FB018827EE58FF4F10
:103070008F4F0C94B05481E090E0A0E0B0E08093DA
:10308000020890930308A0930408B09305080895DC
:10309000109206081092070810920808109209086A
:1030A000089510920A0810920B0810920C081092C2
:1030B0000D08089581E090E0A0E0B0E080930E0854
:1030C00090930F08A0931008B093110808951092E0
:1030D00012081092130810921408109215080895FF
:1030E00083E090E0A0E0B0E080931608909317088A
:1030F000A0931808B0931908089588E790E0A0E01D
:10310000B0E080932E0890932F08A0933008B093DE
:103110003108089588E790E0A0E0B0E0809332089D
:1031200090933308A0933408B0933508089588E746
:1031300090E0A0E0B0E08093360890933708A09329
:103140003808B0933908089510923E0810923F084D
:10315000109240081092410808951092420810926F
:1031600043081092440810924508089581E090E0C9
:10317000A0E0B0E08093460890934708A0934808E9
:10318000B0934908089510924A0810924B08109283
:103190004C0810924D08089510924E0810924F0856
:1031A00010925008109251080895109252081092EF
:1031B000530810925408109255080895109256081A
:1031C00010925708109258081092590808951092BA
:1031D0005A0810925B0810925C0810925D080895DE
:1031E00010925E0810925F081092600810926108B9
:1031F000089510926608109267081092680810925D
:103200006908089510926A0810926B0810926C0871
:1032100010926D08089510926E0810926F08109227
:10322000700810927108089510927E0810927F081D
:1032300010928008109281080895109282081092CE
:1032400083081092840810928508089510928608C9
:10325000109287081092880810928908089581E0DA
:1032600090E0A0E0B0E08093920890939308A09340
:103270009408B0939508089581E090E0A0E0B0E054
:103280008093960890939708A0939808B093990814
:1032900008958CE291E0A0E0B0E08093A6089093BE
:1032A000A708A093A808B093A90808958CE291E01C
:1032B000A0E0B0E08093AA089093AB08A093AC087C
:1032C000B093AD0808958CE291E0A0E0B0E0809367
:1032D000AE089093AF08A093B008B093B1080895DA
:1032E0001092B6081092B7081092B8081092B90858
:1032F00008951092BA081092BB081092BC08109260
:10330000BD0808951092BE081092BF081092C00820
:103310001092C10808951092CE081092CF08109212
:10332000D0081092D10808951092D2081092D308B4
:103330001092D4081092D508089581E090E0A0E0A2
:10334000B0E08093D6089093D708A093D808B093A4
:10335000D908089585E090E0A0E0B0E08093DE0811
:103360009093DF08A093E008B093E108089585E00A
:1033700090E0A0E0B0E08093E2089093E308A0938F
:10338000E408B093E508089589E190E0A0E0B0E09A
:103390008093E6089093E708A093E808B093E908C3
:1033A000089582E390E0A0E0B0E08093F608909367
:1033B000F708A093F808B093F908089582E390E025
:1033C000A0E0B0E08093FA089093FB08A093FC087B
:1033D000B093FD08089582E390E0A0E0B0E0809310
:1033E000FE089093FF08A0930009B0930109089587
:1033F00082E390E0A0E0B0E0809306099093070993
:10340000A0930809B0930909089582E390E0A0E031
:10341000B0E080930A0990930B09A0930C09B09334
:103420000D09089582E390E0A0E0B0E080930E09DA
:1034300090930F09A0931009B0931109089580E9A2
:1034400091E0A0E0B0E080931E0990931F09A09343
:103450002009B0932109089580E991E0A0E0B0E04F
:103460008093220990932309A0932409B0932509FE
:10347000089580E991E0A0E0B0E080932609909360
:103480002709A0932809B0932909089510922E09BD
:1034900010922F091092300910923109089510925C
:1034A00032091092330910923409109235090895A7
:1034B0001092360910923709109238091092390982
:1034C00008951092460A1092470A1092480A1092E4
:1034D000490A089510924A0A10924B0A10924C0A17
:1034E00010924D0A089510924E0A10924F0A1092AF
:1034F000500A1092510A089588E592E0A0E0B0E0E9
:103500008093460990934709A0934809B0934909CD
:10351000089588E592E0A0E0B0E080934A09909396
:103520004B09A0934C09B0934D09089588E592E0AA
:10353000A0E0B0E080934E0990934F09A09350090A
:10354000B093510908958EE190E0A0E0B0E080933F
:10355000560990935709A0935809B09359090895B3
:103560008EE190E0A0E0B0E080935A0990935B096F
:10357000A0935C09B0935D0908958EE190E0A0E00E
:10358000B0E080935E0990935F09A0936009B093C7
:103590006109089510926E0910926F0910927009D6
:1035A0001092710908951092720910927309109285
:1035B000740910927509089510927609109277098E
:1035C0001092780910927909089510929609109234
:1035D00097091092980910929909089510929A09E2
:1035E00010929B0910929C0910929D0908951092C7
:1035F0009E0910929F091092A0091092A1090895A6
:103600001092A6091092A7091092A8091092A90970
:1036100008951092AA091092AB091092AC09109269
:10362000AD0908951092AE091092AF091092B00939
:103630001092B109089585E090E0A0E0B0E0809399
:10364000BE099093BF09A093C009B093C109089522
:1036500085E090E0A0E0B0E08093C2099093C309B8
:10366000A093C409B093C509089585E090E0A0E057
:10367000B0E08093C6099093C709A093C809B0939E
:10368000C909089584EB95E1A0E0B0E08093CE09EC
:103690009093CF09A093D009B093D109089584EBFA
:1036A00095E1A0E0B0E08093D2099093D309A09374
:1036B000D409B093D509089584EB95E1A0E0B0E07A
:1036C0008093D6099093D709A093D809B093D909CC
:1036D000089585E090E0A0E0B0E08093E609909343
:1036E000E709A093E809B093E909089585E090E01F
:1036F000A0E0B0E08093EA099093EB09A093EC0975
:10370000B093ED09089585E090E0A0E0B0E08093EB
:10371000EE099093EF09A093F009B093F109089591
:103720001092F6091092F7091092F8091092F9090F
:1037300008951092FA091092FB091092FC09109258
:10374000FD0908951092FE091092FF091092000AD7
:103750001092010A089510920E0A10920F0A109208
:10376000100A1092110A08951092120A1092130A68
:103770001092140A1092150A08951092160A1092C7
:10378000170A1092180A1092190A08951092260B1F
:103790001092270B1092280B1092290B08958CE39E
:1037A00090E0A0E0B0E080932A0B90932B0BA093C5
:1037B0002C0BB0932D0B089581E090E0A0E0B0E0D9
:1037C00080932E0B90932F0BA093300BB093310B63
:1037D00008951092360B1092370B1092380B1092FE
:1037E000390B08958CE390E0A0E0B0E080933A0BB1
:1037F00090933B0BA0933C0BB0933D0B089581E05D
:1038000090E0A0E0B0E080933E0B90933F0BA0933C
:10381000400BB093410B089510924E0B10924F0B3A
:103820001092500B1092510B08958CE390E0A0E0A1
:10383000B0E08093520B9093530BA093540BB09332
:10384000550B089581E090E0A0E0B0E08093560B26
:103850009093570BA093580BB093590B0895109267
:103860005E0B10925F0B1092600B1092610B08952B
:103870008CE390E0A0E0B0E08093620B9093630B48
:10388000A093640BB093650B089581E090E0A0E0F5
:10389000B0E08093660B9093670BA093680BB09396
:1038A000690B08951092760B1092770B1092780B9B
:1038B0001092790B08958CE390E0A0E0B0E0809343
:1038C0007A0B90937B0BA0937C0BB0937D0B0895A8
:1038D00081E090E0A0E0B0E080937E0B90937F0BBE
:1038E000A093800BB093810B0895660F771F660F2E
:1038F000771FFB01EE5FF74F108211821282138255
:103900000895EBE0F1E08081877F80830895EBE00C
:10391000F1E080818860808308958E9808958E9A62
:10392000089514980895149A089588980895889A87
:10393000089560E0FC0183850C94BF2560E0FC01E4
:1039400085810C94BF2561E0FC0183850C94BF2523
:1039500061E0FC0185810C94BF254F925F926F92CC
:103960007F928F929F92AF92BF92CF92DF92EF920F
:10397000FF92CF93DF935B01EB01CC0FDD1FCE01F4
:103980000E942B53482E512C612C712CCE01019694
:103990000E942B53C82ED12CE12CF12C8DE8A81AB3
:1039A000B10883E0A816B10488F5CE0144960E94C0
:1039B0002B53882E912CA12CB12CCE0145960E9420
:1039C0002B53482F50E060E070E08FEF8816910491
:1039D000A104B104A9F44F3F51056105710581F4BB
:1039E0008FEF481651046104710481F48FEFC816FB
:1039F000D104E104F10451F46FEF7FEFCB012BC050
:103A000040385105610571056CF0F6CF80E8C816A5
:103A1000D104E104F10484F740E050E0BA01812CC4
:103A2000912C5401FE2CED2CDC2CCC24C40CD51C88
:103A3000E61CF71C540199248824C80CD91CEA1CE4
:103A4000FB1C742F662755274427CB01BA016C0D48
:103A50007D1D8E1D9F1DDF91CF91FF90EF90DF9018
:103A6000CF90BF90AF909F908F907F906F905F901E
:103A70004F900895EF92FF920F931F93CF93DF9390
:103A8000162F072F7A014115510559F4862F0E94F0
:103A9000972531E020E0019709F030E0C32FD22FC5
:103AA00026C04130510509F5262F663310F02AEC67
:103AB000260F80917B00922F9870877F892B8093AF
:103AC0007B002770206420937C0080917A008064C2
:103AD00080937A0080917A0086FDFCCFC0917800B7
:103AE00080917900D0E0D82B02C0C0E0D0E082E025
:103AF000E816F10410F58DEC96E00E94163F84E97B
:103B000096E00E94163F81ED96E00E94163F812FBD
:103B1000902F0E94584084E996E00E94163F85E568
:103B200095E00E94163FCE010E9458400E94040674
:103B30000E940E0580E090E002C081E090E0DF91FD
:103B4000CF911F910F91FF90EF9008950F931F93C6
:103B5000CF93DF938B01EA01AB014150510944330C
:103B6000510508F0D3C02230310508F0CFC048E33A
:103B7000429FF001439FF00D1124E60FF71FE80F5D
:103B8000F91F81E08083232B11F46C2F07C061E0C3
:103B9000802F0E94B326209731F460E0802FEFD76A
:103BA00080E090E0B5C0CF3FD10509F4ADC0F80189
:103BB000E953FB4FE4918E2F90E0FC013197E23105
:103BC000F10508F09DC08827EE5AFE4F8F4F0C94E8
:103BD000B05484B5806884BDC7BDE2CF84B580622F
:103BE00084BDC8BDDDCF8091800080688093800057
:103BF000D0938900C0938800D3CF809180008062E9
:103C000080938000D0938B00C0938A00C9CF8091AD
:103C10008000886080938000D0938D00C0938C00DA
:103C2000BFCF8091B00080688093B000C093B30094
:103C3000B7CF8091B00080628093B000C093B40091
:103C4000AFCF80919000806880939000D0939900CE
:103C5000C0939800A5CF80919000806280939000DF
:103C6000D0939B00C0939A009BCF80919000886076
:103C700080939000D0939D00C0939C0091CF809141
:103C8000A00080688093A0008091A0008F7B80932B
:103C9000A000D093A900C093A80082CF8091A0007B
:103CA00080628093A000D093AB00C093AA0078CF2D
:103CB0008091A00088608093A000D093AD00C09355
:103CC000AC006ECF80912001806880932001D0935A
:103CD0002901C093280164CF8091200180628093E4
:103CE0002001D0932B01C0932A015ACF809120014B
:103CF000886080932001D0932D01C0932C0150CF78
:103D0000C038D1050CF449CF61E048CF81E090E0A4
:103D1000DF91CF911F910F9108958091B10C9091F7
:103D2000B20C892BA1F480E790E00E94684CFC0162
:103D3000F9969C0123593F4FDF01D8971C921192AD
:103D4000E217F307C9F79093B20C8093B10C8091FE
:103D5000B10C9091B20C0895683571050CF05BC000
:103D6000653571050CF09EC0603371059CF56D32B0
:103D700071050CF097C06C317105FCF46931710567
:103D80000CF090C06E3071058CF46B3071050CF046
:103D900089C06115710509F485C077FD81C0625045
:103DA00071096430710508F07BC07CC06F507109E7
:103DB0006930710508F074C075C0663271053CF455
:103DC000643271050CF06EC06F51710966C06952A2
:103DD000710963C0643471058CF4613471050CF0B1
:103DE00061C06A3371053CF4673371050CF05AC049
:103DF0006353710952C06D5371094FC06E34710520
:103E00003CF46B3471050CF04DC06754710945C02A
:103E10006155710942C06638710514F56338710542
:103E20000CF040C0623771057CF46F367105D4F533
:103E30006836710534F465367105A4F56B55710962
:103E40002CC06956710929C06C37710534F4693783
:103E5000710544F56357710920C06D5771091DC084
:103E6000603D71057CF46D3C7105E4F464397105C5
:103E700034F461397105B4F46D5871090EC0695C90
:103E800071090BC06A3D710534F4673D710554F446
:103E9000635D710902C06D5D71096330710510F0D9
:103EA00080E0089581E008950F931F93CF93DF93EF
:103EB0008C01C0E0D0E0BE01C8014EDF882319F0BC
:103EC000BE01C801CDD82196C13ED105A1F7DF9131
:103ED000CF911F910F910895EF92FF920F931F932F
:103EE000CF93DF9300D01F92CDB7DEB78B017B015C
:103EF000EE0CFF1C622FC70129833A834B835C833E
:103F00000E94335329813A814B815C81992757FD67
:103F10009A95852F742F632FC70101960E94335302
:103F20000D58110929813A814B815C8103301105BB
:103F3000A8F4BA01992777FD9095892FC701449677
:103F40000E94335329813A814B815C81652F772709
:103F500088279927C70145960E94335380E090E057
:103F60000F900F900F900F90DF91CF911F910F91B5
:103F7000FF90EF900895CF92DF92EF92FF92CF9350
:103F8000DF93EB01E9DE882359F1FE01EE0FFF1FFD
:103F9000EE0FFF1FEE5FF74FC080D180E280F3800D
:103FA00083ED96E00E94163F84E996E00E94163F5A
:103FB00081ED96E00E94163FCE010E94584084E9B0
:103FC00096E00E94163F85E595E00E94163FC701E6
:103FD000B6010E94623F0E9404060E940E0504C0C2
:103FE00087E595E00E94163F80E090E0DF91CF9159
:103FF000FF90EF90DF90CF9008950F931F93CF9392
:10400000DF938C01C0E0D0E0BE01C801A5DE8823AB
:1040100019F0BE01C801AFDF2196C13ED105A1F75D
:10402000DF91CF911F910F910895EF92FF920F931F
:104030001F93CF93DF938091AF0C9091B00C892B9D
:1040400009F065C084E090E00E94684CEC0160E0FB
:1040500070E083DC16161706F4F0CE0125DF92E03F
:10406000E92E98E0F92E00E010E0B801CE0174DEF0
:10407000882341F0F7012081318142815381B801C9
:10408000CE012ADF0F5F1F4FF4E0EF0EF11C06395F
:10409000110559F738C063E070E0CE015EDC613095
:1040A00071058105910569F582E0E82E88E0F82E1A
:1040B00000E010E0B801CE014FDE8823C9F0B8015E
:1040C000CE014BDCF70160837183828393836F3F62
:1040D0007F4F8F4F9F4F61F4B801CE010E9430187F
:1040E000F7012081318142815381B801CE01F4DE94
:1040F0000F5F1F4FF4E0EF0EF11C013E1105D1F6EA
:1041000002C0CE01D1DED093B00CC093AF0C809131
:10411000AF0C9091B00CDF91CF911F910F91FF9058
:10412000EF900895AF92BF92CF92DF92EF92FF92FD
:104130000F931F93CF93DF9300D01F92CDB7DEB7BD
:10414000FC016489758986899789A68CB78C603152
:1041500027E272078105910529F016161706180641
:10416000190644F02089318942895389D5010E947A
:10417000675330C08F010E94155220E030E44CE1BB
:1041800057E40E9403549B01AC01F801608F718FCA
:10419000828F938F608971898289938929833A8379
:1041A0004B835C830E94155229813A814B815C814B
:1041B0000E9474526B017C01B501BB0C880B990BFA
:1041C0000E9415529B01AC01C701B6010E947452B6
:1041D0000E946B540F900F900F900F90DF91CF9132
:1041E0001F910F91FF90EF90DF90CF90BF90AF9015
:1041F0000895FC01118210821382128215821482AA
:1042000017821682108611861286138614861586EA
:1042100016861786108A118A128A138A108E118EBA
:10422000128E138E158E148E178E168E10A211A25A
:1042300012A213A214A215A216A217A210A611A6CA
:1042400012A613A614A615A681E090E097A786A74C
:1042500080E197E2A0E0B0E0848B958BA68BB78BD2
:1042600008958EBD00000DB407FEFDCF8EB50895F4
:10427000CF92DF92EF92FF920F931F93CF93DF9332
:10428000EC0160E086E17BD48EA59FA524E0880F39
:10429000991F2A95E1F78F60E4DF83E290E00197B0
:1042A000F1F704E010E0C12CD12C7601FE2CED2CAE
:1042B000DC2CCC2481E0D5DFC82A01501109B1F7EC
:1042C00061E086E15CD4C88AD98AEA8AFB8ADF91F8
:1042D000CF911F910F91FF90EF90DF90CF900895B5
:1042E000CF93DF93EC01FC01E359FF4F1082379726
:1042F00081E0808360E08D8142D48F859889892B0D
:1043000029F060E08B85DF91CF9139C4DF91CF91A7
:104310000895CF93DF93EC018B8909D42E8930E087
:104320008217930711F48F8901C080E0DF91CF914C
:104330000895CF93DF93EC018989F9D32E8930E07A
:104340008217930711F48F8901C080E0DF91CF912C
:104350000895CF93DF93EC018DA5882311F061E0E0
:1043600001C060E08F810BD48EA5882329F08FA532
:10437000882311F061E001C060E08D85DF91CF916D
:10438000FEC3CF92DF92EF92FF920F931F93CF93D2
:10439000DF936C017A018B01C0E0D0E0CE15DF0520
:1043A00089F0D8016D918D01D601ED91FC910190BC
:1043B000F081E02DC6011995892B11F47E0102C010
:1043C0002196ECCFC701DF91CF911F910F91FF9004
:1043D000EF90DF90CF900895089580E090E00895E9
:1043E000FC01538D448D252F30E0842F90E0821BFB
:1043F000930B541710F0CF96089501970895FC0180
:10440000918D828D981761F0828DDF01A80FB11D0B
:104410005D968C91928D9F5F9F73928F90E008952F
:104420008FEF9FEF0895FC01918D828D981731F0E9
:10443000828DE80FF11D858D90E008958FEF9FEF3D
:104440000895FC01918D228D892F90E0805C9F4F13
:10445000821B91098F739927089585EC9CE0F1DF09
:1044600021E0892B09F420E0822F0895FC01848D3E
:10447000DF01A80FB11DA35ABF4F2C91848D90E08E
:1044800001968F739927848FA689B7892C93A08969
:10449000B1898C9180648C93938D848D981306C020
:1044A0000288F389E02D80818F7D80830895EF92CB
:1044B000FF920F931F93CF93DF93EC0181E0888FDE
:1044C0009B8D8C8D981305C0E889F989808185FDC5
:1044D00023C0F62E0B8D10E00F5F1F4F0F731127B7
:1044E000E02E8C8DE8120BC00FB607FCFACFE889DE
:1044F000F989808185FFF5CFCE01B8DFF2CF8B8DB2
:10450000FE01E80FF11DE35AFF4FF0820B8FEA899D
:10451000FB898081806207C0EE89FF896083E8891A
:10452000F98980818064808381E090E0DF91CF9180
:104530001F910F91FF90EF900895CF93DF93EC01BF
:10454000888D8823C1F0EA89FB89808185FD05C0BB
:10455000A889B9898C9186FD0EC00FB607FCF5CFEE
:10456000808185FFF2CFA889B9898C9185FFEDCF35
:10457000CE017CDFE8CFDF91CF91089580E090E01D
:10458000892B19F06ADF811125C080E090E0892B2A
:1045900041F080E090E0892B21F00E940000811121
:1045A0001CC080E090E0892B41F080E090E0892BF6
:1045B00021F00E940000811113C080E090E0892B5F
:1045C000A1F080E090E0892B81F00E940000811131
:1045D0000AC008950E940000D8CF0E940000E1CFD9
:1045E0000E940000EACF0C940000089590E0FC01C6
:1045F0003197E231F10508F04EC08827EC59FE4FA3
:104600008F4F0C94B054809180008F7703C08091BD
:1046100080008F7D80938000089580918000877F47
:10462000F9CF84B58F7702C084B58F7D84BD08959E
:104630008091B0008F7703C08091B0008F7D809310
:10464000B0000895809190008F7707C0809190000E
:104650008F7D03C080919000877F809390000895A4
:104660008091A0008F7707C08091A0008F7D03C04C
:104670008091A000877F8093A00008958091200101
:104680008F7707C0809120018F7D03C0809120012A
:10469000877F8093200108953FB7F8948091C10CE3
:1046A0009091C20CA091C30CB091C40C26B5A89BEC
:1046B00005C02F3F19F00196A11DB11D3FBFBA2FB4
:1046C000A92F982F8827820F911DA11DB11DBC0114
:1046D000CD0142E0660F771F881F991F4A95D1F7D9
:1046E00008950E94A0550F931F93CF93DF93EC0181
:1046F00088819981009729F02A813B812617370705
:1047000088F48B016F5F7F4F0E94B854009761F06F
:10471000998388831B830A832C813D81232B11F489
:10472000FC01108281E001C080E0DF91CF911F91F8
:104730000F9108958091B70C81113FC081E0809363
:10474000B70C0E94AC16FC01ED58FF4F20812223CC
:1047500069F0709740815181628173814F5F5F4F33
:104760006F4F7F4F4083518362837383FC01EF500F
:10477000FF4F2081222369F070974081518162812F
:1047800073814F5F5F4F6F4F7F4F408351836283D1
:104790007383FC01E159FE4F2081222361F0709761
:1047A00080819181A281B3810196A11DB11D808379
:1047B0009183A283B3831092B70C0895CF92DF92B6
:1047C000EF92FF920F931F93CF93DF937C016B01C6
:1047D0008A01E9012ADCF601EE0FFF1FEE0FFF1F31
:1047E000EE5FF74F80819181F701918380831DDC1B
:1047F000000F111F000F111FF801EE5FF74F81E04E
:10480000408151816281738141305105610571059B
:1048100009F080E0F701828708DCCC0FDD1FCC0FA8
:10482000DD1FCE5FD74F88819981AA81BB81F701B7
:1048300082839383A483B5831682178210861186A0
:10484000DF91CF911F910F91FF90EF90DF90CF906C
:104850000895EF92FF920F931F93CF93DF93FC0184
:10486000248135816115710511F480E018C041156E
:104870005105A1F07B01EC018A01020F131FB80161
:1048800032DF882391F3288139818C819D81B701A2
:10489000820F931F0E94B6551D830C8381E0DF9128
:1048A000CF911F910F91FF90EF900895EF92FF929B
:1048B0000F931F93CF93DF93CDB7DEB764970FB6F7
:1048C000F894DEBF0FBECDBF7C01CB01BA018E01D3
:1048D0000F5F1F4F22E044E00E94494CBC01FC01E5
:1048E00001900020E9F73197AF01481B590BC70130
:1048F000B0DF64960FB6F894DEBF0FBECDBFDF9178
:10490000CF911F910F91FF90EF900895EF92FF923A
:104910000F931F93CF93DF93CDB7DEB764970FB696
:10492000F894DEBF0FBECDBF7C01CB01BA018E0172
:104930000F5F1F4F22E044E00E94494CBC01FC0184
:1049400001900020E9F73197AF01481B590BC701CF
:1049500080DF64960FB6F894DEBF0FBECDBFDF9147
:10496000CF911F910F91FF90EF900895EF92FF92DA
:104970000F931F93CF93DF93CDB7DEB72E970FB66C
:10498000F894DEBF0FBECDBF7C01CB01BA012AE097
:104990008E010F5F1F4FA8010E94CC4DF8010190BE
:1049A0000020E9F73197AF01401B510BB801C70157
:1049B00050DF2E960FB6F894DEBF0FBECDBFDF914D
:1049C000CF911F910F91FF90EF90089561157105A0
:1049D00049F0FB0101900020E9F73197AF01461B38
:1049E000570B37CF80E00895FB01448155816081EA
:1049F00071812FCFEF92FF920F931F93CF93DF938D
:104A0000EC017B018A01BA016EDE288139818111B6
:104A10000DC02115310519F0C9010E94FD4C198204
:104A200018821D821C821B821A8206C01D830C8381
:104A3000B701C9010E94B655CE01DF91CF911F91F8
:104A40000F91FF90EF900895FC0111821082138264
:104A50001282158214826115710549F0FB010190E3
:104A60000020E9F73197AF01461B570BC3CF0895DC
:104A70001F920F920FB60F9211240BB60F922F9325
:104A80003F934F935F936F937F938F939F93AF93D6
:104A9000BF93EF93FF9385EC9CE0E8DCFF91EF91EF
:104AA000BF91AF919F918F917F916F915F914F9146
:104AB0003F912F910F900BBE0F900FBE0F901F9044
:104AC00018951F920F920FB60F9211240BB60F92EA
:104AD0002F938F939F93EF93FF93E091D50CF091D9
:104AE000D60C8081E091DB0CF091DC0C82FD12C0D1
:104AF00090818091DE0C8F5F8F732091DF0C821785
:104B000051F0E091DE0CF0E0EB53F34F958F809382
:104B1000DE0C01C08081FF91EF919F918F912F91C9
:104B20000F900BBE0F900FBE0F901F901895CF9354
:104B3000DF93282F30E0F901E953FB4F8491F9010D
:104B4000E55CFB4FD491F901EF57FB4FC491CC23A7
:104B500089F081114BDDEC2FF0E0EE0FFF1FE95DD6
:104B6000FA4FA591B491EC91ED2381E090E021F40E
:104B700080E002C080E090E0DF91CF9108951F9324
:104B8000CF93DF93282F30E0F901E953FB4F849155
:104B9000F901E55CFB4FD491F901EF57FB4FC4914C
:104BA000CC23C1F0162F811121DDEC2FF0E0EE0FA8
:104BB000FF1FE35FFA4FA591B4918FB7F8941111DD
:104BC00005C09C91ED2FE095E92302C0EC91ED2BFF
:104BD000EC938FBFDF91CF911F910895CF92DF9219
:104BE000EF92FF920F931F93CF93DF936C018B0192
:104BF0007A01EC01C854D34F888187FF04C0FB01C0
:104C00001182108224C08CE08C9D90018D9D300D0E
:104C100011248881A901480F511D87FD5A95809163
:104C2000F40D90E04817590794F48881A901480FC2
:104C3000511D87FD5A95CA01FA01EE0FFF1F8E0F15
:104C40009F1FFC01EC59F24F808186FD19C08881BD
:104C50008F5F88838CE08C9D90018D9D300D112499
:104C60008881A901480F511D87FD5A958091F40D47
:104C700090E048175907B4F488818C303CF112C099
:104C80008881280F311D87FD3A95F901EE0FFF1F2E
:104C90002E0F3F1FF901EC59F24F808160E08F73B6
:104CA0006EDFD5CFF80180819181049680349C49D4
:104CB00018F480E49CE904C0F80180819181049695
:104CC000F701918380838FEF888344C0F80140818E
:104CD00051818881B901680F711D87FD7A95CB01DB
:104CE000FB01EE0FFF1F8E0F9F1FFC01EC59F24FCF
:104CF00081819281840F951FF70191838083888140
:104D0000A901480F511D87FD5A95CA01FA01EE0FFE
:104D1000FF1F8E0F9F1FFC01EC59F24F808186FF11
:104D200019C08881280F311D87FD3A95F901EE0FD2
:104D3000FF1F2E0F3F1FF901EC59F24F808161E0F8
:104D40008F73DF91CF911F910F91FF90EF90DF90C4
:104D5000CF9015CFDF91CF911F910F91FF90EF90E2
:104D6000DF90CF900895CF93DF9390E0FC01E55C56
:104D7000FB4F2491FC01EF57FB4F8491882361F195
:104D800090E0880F991FFC01EF5DFB4FC591D49116
:104D9000FC01E35FFA4FA591B491611109C09FB77F
:104DA000F8948881209582238883EC912E230BC070
:104DB000623061F49FB7F8943881822F8095832305
:104DC0008883EC912E2B2C939FBF06C08FB7F8944D
:104DD000E8812E2B28838FBFDF91CF9108958230F9
:104DE000910538F0880F991F880F991F0597019733
:104DF000F1F708958F929F92AF92BF92CF92DF9278
:104E0000EF92FF926B017C0147DC4B015C01C11406
:104E1000D104E104F104E9F03FDCDC01CB018819A5
:104E20009909AA09BB09883E9340A105B10578F309
:104E300021E0C21AD108E108F10888EE880E83E06B
:104E4000981EA11CB11CC114D104E104F10421F786
:104E5000DECFFF90EF90DF90CF90BF90AF909F900C
:104E60008F9008952FB7F8946091BD0C7091BE0C8F
:104E70008091BF0C9091C00C2FBF08951F920F928C
:104E80000FB60F9211242F933F938F939F93AF935D
:104E9000BF938091BD0C9091BE0CA091BF0CB091BE
:104EA000C00C3091BC0C23E0230F2D3720F4019669
:104EB000A11DB11D05C026E8230F0296A11DB11D3D
:104EC0002093BC0C8093BD0C9093BE0CA093BF0CA0
:104ED000B093C00C8091C10C9091C20CA091C30CF6
:104EE000B091C40C0196A11DB11D8093C10C90938B
:104EF000C20CA093C30CB093C40CBF91AF919F910F
:104F00008F913F912F910F900FBE0F901F9018958A
:104F1000CF92DF92EF92FF92CF93DF93EC0160325A
:104F200082E078070CF03DC077FD06C0653B710557
:104F30002CF064EB70E002C060E070E0898128E84A
:104F400030E06901C81AD10887FDD394CC0CDD1C70
:104F5000CC0CDD1C0D2C000CEE08FF088A8128E526
:104F600032E0281B310987FD3395220F331F220FB2
:104F7000331FC901330FAA0BBB0B9C01AD012C19C8
:104F80003D094E095F09DB010E94675324EB30E0C5
:104F900040E050E00E944153C20ED31EE41EF51EB5
:104FA000B6018881803380F5998148E850E0491B3B
:104FB000510997FD5395440F551F440F551F641712
:104FC000750784F09A8128E532E0291B310997FDA5
:104FD0003395220F331F220F331FAB0126173707DC
:104FE0000CF4A90142505109440F551F2FB7F894F2
:104FF00090E0FC01EE0FFF1F8E0F9F1FFC01EC598C
:10500000F24F528341832FBFDF91CF91FF90EF90FA
:10501000DF90CF9008951F93CF93DF93EC01162F6D
:105020008881803308F04DC061E0812F9CDE88814B
:10503000E82FF0E09F01220F331FE20FF31FEC591E
:10504000F24F1F739081907C192B108319821A8262
:105050006CE00E94A4549CE0899FB001112440E0C0
:1050600050E09A01260F371FF901EE0FFF1F2E0F98
:105070003F1FF901EC59F24F908196FD16C04F5F2A
:105080005F4F4C30510569F7813001F51092800077
:1050900082E0809381001092850010928400B19A82
:1050A00080916F00826080936F00E881F0E0CF0113
:1050B000880F991FE80FF91FEC59F24F8081806427
:1050C00080838881DF91CF911F910895823061F4B0
:1050D000109290008093910010929500109294008D
:1050E00088BB80937100E1CF833069F41092A000F7
:1050F00082E08093A1001092A5001092A40089BBC9
:1051000080937200D2CF8111D0CF1092200182E023
:105110008093210110922501109224018ABB809373
:105120007300C3CF1F920F920FB60F9211240BB6CC
:105130000F922F933F934F935F936F937F938F9330
:105140009F93AF93BF93EF93FF9348E251E064E2E4
:1051500071E080E090E042DDFF91EF91BF91AF916F
:105160009F918F917F916F915F914F913F912F917F
:105170000F900BBE0F900FBE0F901F9018951F92AF
:105180000F920FB60F9211240BB60F922F933F93ED
:105190004F935F936F937F938F939F93AF93BF933F
:1051A000EF93FF9348EA50E064EA70E083E090E018
:1051B00015DDFF91EF91BF91AF919F918F917F91FD
:1051C0006F915F914F913F912F910F900BBE0F9078
:1051D0000FBE0F901F9018951F920F920FB60F924F
:1051E00011240BB60F922F933F934F935F936F93BE
:1051F0007F938F939F93AF93BF93EF93FF9348E970
:1052000050E064E970E082E090E0E8DCFF91EF912B
:10521000BF91AF919F918F917F916F915F914F91CE
:105220003F912F910F900BBE0F900FBE0F901F90CC
:1052300018951F920F920FB60F9211240BB60F9272
:105240002F933F934F935F936F937F938F939F938E
:10525000AF93BF93EF93FF9348E850E064E870E0AA
:1052600081E090E0BBDCFF91EF91BF91AF919F9106
:105270008F917F916F915F914F913F912F910F90FF
:105280000BBE0F900FBE0F901F9018951F920F929C
:105290000FB60F9211240BB60F922F933F934F939B
:1052A0005F936F937F938F939F93AF93BF93EF938E
:1052B000FF93E091FA07F091FB071995FF91EF91A9
:1052C000BF91AF919F918F917F916F915F914F911E
:1052D0003F912F910F900BBE0F900FBE0F901F901C
:1052E00018958091B50C9091B60C892B41F481E012
:1052F00090E00E94684C9093B60C8093B50C80911E
:10530000B50C9091B60C08950F931F93CF93DF9334
:10531000FC012081318121153105D1F1EC01822F71
:1053200006DC21E0892B09F420E02B876A8526170B
:1053300029F01E821F82188619860BC08E819F81DC
:10534000A885B9850196A11DB11D8E839F83A8876D
:10535000B9870E811F81288539858A819B81AC811F
:10536000BD81081719072A073B0794F081E06827D9
:10537000888105DC0990D881C02D0E948D1E40E0F7
:1053800050E0BE01DF91CF911F910F910C943A1D17
:10539000DF91CF911F910F910895CF93DF93EC018F
:1053A0002AEC30E04BEC50E069EC70E007DA2EECD0
:1053B00030E04FEC50E06DEC70E0CE010C96FED981
:1053C00024ED30E045ED50E063ED70E0CE0148960D
:1053D000F5D928ED30E049ED50E067ED70E0CE0101
:1053E0008496ECD92EED30E04FED50E06DED70E09D
:1053F000CE01C096DF91CF91E1C9CF93DF93809129
:10540000B30C9091B40C892BE9F48CE390E00E94EA
:10541000684CEC01FC01CC96118210823C96E81796
:10542000F907D1F7198218821D861C86198E188EED
:105430001DA21CA219AA18AACE01AFDFD093B40CEA
:10544000C093B30C8091B30C9091B40CDF91CF91C9
:105450000895CF93DF93EC018DA5882311F060E0D0
:1054600001C061E08F818BDB8EA5882329F08FA599
:10547000882311F060E001C061E08D85DF91CF915C
:105480007ECBCF93DF93EC0161E0898578DB8EA53D
:10549000882319F061E08F8572DBC559DF4F1882D0
:1054A000DF91CF910895CF93DF93EC0160E0898580
:1054B00066DB8EA5882319F060E08F8560DBC55917
:1054C000DF4F81E08883DF91CF910895CF92DF9203
:1054D000EF92FF920F931F93CF93DF93FC0142AFA4
:1054E00053AF64AF75AFDC01DE964D935D936D9362
:1054F0007C93139714960D931D932D933C931397C0
:10550000EC01CA5BDF4FE88284A9882389F084A577
:10551000811109C037FF0CC01D921D921D921C9273
:10552000139781E006C01016110612061306A4F3A5
:1055300080E045A956A967A970AD14161506160690
:1055400017063CF591AD992321F10D911D912D91F7
:105550003C9113976801790137FF07C0CC24DD2403
:105560007601C01AD10AE20AF30A4C155D056E05F0
:105570007F057CF437FF07C0709560955095419585
:105580005F4F6F4F7F4F4D935D936D937C93139758
:1055900081E0DF01AD5ABF4F1D921D921D921C92FA
:1055A0001397ED59FF4F91E09083DF91CF911F91B9
:1055B0000F91FF90EF90DF90CF9008950F931F937E
:1055C000CF93DF938C01D62FFC01858981110BC00D
:1055D000C8010E949921C82FC8010E948921D111B8
:1055E0000AC08C2F08C0C8010E948921C82FC80199
:1055F0000E949921F4CFDF91CF911F910F910895CF
:10560000CF93DF93EC01FC01E359FF4F81E08083EE
:1056100039978081B697882341F080819181A2815A
:10562000B3810196A11DB11D07C080819181A28126
:10563000B3810197A109B10980839183A283B383C8
:10564000FE01E059FF4F20813181DE01A259BF4F99
:10565000C9019595879520FD03C0ED91FC910DC082
:10566000FE01E80FF91F0190F081E02D2D913C9192
:10567000E20FF31F0190F081E02D8C0F9D1F199513
:105680008F859889892B11F1FE01EC58FF4F2081FD
:105690003181DE01AE58BF4FC9019595879520FD38
:1056A00003C0ED91FC910DC0FE01E80FF91F0190C0
:1056B000F081E02D2D913C91E20FF31F0190F081DC
:1056C000E02D8C0F9D1FDF91CF911994DF91CF9129
:1056D00008958F929F92AF92BF92CF92DF92EF92F6
:1056E000FF920F931F93CF93DF93EC01FC01ED5AD0
:1056F000FF4F60817181828193810E9413526B01FF
:105700007C0168A979A98AA99BA90E9415529B01CD
:10571000AC0160E074E284E799E40E9403544B0119
:105720005C01FE01E15AFF4F6081718182819381AA
:105730000E9413529B01AC01C501B4010E940354A5
:105740004B015C018E01095A1F4F20E030E040E020
:105750005FE30E9474529B01AC01C701B6010E9435
:105760009F530E947054F8016083718382839383F6
:10577000C55ADF4FA5019401C701B6010E949F538E
:105780000E947054688379838A839B83DF91CF91D1
:105790001F910F91FF90EF90DF90CF90BF90AF904F
:1057A0009F908F9008950F931F93CF93DF93FC01E9
:1057B000E359FF4F20812223C1F07A9700811181A4
:1057C000228133813896408151816281738104172F
:1057D00015072607370718F1EC010E947021CE014A
:1057E000DF91CF911F910F9174CFFC01ED59FF4FC5
:1057F00020812223A1F070970081118122813381C1
:105800003496408151816281738104171507260700
:10581000370728F0DF91CF911F910F91F1CEDF91E3
:10582000CF911F910F9108952F923F924F925F92C7
:105830006F927F928F929F92AF92BF92CF92DF92A0
:10584000EF92FF920F931F93CF93DF93CDB7DEB705
:1058500062970FB6F894DEBF0FBECDBF8C017C01FE
:1058600026E4E20EF11CD7018C9198012C593F4F90
:10587000F801EB59FF4F6F01A801425C5F4F4A01ED
:1058800014971D01882341F0F80184A5D9018C9358
:1058900081E0F60180832FC0DA014D915D916D9119
:1058A0007C91F10180819181A281B381BB24B39469
:1058B000481759076A077B070CF0B12CF901B08231
:1058C00077FF07C070956095509541955F4F6F4F7A
:1058D0007F4FB7FF07C0B095A095909581959F4FDA
:1058E000AF4FBF4F21E0481759076A077B070CF4F9
:1058F00020E0D6012C93F4014081518162817381B3
:10590000411551056105710559F4F801848D958D96
:10591000A68DB78DE15AFF4F80839183A283B38315
:10592000F10180819181A281B381F80142AC53AC35
:1059300064AC75AC98012D593F4F59014816590672
:105940006A067B0634F4481759076A077B077CF020
:105950000AC084159505A605B7052CF4841795078C
:10596000A607B70724F0D7018C918823D9F0F50159
:1059700080818823B9F0D7018C91811105C0F7018E
:10598000808181110FC006C060E0C80117DE81115F
:10599000F6CF17C0D6016C9181E06827C8010EDEF2
:1059A000882379F0D5011C9260E0C80107DE8823C6
:1059B00009F4C4C1F801FE9610821182128213828A
:1059C000BDC1D80194962D913D914D915C919797D1
:1059D00029833A834B835C8358962D913D914D9159
:1059E0005C915B972D833E834F8358875C962D9106
:1059F0003D914D915C915F9729873A874B875C87F2
:105A0000F10180819181A281B381F801FE96C0806D
:105A1000D180E280F380F80142AD53AD64AD75AD45
:105A2000E959FF4F1082319610823801F9E66F0E66
:105A3000711CF3011082980126593F4FF901108221
:105A4000329610824C015D01841A950AA60AB70AA3
:105A5000B7FE08C0B094A09490948094811C911CCF
:105A6000A11CB11C481759076A077B072CF4C41AFC
:105A7000D50AE60AF70A04C0C81AD90AEA0AFB0AD4
:105A8000D501C401B595A795979587958D879E8774
:105A9000AF87B88BD801A459BF4F1D01F7FC05C0D3
:105AA0008C149D04AE04BF044CF4F80100A0F1A1D5
:105AB000E02DFA8BE98B81E0D9011BC02D853E8555
:105AC0004F8558892C153D054E055F0508F454C0D7
:105AD00089819A81AB81BC818C159D05AE05BF057E
